:1000000002C100002CC100002AC1000028C100006C
:1000100026C1000024C1000022C1000020C1000050
:100020001EC100001CC100001AC1000018C1000060
:1000300016C1000014C1000012C1000052C7000028
:100040000EC100000CC100000AC1000008C1000080
:1000500006C1000004C1000002C100000C94F20AB5
:10006000FEC000000C94F20C0C94EE0DF8C00000E1
:10007000F6C00000F4C00000F2C00000F0C00000B4
:10008000EEC00000ECC00000EAC00000E8C00000C4
:100090000C94310D0C942D0EE2C00000E0C0000065
:1000A000DEC00000DCC00000DAC00000D8C00000E4
:1000B000D6C00000D4C00000D2C00000D0C00000F4
:1000C000CEC00000CCC00000CAC000000C94700D6F
:1000D0000C946C0EC4C000000C94AF0D0C94AB0ECD
:1000E000BEC0000000002100240027002A002D00CF
:1000F0003000330001010000040107010A01000083
:100100002200250028002B002E00310034000201BF
:100110000000050108010B0100002000230026005B
:1001200029002C002F00320000010000030106010D
:10013000090105050505070508080808020202026D
:100140000A0A080804040404010101010101010173
:100150000303030303030303040707070C0C0C0C3E
:100160000C0C0C0C02020202060606060606060627
:100170000B0B0B0B0B0B0B0B0102102020080810B4
:100180002040102040800201020108040201010207
:1001900004081020408080402010080402018004E0
:1001A000020180402010080402010804020101023B
:1001B0000408102040800102040810204080000044
:1001C000090A02080B0C0D070603040100000000D9
:1001D000000000000000000000000000000000001F
:1001E0000000000000000000000011100F000000DF
:1001F00000000000000000000000000000000000FF
:10020000000000001A1011241FBECFEFD1E2DEBFA4
:10021000CDBF00E00CBF13E0A0E0B2E0EAEFF7E2F0
:1002200000E00BBF02C007900D92A63DB107D9F7C1
:100230001BBE19E0A6EDB3E001C01D92A13EB107BF
:10024000E1F712E0C6E0D2E004C02297FE010E946E
:10025000F713C430D107C9F7ADD00C94FB13D0CE3F
:100260004F925F926F927F929F92AF92BF92CF9286
:10027000DF92EF92FF920F931F93DF93CF9300D003
:100280000F92CDB7DEB70E943A0B2B013C0138EE3E
:10029000E32E33E0F32E012D112DE60EF71E081F7D
:1002A000191F9924939486E79EE30E94A10B0E9454
:1002B0003A0B5B016C016E157F058007910790F387
:1002C0008FE3891508F441C086017501E418F5082B
:1002D00006091709892D90E082959295907F9827BD
:1002E000807F98275C01CC24DD24C601B50128EC71
:1002F00030E040E050E00E94B413E616F70608072D
:10030000190708F5AE14BF04C006D106D0F4A80141
:1003100097010E94D31388EC821B0F900F900F90CF
:100320000F90CF91DF911F910F91FF90EF90DF9091
:10033000CF90BF90AF909F907F906F905F904F90C5
:10034000089580E0EACF88ECE8CF789480E090E0F0
:10035000A0E4B0E089839A83AB83BC8389E599E00C
:1003600060E072E00E94841289E599E06EE770E037
:100370004AE050E00E94671289819A81AB81BC817A
:100380000097A105B10599F089819A81AB81BC8163
:100390000197A109B10989839A83AB83BC838981C1
:1003A0009A81AB81BC810097A105B10569F70C94D6
:1003B00000008ACF0E94AB0B2FD280E090E008951E
:1003C000E0E7F0E08081816080830895662371F426
:1003D00090E0FC01E295F295F07FFE27E07FFE279A
:1003E000E80FF91FE451FC4F8089089590E0F894DC
:1003F000FC01E295F295F07FFE27E07FFE27E80FF3
:10040000F91FE451FC4F8089108A78940895BF92B7
:10041000CF92DF92EF92FF920F931F93DF93CF93D0
:1004200000D00F92CDB7DEB78C01C62EB42EE0906F
:10043000C103F090C2032FE1E21624E0F20609F4B2
:1004400016C12091C3033091C403A8014223532352
:10045000F70154874387C8018095909582239323A1
:100460009093C4038093C303CC20A1F0402751276D
:100470005F73452B89F480E00F900F900F900F90E1
:10048000CF91DF911F910F91FF90EF90DF90CF9070
:10049000BF900895452B79F7F701D2806D2D70E05C
:1004A000FB01EF51FC4F8081815080838823D9F07C
:1004B000E0E0F0E021E030E0482F50E04F5F5F4F98
:1004C000E60FF71FEE0FFF1FDF01AA51BC4F8D9102
:1004D0009C91EC51FC4F91838083F9012F5F3F4F3A
:1004E0002417350769F70115110561F0C8018070FF
:1004F000907C8050904C31F0CC20C1F1C8019F73AA
:10050000892BA1F5789480E090E0A0E4B0E08983A5
:100510009A83AB83BC8389E599E06BE372E00E9428
:10052000841289E599E060E475E04AE050E00E94B9
:10053000671289819A81AB81BC810097A105B105C1
:1005400099F089819A81AB81BC810197A109B10998
:1005500089839A83AB83BC8389819A81AB81BC8177
:100560000097A105B10569F70C94000016FF70C053
:10057000F70185818B0D85839091C003891B181627
:100580000CF06CC0F701168705871786CC2011F494
:1005900081E087879091E003692F70E06115710514
:1005A00009F4ACC0E091DA03F091DB0382818D1590
:1005B00008F4A4C0ACEDB3E021E030E007C0ED9159
:1005C000FD9182812F5F3F4F8D1528F0122FA901D9
:1005D00026173707A4F3292F21509F5F9093E0033C
:1005E000211784F0E22FFF27E7FDF095EE0FFF1FA4
:1005F000E652FC4F80819181938382832150329710
:100600002117C4F7440F551F46525C4FFA01F1827F
:10061000E0828091C1039091C2039093EB03809399
:10062000EA038FE194E09093C2038093C103809129
:10063000E303882309F066C08091E203882309F070
:1006400064C08091E103882309F04AC081E014CF9F
:10065000FFEFBF12B394F701B28694CF80898F3F2A
:1006600011F08F5F808B9F5FF70195838BCF78941C
:1006700080E090E0A0E4B0E089839A83AB83BC8300
:1006800089E599E06BE372E00E94841289E599E0C4
:1006900066EE75E04AE050E00E94671289819A8117
:1006A000AB81BC810097A105B10599F089819A8140
:1006B000AB81BC810197A109B10989839A83AB837E
:1006C000BC8389819A81AB81BC810097A105B1056A
:1006D00069F70C940000E090C103F090C203B1CE22
:1006E000E0E0F0E0EE0FFF1FEC51FC4F80819181C4
:1006F0009093C2038093C10381E0BECE10E040E03E
:1007000050E069CFE2E0F0E0EDCFE1E0F0E0EACFE9
:10071000F8940F920FB60F921F922F923F924F9222
:100720005F926F927F928F929F92AF92BF92CF9281
:10073000DF92EF92FF920F931F932F933F934F936C
:100740005F936F937F93AF93BF93CF93DF93EF93B9
:10075000FF935DDE882309F03DC0A091C103B091F5
:10076000C2031B968D919C911C97009771F09093FA
:10077000D9038093D8031C961C921E921B9700905D
:10078000D8030F920090D9030F929F918F91FF9100
:10079000EF91DF91CF91BF91AF917F916F915F9179
:1007A0004F913F912F911F910F91FF90EF90DF900C
:1007B000CF90BF90AF909F908F907F906F905F9001
:1007C0004F903F902F901F900F900FBE0F90189555
:1007D00080E090E0A091C103B091C2038D919C9103
:1007E00011979093D9038093D8030DB60092D60346
:1007F0000EB60092D7030090D8030DBE0090D90327
:100800000EBE8091D6039091D703E091EA03F09158
:10081000EB0391838083A5CF4F925F926F927F927B
:100820008F929F92AF92BF92CF92DF92EF92FF9200
:100830000F931F93DF93CF9300D00F92CDB7DEB706
:100840000CEE13E084E4D8011D928A95E9F7B8D440
:10085000EE24FF24CC24CA94DC2C812C912C30E48F
:10086000A32EB12C20E8722E99E2692EF801838123
:100870009481009761F0668177816115710539F087
:100880000084F185E02DE233F10508F03DC0789455
:1008900089829A82AB82BC8289E599E06BE372E03F
:1008A0000E94841289E599E06AED77E04AE050E021
:1008B0000E94671289819A81AB81BC810097A10552
:1008C000B10599F089819A81AB81BC810197A10919
:1008D000B10989839A83AB83BC8389819A81AB8177
:1008E000BC810097A105B10569F70C940000D801FF
:1008F00016966D917C9117971896ED91FC9119972A
:1009000013968D919C9114973197E60FF71F1082E3
:10091000DF011E921E928E939C01442737FD409565
:10092000542F3E93252F3327442755272E931E926D
:100930007E921E92CD010197DC017F971C92119748
:10094000AE17BF07D9F74697FC011082DC011E9253
:10095000FD011292DF011E92FD011292DF011E9233
:100960001197A617B70730F0FD0160823197E6179F
:10097000F707D8F7F801B183A08314861386108A8D
:10098000E114F10409F476C09281E091DA03F09168
:10099000DB038281891708F46DC04CED53E021E040
:1009A00030E00AC0FA0141905190AF01F20182811A
:1009B0002F5F3F4F891728F0622FD9012E153F0571
:1009C0008CF32C2DC6166CF0F601EE0FFF1FE652CD
:1009D000FC4F808191819383828321503297261727
:1009E000C4F7AA0FBB1FA652BC4FC70182959295B0
:1009F000907F9827807F98278E0D9F1D84519C4F54
:100A00008D939C930894E11CF11C0F5E1F4F08947A
:100A1000C11CD11CF3E0EF16F10409F027CF83E0ED
:100A20008093E0032FE134E01092200410921F0421
:100A3000109224041092290410922B0410922A047C
:100A400010922D0410922C0481E080932E041092B9
:100A50002F041092E1031092E2031092E30330930B
:100A6000C2032093C1033093EB032093EA03A8DC75
:100A7000B7D2FECF60E0A0E0B0E0A3CF8F929F920C
:100A8000AF92BF92CF92DF92EF92FF920F931F939C
:100A9000DF93CF9300D00F92CDB7DEB74701BC2CC8
:100AA000E82EFF246701C294D29450EFD522DC24B3
:100AB000C522DC24F601EE0DFF1DE451FC4F7483CA
:100AC00063833783268311870087428381149104CF
:100AD00009F4C5C0C40187709070892B09F4A3C0C4
:100AE000789480E090E0A0E4B0E089839A83AB83BF
:100AF000BC8389E599E06BE372E00E94841289E58A
:100B000099E06CE877E04AE050E00E946712898142
:100B10009A81AB81BC810097A105B10599F08981CB
:100B20009A81AB81BC810197A109B10989839A831C
:100B3000AB83BC8389819A81AB81BC810097A1057D
:100B4000B10569F70C940000F601EE0DFF1DE451AC
:100B5000FC4F12861582C4018070907C8050904CAE
:100B600009F06AC0789480E090E0A0E4B0E0898366
:100B70009A83AB83BC8389E599E06BE372E00E94C2
:100B8000841289E599E060E475E04AE050E00E9453
:100B9000671289819A81AB81BC810097A105B1055B
:100BA00099F089819A81AB81BC810197A109B10932
:100BB00089839A83AB83BC8389819A81AB81BC8111
:100BC0000097A105B10569F70C94000096FE3DC0A1
:100BD000F601EE0DFF1DE451FC4F85818A0D8583E2
:100BE0009091C003891B18160CF075C0F601EE0D2C
:100BF000FF1DE451FC4F968685861786BB2011F4B5
:100C000081E087870F900F900F900F90CF91DF9129
:100C10001F910F91FF90EF90DF90CF90BF90AF901A
:100C20009F908F90089512861582C4018070907CE9
:100C30008050904C09F496CFBB2041F2C4019F73C1
:100C4000892B09F48FCF96FCC3CF8FEFA812A39402
:100C5000F601EE0DFF1DE451FC4FA286C7CF78943C
:100C600080E090E0A0E4B0E089839A83AB83BC830A
:100C700089E599E06BE372E00E94841289E599E0CE
:100C800068E877E04AE050E00E94671289819A8123
:100C9000AB81BC810097A105B10599F089819A814A
:100CA000AB81BC810197A109B10989839A83AB8388
:100CB000BC8389819A81AB81BC810097A105B10574
:100CC00069F70C940000F601EE0DFF1DE451FC4F96
:100CD0001286158247CF80898F3F11F08F5F808BFE
:100CE000F601EE0DFF1DE451FC4F9F5F95837ECF13
:100CF000FF920F931F93DF93CF9300D00F92CDB746
:100D0000DEB7F090C003F394F092C0031091E003BB
:100D1000A0E000E0011708F061C0E02FF0E0EE0F66
:100D2000FF1FE652FC4F20813181F9014385548534
:100D3000BA018581F81609F463C0F9018285882318
:100D400061F081508287882341F485859685807083
:100D50009078482B592B548743874617570709F437
:100D60004DC0F9018785882369F4F9016585768589
:100D7000CB01842795279F73892B31F04623572376
:100D80004070507C452BD1F1D9011296EC91F0E0E6
:100D9000DF01AF51BC4F8C91E80FF11DEE0FFF1F2B
:100DA000EC51FC4F318320838F5F8C9311500117DE
:100DB00088F4202FE22FF0E0EE0FFF1FDF01A45296
:100DC000BC4F8D919C91E652FC4F918380832F5FA5
:100DD000211780F3A1E0011708F49FCF1093E003DF
:100DE000AA23C1F440E0842F0F900F900F900F9032
:100DF000CF91DF911F910F91FF9008950F5F8ACFE0
:100E00008585968580709074842B952B9487838735
:100E1000AC0193CF8091E303882309F03FC0809118
:100E2000E203882309F055C08091E103882309F08B
:100E300053C0789480E090E0A0E4B0E089839A8386
:100E4000AB83BC8389E599E06BE372E00E94841276
:100E500089E599E06EEC72E04AE050E00E9467128A
:100E600089819A81AB81BC810097A105B10599F078
:100E700089819A81AB81BC810197A109B1098983DC
:100E80009A83AB83BC8389819A81AB81BC810097B3
:100E9000A105B10569F70C940000A4CFE2E0F0E0F1
:100EA0002091C1033091C2033093EB032093EA03F6
:100EB000EE0FFF1FEC51FC4F808191819093C20394
:100EC0008093C10340E02817390749F081E04827A3
:100ED0008ACFE1E0F0E0E4CFE0E0F0E0E1CF41E014
:100EE000F5CF0F920FB60F921F922F923F924F9213
:100EF0005F926F927F928F929F92AF92BF92CF92AA
:100F0000DF92EF92FF920F931F932F933F934F9394
:100F10005F936F937F93AF93BF93CF93DF93EF93E1
:100F2000FF938F939F931124E3DE882309F435C048
:100F3000A091C103B091C2038D919C9111979093A0
:100F4000D9038093D8030DB60092D6030EB6009253
:100F5000D7030090D8030DBE0090D9030EBE809138
:100F6000D6039091D703E091EA03F091EB039183CC
:100F700080831B968D919C911C97009771F09093A4
:100F8000D9038093D8031C961C921E921B97009045
:100F9000D8030F920090D9030F929F918F91FF91E8
:100FA000EF91DF91CF91BF91AF917F916F915F9161
:100FB0004F913F912F911F910F91FF90EF90DF90F4
:100FC000CF90BF90AF909F908F907F906F905F90E9
:100FD0004F903F902F901F900F900FBE0F9018953D
:100FE0000F931F93DF93CF9300D00F92CDB7DEB74F
:100FF00037D9082F89E599E06CE672E00E948412E7
:1010000010E00F5F1F4F1595079589E599E0B8012E
:101010004AE050E00E94551289E599E06AE772E0E3
:101020000E9486128DE061E0ABD466E970E080E05A
:1010300090E02ED38DE060E0A3D466E970E080E01C
:1010400090E026D362E573E080E090E021D380E079
:1010500060E0BCD9882309F07EC081E060E0B6D9A9
:10106000882309F043C082E060E0B0D9882349F4C6
:101070000F900F900F900F90CF91DF911F910F91D4
:101080000895789480E090E0A0E4B0E089839A83AA
:10109000AB83BC8389E599E06CE772E00E9484121F
:1010A00089E599E069E671E04AE050E00E94671244
:1010B00089819A81AB81BC810097A105B10599F026
:1010C00089819A81AB81BC810197A109B10989838A
:1010D0009A83AB83BC8389819A81AB81BC81009761
:1010E000A105B10569F70C940000C2CF789480E0A7
:1010F00090E0A0E4B0E089839A83AB83BC8389E568
:1011000099E06CE772E00E94841289E599E068E654
:1011100071E04AE050E00E94671289819A81AB81B8
:10112000BC810097A105B10599F089819A81AB81B5
:10113000BC810197A109B10989839A83AB83BC83E0
:1011400089819A81AB81BC810097A105B10569F7BE
:101150000C94000088CF789480E090E0A0E4B0E0A8
:1011600089839A83AB83BC8389E599E06CE772E05D
:101170000E94841289E599E067E671E04AE050E058
:101180000E94671289819A81AB81BC810097A10579
:10119000B10599F089819A81AB81BC810197A10940
:1011A000B10989839A83AB83BC8389819A81AB819E
:1011B000BC810097A105B10569F70C9400004DCFE3
:1011C000AF92CF92EF92FF920F931F9309E519E030
:1011D000C80140E855E260E070E0FCD5C80165EC6C
:1011E00072E00E9486128DE061E017D380E067E52F
:1011F0007AE040E020E334E000E011E0E12CF0E4AC
:10120000FF2ECC24E5E0AE2E39DC81E068EB79E0FE
:1012100041E020E335E052E0A52E30DC82E06EE1D3
:1012200079E042E020E336E099E1A92E27DC1F9126
:101230000F91FF90EF90CF90AF9008956F927F92B3
:101240008F929F92AF92BF92CF92DF92EF92FF92D6
:101250000F931F93DF93CF9300D00F92CDB7DEB7DC
:1012600009D27B018C01612C712CA0E48A2E912C77
:1012700080E090E460E045E04BDA892B09F465C03A
:10128000F9D15B016C016E197F09800B910B0E94F3
:101290009B122AEC38EC48EC5DE30E9451137B0171
:1012A0008C012DEC3CEC4CE45FE30E944D13882351
:1012B00054F0C801B7012AE939E949E95FE30E941E
:1012C0009712181684F5789469827A828B829C82B0
:1012D00089E599E06CE772E00E94841289E599E063
:1012E0006BE071E04AE050E00E94671289819A81C8
:1012F000AB81BC810097A105B10599F089819A81E4
:10130000AB81BC810197A109B10989839A83AB8321
:10131000BC8389819A81AB81BC810097A105B1050D
:1013200069F70C94000080ED97E00BD280E090E824
:1013300060E041E0EDD98601750180E090E460E075
:1013400045E0E6D9892B09F09BCF0F900F900F90C5
:101350000F90CF91DF911F910F91FF90EF90DF9051
:10136000CF90BF90AF909F908F907F906F90089597
:101370006F927F928F929F92AF92BF92CF92DF92A5
:10138000EF92FF920F931F93DF93CF9300D00F92B2
:10139000CDB7DEB76FD17B018C01612C712CB0E42D
:1013A0008B2E912C80E090E460E04FE0B1D9892B46
:1013B00009F46AC05FD15B016C016E197F09800B73
:1013C000910B0E949B1221E33BED45E05DE30E94FF
:1013D00051137B018C0126E636E646E65FE30E9468
:1013E0004D13882354F0C801B7012DEC3CEC4CE8B8
:1013F0005FE30E949712181684F5789469827A82C6
:101400008B829C8289E599E06CE772E00E948412ED
:1014100089E599E062EE70E04AE050E00E946712D0
:1014200089819A81AB81BC810097A105B10599F0B2
:1014300089819A81AB81BC810197A109B109898316
:101440009A83AB83BC8389819A81AB81BC810097ED
:10145000A105B10569F70C94000080E090E860E018
:1014600041E056D988E59BE16CD180E090E860E0EE
:1014700043E04ED98601750180E090E460E04FE0E2
:1014800047D9892B09F096CF0F900F900F900F90AE
:10149000CF91DF911F910F91FF90EF90DF90CF9050
:1014A000BF90AF909F908F907F906F9008954F92D4
:1014B0005F926F927F928F929F92AF92BF92CF92E4
:1014C000DF92EF92FF920F931F93DF93CF9300D0A1
:1014D0000F92CDB7DEB7CED07B018C0180E090E8D3
:1014E00060E043E215D988E99AE32BD191E0892E97
:1014F000912C412C512C80E4682E712C80E090E4DA
:1015000060E04BE705D9B6D05B016C016E197F092D
:10151000800B910B0E949B1228E637E942E85BE3BF
:101520000E9451137B018C0126E636E646E65FE316
:101530000E944D1388234CF0C801B7012DEC3CEC00
:101540004CE85FE3F4D7181674F5789449825A8210
:101550006B827C8289E599E06CE772E0D5D789E5FA
:1015600099E062EC70E04AE050E0B1D789819A815D
:10157000AB81BC810097A105B10599F089819A8161
:10158000AB81BC810197A109B10989839A83AB839F
:10159000BC8389819A81AB81BC810097A105B1058B
:1015A00069F70C94000080E090E860E043E2B0D876
:1015B00088E99AE3C6D00894811C911C88E28816B9
:1015C000910418F48601750199CF88E99AE3B9D09E
:1015D00088E99AE3B6D080E58816910498F38824C8
:1015E0009924F0CF1F920F920FB60F9211242F93D0
:1015F0003F938F939F93AF93BF93809134079091C4
:101600003507A0913607B09137073091380701961A
:10161000A11DB11D232F2D5F2D3720F02D570196D1
:10162000A11DB11D2093380780933407909335078F
:10163000A0933607B0933707809130079091310718
:10164000A0913207B09133070196A11DB11D80937F
:10165000300790933107A0933207B0933307BF91BF
:10166000AF919F918F913F912F910F900FBE0F904F
:101670001F9018958FB7F894209134073091350753
:1016800040913607509137078FBFB901CA010895BD
:101690009B01AC017FB7F89480913007909131079E
:1016A000A0913207B091330766B5A89B05C06F3F84
:1016B00019F00196A11DB11D7FBFBA2FA92F982F38
:1016C0008827860F911DA11DB11D62E0880F991F0B
:1016D000AA1FBB1F6A95D1F7BC012DC0FFB7F894B4
:1016E0008091300790913107A0913207B091330774
:1016F000E6B5A89B05C0EF3F19F00196A11DB11DED
:10170000FFBFBA2FA92F982F88278E0F911DA11DDB
:10171000B11DE2E0880F991FAA1FBB1FEA95D1F700
:10172000861B970B885E9340C8F2215030404040A2
:10173000504068517C4F211531054105510571F626
:101740000895019739F0880F991F880F991F029704
:101750000197F1F70895789484B5826084BD84B5CB
:10176000816084BD85B5826085BD85B5816085BD9C
:10177000EEE6F0E0808181608083E1E8F0E01082B5
:10178000808182608083808181608083E0E8F0E0F6
:10179000808181608083E1EBF0E0808184608083E0
:1017A000E0EBF0E0808181608083E1E9F0E080811E
:1017B00082608083808181608083E0E9F0E08081C5
:1017C00081608083E1EAF0E08081826080838081B3
:1017D00081608083E0EAF0E0808181608083E1E2E3
:1017E000F1E0808182608083808181608083E0E29B
:1017F000F1E0808181608083EAE7F0E080818460AD
:101800008083808182608083808181608083808109
:10181000806880831092C1000895CF93DF93482F92
:1018200050E0CA0188589E4FFC0134914E5C5E4FD7
:10183000FA018491882369F190E0880F991FFC01D7
:10184000EC51FF4FA591B491FC01E250FF4FC591BF
:10185000D491662351F42FB7F8948C91932F9095DF
:1018600089238C93888189230BC0623061F42FB760
:10187000F8948C91932F909589238C938881832B56
:1018800088832FBF06C09FB7F8948C91832B8C93CD
:101890009FBFDF91CF910895893009F449C08A3004
:1018A000A0F4843051F1853040F4823079F18330F6
:1018B00000F5813009F063C026C0873079F18830A7
:1018C00098F5863009F05BC025C08D3009F442C020
:1018D0008E3028F48B30B1F18C30C0F52DC08031C2
:1018E00009F442C0813109F445C08F3009F047C086
:1018F00037C0809180008F7703C0809180008F7DFA
:1019000080938000089584B58F7702C084B58F7D61
:1019100084BD08958091B0008F7703C08091B0009E
:101920008F7D8093B0000895809190008F7707C0DD
:10193000809190008F7D03C080919000877F80937D
:10194000900008958091A0008F7707C08091A0003B
:101950008F7D03C08091A000877F8093A0000895B1
:10196000809120018F7703C0809120018F7D80932B
:101970002001089580912001877F809320010895A0
:10198000FF920F931F93F62E482F50E0CA01825406
:101990009E4FFC012491CA0188589E4FFC0114916E
:1019A0004E5C5E4FFA0104910023C1F0222311F036
:1019B000822F72DFE02FF0E0EE0FFF1FE250FF4FAB
:1019C000A591B4919FB7F894FF2021F48C911095C4
:1019D000812302C08C91812B8C939FBF1F910F910B
:1019E000FF9008951F920F920FB60F920BB60F92B1
:1019F00011242F933F934F938F939F93EF93FF93D4
:101A00008091C00082FD1DC04091C60020917907E1
:101A100030917A072F5F3F4F2F73307080917B0793
:101A200090917C072817390771F0E0917907F091C0
:101A30007A07E75CF84F408330937A072093790761
:101A400002C08091C600FF91EF919F918F914F91BD
:101A50003F912F910F900BBE0F900FBE0F901F90D4
:101A600018951F920F920FB60F920BB60F9211247A
:101A70002F933F934F938F939F93EF93FF93809177
:101A8000C80082FD1DC04091CE0020910108309118
:101A900002082F5F3F4F2F733070809103089091A1
:101AA00004082817390771F0E0910108F091020845
:101AB000EF53F84F4083309302082093010802C08F
:101AC0008091CE00FF91EF919F918F914F913F9127
:101AD0002F910F900BBE0F900FBE0F901F90189577
:101AE0001F920F920FB60F920BB60F9211242F93E5
:101AF0003F934F938F939F93EF93FF938091D000E9
:101B000082FD1DC04091D6002091890830918A083D
:101B10002F5F3F4F2F73307080918B0890918C080E
:101B20002817390771F0E0918908F0918A08E75B7E
:101B3000F74F408330938A082093890802C0809130
:101B4000D600FF91EF919F918F914F913F912F91EF
:101B50000F900BBE0F900FBE0F901F9018951F9205
:101B60000F920FB60F920BB60F9211242F933F9343
:101B70004F938F939F93EF93FF938091300182FD5A
:101B80001DC04091360120911109309112092F5F3B
:101B90003F4F2F73307080911309909114092817CB
:101BA000390771F0E0911109F0911209EF52F74FE6
:101BB0004083309312092093110902C080913601AD
:101BC000FF91EF919F918F914F913F912F910F90A6
:101BD0000BBE0F900FBE0F901F9018951F920F9283
:101BE0000FB60F920BB60F9211242F933F938F9342
:101BF0009F93EF93FF932091BD073091BE07809193
:101C0000BF079091C0072817390731F48091C100B0
:101C10008F7D8093C10014C0E091BF07F091C00791
:101C2000E358F84F20818091BF079091C00701963B
:101C30008F7390709093C0078093BF072093C60066
:101C4000FF91EF919F918F913F912F910F900BBE3C
:101C50000F900FBE0F901F9018951F920F920FB606
:101C60000F920BB60F9211242F933F938F939F9354
:101C7000EF93FF93209145083091460880914708E3
:101C8000909148082817390731F48091C9008F7D59
:101C90008093C90014C0E0914708F0914808EB5FB9
:101CA000F74F2081809147089091480801968F73E3
:101CB000907090934808809347082093CE00FF913E
:101CC000EF919F918F913F912F910F900BBE0F90AD
:101CD0000FBE0F901F9018951F920F920FB60F9284
:101CE0000BB60F9211242F933F938F939F93EF93F3
:101CF000FF932091CD083091CE088091CF0890912C
:101D0000D0082817390731F48091D1008F7D809356
:101D1000D10014C0E091CF08F091D008E357F74FFD
:101D200020818091CF089091D00801968F73907098
:101D30009093D0088093CF082093D600FF91EF9125
:101D40009F918F913F912F910F900BBE0F900FBEDF
:101D50000F901F9018951F920F920FB60F920BB60F
:101D60000F9211242F933F938F939F93EF93FF93A1
:101D70002091550930915609809157099091580941
:101D80002817390731F4809131018F7D809331011B
:101D900014C0E0915709F0915809EB5EF64F20818D
:101DA000809157099091580901968F739070909384
:101DB00058098093570920933601FF91EF919F9125
:101DC0008F913F912F910F900BBE0F900FBE0F90F0
:101DD0001F901895AF92BF92DF92EF92FF920F93F0
:101DE0001F93CF93DF93EC017A018B01DD24403008
:101DF00081EE580780E0680780E0780711F0DD2465
:101E0000D39491E0A92EB12CEC89FD89DD2069F0F5
:101E1000C50108A002C0880F991F0A94E2F78083C9
:101E200060E079E08DE390E005C0108260E874E83E
:101E30008EE190E0A8019701B6D421503040404097
:101E40005040569547953795279580E120303807C3
:101E500020F0DD2011F0DD24D7CFE889F989308327
:101E6000EA89FB89208319A2EE89FF89408121E05C
:101E700030E0C9010C8C02C0880F991F0A94E2F768
:101E8000482B4083EE89FF894081C9010D8C02C037
:101E9000880F991F0A94E2F7482B4083EE89FF8947
:101EA0004081C9010E8C02C0880F991F0A94E2F785
:101EB000482B4083EE89FF8980810F8C02C0220F5E
:101EC000331F0A94E2F7209528232083DF91CF91D6
:101ED0001F910F91FF90EF90DF90BF90AF9008950A
:101EE000DC011C96ED91FC911D97E05CFF4F219168
:101EF000319180819181281B390B2F733070C9017A
:101F00000895DC011C96ED91FC911D97E05CFF4F5C
:101F100020813181E054F040DF01AE5BBF4F8D91F5
:101F20009C9111972817390719F42FEF3FEF07C03D
:101F30008D919C91E80FF91F8081282F30E0C90115
:101F40000895DC011C96ED91FC911D97E05CFF4F1C
:101F500020813181E054F040DF01AE5BBF4F8D91B5
:101F60009C9111972817390719F42FEF3FEF10C0F4
:101F70008D919C911197E80FF91F20818D919C9173
:101F8000119701968F73907011969C938E9330E009
:101F9000C9010895DC0191968C919197882339F0BD
:101FA0005496ED91FC915597808186FFF9CF9196DB
:101FB0001C920895CF93DF93EC01EE85FF85E05CE2
:101FC000FF4F20813181E054F0402F5F3F4F2F734E
:101FD0003070DF01AE5BBF4F8D919C911197281738
:101FE0003907D1F3E05CFF4F80819181E054F040EC
:101FF000E80FF91F6083EE85FF85E05CFF4F3183BA
:102000002083EE89FF89208181E090E00F8C02C05F
:10201000880F991F0A94E2F7282B208381E089A377
:10202000EC89FD8980818064808381E090E0DF918C
:10203000CF9108951F9310925C0910925B0928EECE
:1020400033E040E050E020935D0930935E09409317
:102050005F095093600969EC73E070935A096093CB
:10206000590989E397E090936609809365098DE7A4
:1020700097E0909368098093670985EC90E09093CE
:102080006A098093690984EC90E090936C098093CD
:102090006B0980EC90E090936E0980936D0981EC60
:1020A00090E09093700980936F0982EC90E0909398
:1020B00072098093710986EC90E090937409809383
:1020C000730914E010937509B3E0B0937609A7E0A3
:1020D000A0937709F5E0F0937809E1E0E0937909BE
:1020E00010927E0910927D0920937F093093800918
:1020F000409381095093820970937C0960937B0916
:1021000081EC97E0909388098093870985E098E0B7
:1021100090938A09809389098DEC90E090938C09C3
:1021200080938B098CEC90E090938E0980938D09BD
:1021300088EC90E09093900980938F0989EC90E06F
:1021400090939209809391098AEC90E0909394097E
:10215000809393098EEC90E0909396098093950973
:1021600010939709B0939809A0939909F0939A094D
:10217000E0939B091092A00910929F092093A10956
:102180003093A2094093A3095093A40970939E0928
:1021900060939D0989E498E09093AA098093A90926
:1021A0008DE898E09093AC098093AB0985ED90E0C1
:1021B0009093AE098093AD0984ED90E09093B009BF
:1021C0008093AF0980ED90E09093B2098093B109BC
:1021D00081ED90E09093B4098093B30982ED90E093
:1021E0009093B6098093B50986ED90E09093B80975
:1021F0008093B7091093B909B093BA09A093BB09AA
:10220000F093BC09E093BD091092C2091092C10974
:102210002093C3093093C4094093C5095093C6095C
:102220007093C0096093BF0981ED98E09093CC0949
:102230008093CB0985E199E09093CE098093CD09F5
:1022400085E391E09093D0098093CF0984E391E0F6
:102250009093D2098093D10980E391E09093D409BF
:102260008093D30981E391E09093D6098093D509B7
:1022700082E391E09093D8098093D70986E391E0B7
:102280009093DA098093D9091093DB09B093DC09A4
:10229000A093DD09F093DE09E093DF091F91089513
:1022A000CF92DF92EF92FF920F931F93CF93DF9322
:1022B0007C016B018A01C0E0D0E00FC0D6016D91B6
:1022C0006D01D701ED91FC910190F081E02DC701E6
:1022D0001995C80FD91F015010400115110571F74C
:1022E000CE01DF91CF911F910F91FF90EF90DF9082
:1022F000CF900895EF92FF920F931F938C01DC0112
:10230000ED91FC910190F081E02D6DE019957C013B
:10231000D801ED91FC910190F081E02DC8016AE0B7
:1023200019959C012E0D3F1DC9011F910F91FF9022
:10233000EF900895CF93DF93EC016115710519F4C7
:1023400020E030E00FC0DB010D900020E9F711978D
:10235000A61BB70BE881F9810280F381E02DAD0166
:1023600019959C01C901DF91CF9108954F925F9219
:102370007F928F929F92AF92BF92CF92DF92EF9215
:10238000FF920F931F93DF93CF93CDB7DEB7A19743
:102390000FB6F894DEBF0FBECDBF2C01742ECB015B
:1023A000223008F42AE019A231E2C32ED12CCC0E3F
:1023B000DD1E822E9924AA24BB24672D752FA5012A
:1023C0009401F1D179018A01C801B701A5019401F5
:1023D000CBD1472D461B0894C108D1084A3014F4CC
:1023E000405D01C0495CF6014083E114F104010540
:1023F000110521F07E2C5F2DC801DFCFC201B6018F
:1024000099DFA1960FB6F894DEBF0FBECDBFCF9176
:10241000DF911F910F91FF90EF90DF90CF90BF90D1
:10242000AF909F908F907F905F904F900895CF9244
:10243000DF92EF92FF920F931F93CF93DF93EC0104
:102440006A017B012115310541F4E881F981019090
:10245000F081E02D642F19951DC02A303105C9F493
:1024600077FF16C0E881F9810190F081E02D6DE2DF
:1024700019958C0144275527BA014C195D096E093D
:102480007F09CE012AE072DF9801280F391F03C0AF
:102490002AE06CDF9C01C901DF91CF911F910F9160
:1024A000FF90EF90DF90CF900895EF92FF920F93FF
:1024B0001F937B019A010027F7FC0095102FB801AC
:1024C000A701B5DF1F910F91FF90EF900895CF9274
:1024D000DF92EF92FF920F931F936C017B019A01A1
:1024E0000027F7FC0095102FB801A701A0DF8C0191
:1024F000C60100DF080F191FC8011F910F91FF903F
:10250000EF90DF90CF90089515CF0895EF92FF924E
:102510000F931F937C010EDF8C01C701EBDE080FC8
:10252000191FC8011F910F91FF90EF90089540D09F
:1025300008F481E00895E89409C097FB3EF4909573
:102540008095709561957F4F8F4F9F4F9923A9F08C
:10255000F92F96E9BB279395F6958795779567951B
:10256000B795F111F8CFFAF4BB0F11F460FF1BC05F
:102570006F5F7F4F8F4F9F4F16C0882311F096E9F2
:1025800011C0772321F09EE8872F762F05C06623A0
:1025900071F096E8862F70E060E02AF09A95660F59
:1025A000771F881FDAF7880F9695879597F9089512
:1025B000990F0008550FAA0BE0E8FEEF1616170654
:1025C000E807F907C0F012161306E407F50798F0BC
:1025D000621B730B840B950B39F40A2661F0232BD5
:1025E000242B252B21F408950A2609F4A140A69551
:1025F0008FEF811D811D089597F99F6780E870E036
:1026000060E008959FEF80EC089500240A94161668
:10261000170618060906089500240A9412161306D0
:10262000140605060895092E0394000C11F488235E
:1026300052F0BB0F40F4BF2B11F460FF04C06F5F7A
:102640007F4F8F4F9F4F089557FD9058440F551F50
:1026500059F05F3F71F04795880F97FB991F61F024
:102660009F3F79F087950895121613061406551F9B
:10267000F2CF4695F1DF08C0161617061806991F07
:10268000F1CF86957105610508940895E894BB27FC
:1026900066277727CB0197F908958ADF08F48FEF33
:1026A00008950BD0C0CFB1DF28F0B6DF18F0952326
:1026B00009F0A2CFA7CF1124EACFC6DFA0F3959FE0
:1026C000D1F3950F50E0551F629FF001729FBB2719
:1026D000F00DB11D639FAA27F00DB11DAA1F649FC5
:1026E0006627B00DA11D661F829F2227B00DA11D78
:1026F000621F739FB00DA11D621F839FA00D611DFE
:10270000221F749F3327A00D611D231F849F600D1E
:10271000211D822F762F6A2F11249F5750408AF057
:10272000E1F088234AF0EE0FFF1FBB1F661F771FE3
:10273000881F91505040A9F79E3F510570F05CCF23
:10274000A6CF5F3FECF3983EDCF3869577956795CF
:10275000B795F795E7959F5FC1F7FE2B880F911D01
:102760009695879597F90895629FD001739FF00120
:10277000829FE00DF11D649FE00DF11D929FF00D11
:10278000839FF00D749FF00D659FF00D9927729F48
:10279000B00DE11DF91F639FB00DE11DF91FBD01D3
:1027A000CF0111240895A1E21A2EAA1BBB1BFD0123
:1027B0000DC0AA1FBB1FEE1FFF1FA217B307E40720
:1027C000F50720F0A21BB30BE40BF50B661F771F78
:1027D000881F991F1A9469F7609570958095909558
:1027E0009B01AC01BD01CF010895EE0FFF1F0590C5
:0A27F000F491E02D1994F894FFCF46
:1027FA00417373657274696F6E206661696C656492
:10280A0020696E2066696C6520636F64652F525477
:10281A004F532F67736C5F73797374656D4C6F6177
:10282A00642E632C206C696E652000417373657297
:10283A0074696F6E206661696C656420696E2066D2
:10284A00696C6520636F64652F52544F532F7274FD
:10285A006F732E632C206C696E6520005379737434
:10286A00656D206C6F61643A2000250041737365C1
:10287A007274696F6E206661696C656420696E2086
:10288A0066696C6520636F64652F6170706C69633B
:10289A006174696F6E732F746331302F74633130D2
:1028AA005F73797374656D4C6F61642E632C206C51
:1028BA00696E6520000A525475696E4F5320312E95
:1028CA003020666F722041726475696E6F20312EF6
:1028DA00302E350A436F707972696768742028430D
:1028EA002920323031322D3230313320506574652F
:1028FA0072205672616E6B656E20286D61696C7408
:10290A006F3A50657465725F5672616E6B656E40A0
:10291A005961686F6F2E6465290A54686973206962
:10292A0073206672656520736F6674776172653BA2
:10293A00207365652074686520736F7572636520FE
:10294A00666F7220636F7079696E6720636F6E6459
:10295A006974696F6E732E20546865726520697395
:10296A00204E4F0A77617272616E74793B206E6FE6
:10297A0074206576656E20666F72204D4552434815
:10298A00414E544142494C495459206F722046499C
:10299A00544E45535320464F5220412050415254E1
:1029AA004943554C415220505552504F53452E00E1
:1029BA00FF1F04070000000000DA0F5011700FA17A
:0629CA000F810FCA0F008F
:00000001FF
