:1000000002C100002CC100002AC1000028C100006C
:1000100026C1000024C1000022C1000020C1000050
:100020001EC100001CC100001AC1000018C1000060
:1000300016C1000014C1000012C100000C94940904
:100040000EC100000CC100000AC1000008C1000080
:1000500006C1000004C1000002C100000C94A10B05
:10006000FEC000000C94E30C0C94DF0DF8C00000FF
:10007000F6C00000F4C00000F2C00000F0C00000B4
:10008000EEC00000ECC00000EAC00000E8C00000C4
:100090000C94220D0C941E0EE2C00000E0C0000083
:1000A000DEC00000DCC00000DAC00000D8C00000E4
:1000B000D6C00000D4C00000D2C00000D0C00000F4
:1000C000CEC00000CCC00000CAC000000C94610D7E
:1000D0000C945D0EC4C000000C94A00D0C949C0EFA
:1000E000BEC0000000002100240027002A002D00CF
:1000F0003000330001010000040107010A01000083
:100100002200250028002B002E00310034000201BF
:100110000000050108010B0100002000230026005B
:1001200029002C002F00320000010000030106010D
:10013000090105050505070508080808020202026D
:100140000A0A080804040404010101010101010173
:100150000303030303030303040707070C0C0C0C3E
:100160000C0C0C0C02020202060606060606060627
:100170000B0B0B0B0B0B0B0B0102102020080810B4
:100180002040102040800201020108040201010207
:1001900004081020408080402010080402018004E0
:1001A000020180402010080402010804020101023B
:1001B0000408102040800102040810204080000044
:1001C000090A02080B0C0D070603040100000000D9
:1001D000000000000000000000000000000000001F
:1001E0000000000000000000000011100F000000DF
:1001F00000000000000000000000000000000000FF
:10020000000000000B1011241FBECFEFD1E2DEBFB3
:10021000CDBF00E00CBF14E0A0E0B2E0E2EFF5E2F9
:1002200000E00BBF02C007900D92A63AB107D9F7C4
:100230001BBE1BE0A6EAB4E001C01D92AB3BB107B8
:10024000E1F712E0C6E0D2E004C02297FE010E946E
:10025000F312C430D107C9F703D00C94F712D0CEF3
:100260000E94420C76D480E090E00895E0E7F0E050
:1002700080818160808308954F925F926F927F9218
:100280008F929F92AF92BF92CF92DF92EF92FF92A6
:100290000F931F93DF93CF9300D00F92CDB7DEB7AC
:1002A0008C018070907C892B09F06FC121E0622E57
:1002B000712C602271229EEF492E9FEF592E402211
:1002C00051225301882499244091B204941608F0D5
:1002D0007DC0092D10E0000F111FF801E655FB4FFE
:1002E000E080F180D7011D96CD90DC901E97C30170
:1002F0008C219D21892B09F096C09601B5016429B6
:100300007529F7018785908968237923C901862B90
:10031000972B96878587C816D90609F480C006559D
:100320001B4FD8014D915C91FA0125853685818955
:10033000882379F4DA011F96ED91FC915097CF0153
:10034000822793279F73892B39F02E233F23207018
:10035000307C232B09F463C0FA0182812681248733
:1003600090E0DC01AD54BB4F2C91FC01EE0FFF1F60
:10037000E80FF91FE20FF11DEE0FFF1FEB54FB4FCB
:10038000518340832F5F2C933091B2043150432F1F
:100390003093B204931688F4292DE22FF0E0EE0F8B
:1003A000FF1FDF01A455BB4F8D919C91E655FB4F7C
:1003B000918380832F5F231780F388248394609533
:1003C0007095A622B722941608F483CF80919304E7
:1003D0009091940468227922672809F09DC08A29A7
:1003E0009B299093940480939304882009F055C02E
:1003F00040E0842F0F900F900F900F90CF91DF91DE
:100400001F910F91FF90EF90DF90CF90BF90AF9032
:100410009F908F907F906F905F904F9008959394EE
:100420004091B204CCCF789480E090E0A0E4B0E0BA
:1004300089839A83AB83BC8383E39BE060E072E0B3
:100440000E949D1283E39BE065EF73E04AE050E079
:100450000E94801289819A81AB81BC810097A1059D
:10046000B10599F089819A81AB81BC810197A1097D
:10047000B10989839A83AB83BC8389819A81AB81DB
:10048000BC810097A105B10569F70C940000D70164
:100490001D962D913C911E9731CF8091B4048823F5
:1004A00009F0A8C08091B304882309F0C3C07894F0
:1004B00080E090E0A0E4B0E089839A83AB83BC83C2
:1004C00083E39BE060E072E00E949D1283E39BE087
:1004D0006EEC72E04AE050E00E94801289819A81BD
:1004E000AB81BC810097A105B10599F089819A8102
:1004F000AB81BC810197A109B10989839A83AB8340
:10050000BC8389819A81AB81BC810097A105B1052B
:1005100069F70C9400006CCF789480E090E0A0E440
:10052000B0E089839A83AB83BC8383E39BE060E084
:1005300072E00E949D1283E39BE064E574E04AE070
:1005400050E00E94801289819A81AB81BC81009722
:10055000A105B10599F089819A81AB81BC81019790
:10056000A109B10989839A83AB83BC8389819A816C
:10057000AB81BC810097A105B10569F70C9400001F
:1005800080919304909194042ACF789480E090E035
:10059000A0E4B0E089839A83AB83BC8383E39BE0D0
:1005A00060E072E00E949D1283E39BE06EEC73E0DA
:1005B0004AE050E00E94801289819A81AB81BC811F
:1005C0000097A105B10599F089819A81AB81BC8121
:1005D0000197A109B10989839A83AB83BC8389817F
:1005E0009A81AB81BC810097A105B10569F70C9494
:1005F00000005CCE21E030E0809191049091920463
:100600009093210580932005F901EE0FFF1FE20F63
:10061000F31FEE0FFF1FEB54FB4F2081318130930E
:1006200092042093910440E08217930731F081E017
:100630004827DFCE20E030E0DFCF41E0F8CFF8946C
:100640000F920FB60F921F922F923F924F925F928E
:100650006F927F928F929F92AF92BF92CF92DF92D2
:10066000EF92FF920F931F932F933F934F935F93BC
:100670006F937F93AF93BF93CF93DF93EF93FF93EA
:100680008F939F93F9DD882309F435C0A0919104DD
:10069000B09192048D919C9111979093A9048093AD
:1006A000A8040DB60092A6040EB60092A70400900E
:1006B000A8040DBE0090A9040EBE8091A6049091DE
:1006C000A704E0912005F0912105918380831D9678
:1006D0008D919C911E97009771F09093A90480933F
:1006E000A8041E961C921E921D970090A8040F92BB
:1006F0000090A9040F929F918F91FF91EF91DF914C
:10070000CF91BF91AF917F916F915F914F913F9149
:100710002F911F910F91FF90EF90DF90CF90BF909E
:10072000AF909F908F907F906F905F904F903F9091
:100730002F901F900F900FBE0F9018959F92AF9221
:10074000BF92CF92DF92EF92FF920F931F93DF93AE
:10075000CF9300D00F92CDB7DEB76C01A62E942EAA
:10076000E0909104F09092042DE0E21625E0F2066C
:1007700009F418C12091930430919404A6014223F6
:100780005323F70156874587C601809590958223AC
:1007900093239093940480939304AA20B1F04C2562
:1007A0005D255F73452B99F480E00F900F900F90BB
:1007B0000F90CF91DF911F910F91FF90EF90DF90FD
:1007C000CF90BF90AF909F900895452B69F7F701A8
:1007D000B2804B2D50E0FA01ED54FB4F80818150E7
:1007E0008083882301F1E0E0F0E021E030E08A013D
:1007F000000F111F682F70E0040F151F6F5F7F4FF0
:10080000E00FF11FEE0FFF1FDF01A954BB4F8D91C9
:100810009C91EB54FB4F91838083F9012F5F3F4FF5
:100820002617370769F7C114D10461F0C60180703B
:10083000907C8050904C31F0AA20C1F1C6019F738A
:10084000892BA1F5789480E090E0A0E4B0E0898362
:100850009A83AB83BC8383E39BE060E072E00E94F9
:100860009D1283E39BE060E475E04AE050E00E9463
:10087000801289819A81AB81BC810097A105B10565
:1008800099F089819A81AB81BC810197A109B10955
:1008900089839A83AB83BC8389819A81AB81BC8134
:1008A0000097A105B10569F70C940000D6FE6BC056
:1008B000F7018581890D858390919004891B181615
:1008C0000CF067C0F701D08AC786118AAA2011F4FC
:1008D00081E0818B9091B204692F70E06115710500
:1008E00009F4ACC0E091AA04F091AB0482818B15AD
:1008F00008F4A4C0ACEAB4E021E030E007C0ED9118
:10090000FD9182812F5F3F4F8B1528F0122FA90197
:1009100026173707A4F3292F21509F5F9093B20425
:10092000211784F0E22FFF27E7FDF095EE0FFF1F60
:10093000E655FB4F808191819383828321503297CA
:100940002117C4F7440F551F46555B4FFA01F1823A
:10095000E08280919104909192049093210580937C
:1009600020058DE095E0909392048093910480910E
:10097000B404882309F066C08091B304882309F089
:100980004AC081E012CFFFEF9F129394F701938644
:1009900099CF82898F3F11F08F5F828B9F5FF70124
:1009A000958390CF789480E090E0A0E4B0E08983D4
:1009B0009A83AB83BC8383E39BE060E072E00E9498
:1009C0009D1283E39BE066EE75E04AE050E00E94F2
:1009D000801289819A81AB81BC810097A105B10504
:1009E00099F089819A81AB81BC810197A109B109F4
:1009F00089839A83AB83BC8389819A81AB81BC81D3
:100A00000097A105B10569F70C940000E0909104EE
:100A1000F0909204AFCE80E090E0FC01EE0FFF1F5B
:100A2000E80FF91FEE0FFF1FEB54FB4F8081918100
:100A3000909392048093910481E0B7CE10E040E05F
:100A400050E069CF81E090E0E8CFF8940F920FB6C4
:100A50000F921F922F923F924F925F926F927F92CE
:100A60008F929F92AF92BF92CF92DF92EF92FF92BE
:100A70000F931F932F933F934F935F936F937F93A6
:100A8000AF93BF93CF93DF93EF93FF9357DE88230A
:100A900009F03DC0A0919104B09192041D968D91F2
:100AA0009C911E97009771F09093A9048093A804DD
:100AB0001E961C921E921D970090A8040F92009003
:100AC000A9040F929F918F91FF91EF91DF91CF91A8
:100AD000BF91AF917F916F915F914F913F912F9116
:100AE0001F910F91FF90EF90DF90CF90BF90AF904C
:100AF0009F908F907F906F905F904F903F902F903E
:100B00001F900F900FBE0F90189580E090E0A0917D
:100B10009104B09192048D919C9111979093A904A6
:100B20008093A8040DB60092A6040EB60092A70406
:100B30000090A8040DBE0090A9040EBE8091A604EA
:100B40009091A704E0912005F09121059183808385
:100B5000A5CF4F925F926F927F928F929F92AF92AA
:100B6000BF92CF92DF92EF92FF920F931F93DF938A
:100B7000CF9300D00F92CDB7DEB701EC14E08FE534
:100B8000D8011D928A95E9F79AD4EE24FF24CC244B
:100B9000CA94DC2C812C912C40E4A42EB12C30E89A
:100BA000732E29E2622EF80183819481009761F00F
:100BB000678170856115710539F00184F285E02D3A
:100BC000E233F10508F03DC0789489829A82AB82C5
:100BD000BC8283E39BE060E072E00E949D1283E3AD
:100BE0009BE06AED77E04AE050E00E948012898144
:100BF0009A81AB81BC810097A105B10599F08981EB
:100C00009A81AB81BC810197A109B10989839A833B
:100C1000AB83BC8389819A81AB81BC810097A1059C
:100C2000B10569F70C940000D80117966D917C917D
:100C300018971996ED91FC911A9713968D919C91A6
:100C400014973197E60FF71F1082DF011E921E9254
:100C50008E939C01442737FD4095542F3E93252FBA
:100C60003327442755272E931E927E921E92CD0144
:100C70000197DC017F971C921197AE17BF07D9F738
:100C80004697FC011082DC011E92FD011292DF01E9
:100C90001E92FD011292DF011E921197A617B7074F
:100CA00030F0FD0160823197E617F707D8F7F801B9
:100CB000B183A083148616861586128AE114F10486
:100CC00009F47BC09281E091AA04F091AB04828187
:100CD000891708F472C04CEA54E021E030E00AC001
:100CE000FA0141905190AF01F20182812F5F3F4F95
:100CF000891728F0622FD9012E153F058CF32C2D72
:100D0000C6166CF0F601EE0FFF1FE655FB4F808113
:100D1000918193838283215032972617C4F7AA0FBB
:100D2000BB1FA655BB4FC701880F991F9C01220FFF
:100D3000331F220F331F220F331F820F931F8E0D7D
:100D40009F1D8F539B4F8D939C930894E11CF11C26
:100D50000D5E1F4F0894C11CD11CF4E0EF16F10486
:100D600009F021CF84E08093B2042DE035E01092A9
:100D70000E0510920D051092120510921805109292
:100D8000190510921B0510921A0510921D0510925C
:100D90001C0581E080931E0510921F051092B3047C
:100DA0001092B4043093920420939104309321055F
:100DB000209320055BDA7FD3FECF60E0A0E0B0E0B7
:100DC0009ECF5F926F927F928F929F92AF92BF92CF
:100DD000CF92DF92EF92FF920F931F93DF93CF9307
:100DE00000D00F92CDB7DEB7522E36019A2CA82E26
:100DF000BB246501CC0CDD1CF601EE0FFF1FEE0FCE
:100E0000FF1FEE0FFF1FEC0DFD1DEA0DFB1DEF5345
:100E1000FB4F7483638310870783F286E1864283E6
:100E20006114710409F4F3C060FECCC0789480E0D2
:100E300090E0A0E4B0E089839A83AB83BC8383E332
:100E40009BE060E072E00E949D1283E39BE06CE80F
:100E500077E04AE050E00E94801289819A81AB815C
:100E6000BC810097A105B10599F089819A81AB8178
:100E7000BC810197A109B10989839A83AB83BC83A3
:100E800089819A81AB81BC810097A105B10569F781
:100E90000C940000F601EE0FFF1FEE0FFF1FEE0F88
:100EA000FF1FEC0DFD1DEA0DFB1DEF53FB4F1386DD
:100EB0001582C3018070907C8050904C09F08BC0EB
:100EC000789480E090E0A0E4B0E089839A83AB83DB
:100ED000BC8383E39BE060E072E00E949D1283E3A9
:100EE0009BE060E475E04AE050E00E948012898156
:100EF0009A81AB81BC810097A105B10599F08981E8
:100F00009A81AB81BC810197A109B10989839A8338
:100F1000AB83BC8389819A81AB81BC810097A10599
:100F2000B10569F70C94000076FE5FC0F601EE0F84
:100F3000FF1FEE0FFF1FEE0FFF1FEC0DFD1DEA0D53
:100F4000FB1DEF53FB4F8581880D858390919004A5
:100F5000891B18160CF09FC0F601EE0FFF1FEE0F55
:100F6000FF1FEE0FFF1FEC0DFD1DEA0DFB1DEF53E4
:100F7000FB4F708A6786118A992011F481E0818B7A
:100F8000F601EE0FFF1FEE0FFF1FEE0FFF1FEC0D20
:100F9000FD1DEA0DFB1DEF53FB4F56820F900F9086
:100FA0000F900F90CF91DF911F910F91FF90EF90D5
:100FB000DF90CF90BF90AF909F908F907F906F9079
:100FC0005F90089513861582C3018070907C8050D5
:100FD000904C09F475CF992009F4A6CFC3019F73F3
:100FE000892B09F46DCF76FCA1CF8FEF8812839403
:100FF000F601EE0FFF1FEE0FFF1FEE0FFF1FEC0DB0
:10100000FD1DEA0DFB1DEF53FB4F8386A5CF7894A2
:1010100080E090E0A0E4B0E089839A83AB83BC8356
:1010200083E39BE060E072E00E949D1283E39BE01B
:1010300068E877E04AE050E00E94801289819A8156
:10104000AB81BC810097A105B10599F089819A8196
:10105000AB81BC810197A109B10989839A83AB83D4
:10106000BC8389819A81AB81BC810097A105B105C0
:1010700069F70C940000F601EE0FFF1FEE0FFF1F43
:10108000EE0FFF1FEC0DFD1DEA0DFB1DEF53FB4F97
:101090001386158215CF82898F3F11F08F5F828B67
:1010A000F601EE0FFF1FEE0FFF1FEE0FFF1FEC0DFF
:1010B000FD1DEA0DFB1DEF53FB4F9F5F95834CCF4A
:1010C000FF920F931F93DF93CF9300D00F92CDB772
:1010D000DEB7F0909004F394F09290041091B20473
:1010E000A0E000E0011708F068C0E02FF0E0EE0F8C
:1010F000FF1FE655FB4F40815181FA01258536855A
:10110000B9018581F81609F4E1C0FA0183858823C5
:1011100061F081508387882341F4878590898070AE
:101120009078282B392B368725872617370709F41F
:10113000CBC0FA018189882369F4FA016785708937
:10114000CB01822793279F73892B39F026233723DE
:101150002070307C232B09F4B7C0FA0182812681EC
:10116000248790E0DC01AD54BB4F2C91FC01EE0FC5
:10117000FF1FE80FF91FE20FF11DEE0FFF1FEB54E9
:10118000FB4F518340832F5F2C931150011788F43C
:10119000202FE22FF0E0EE0FFF1FDF01A455BB4F21
:1011A0008D919C91E655FB4F918380832F5F211792
:1011B00080F3A1E0011708F498CF1093B204609176
:1011C000910470919204FB018485882309F488C0FE
:1011D00081508487882309F083C086818487828137
:1011E000482F50E0FA01ED54FB4FE081E23008F463
:1011F00077C03E2F31508A01000F111FD801A40F74
:10120000B51FAA0FBB1FAB54BB4F21E012968D91A7
:101210009C9113978D939D932F5F2E17B9F7400FD5
:10122000511F430F511D440F551F4B545B4FFA0183
:10123000718360838091B404882309F070C0809129
:10124000B304882309F04FC0789480E090E0A0E4D4
:10125000B0E089839A83AB83BC8383E39BE060E047
:1012600072E00E949D1283E39BE06EEC72E04AE024
:1012700050E00E94801289819A81AB81BC810097E5
:10128000A105B10599F089819A81AB81BC81019753
:10129000A109B10989839A83AB83BC8389819A812F
:1012A000AB81BC810097A105B10569F70C940000E2
:1012B00020E0822F0F900F900F900F90CF91DF9131
:1012C0001F910F91FF9008950F5F0CCF8785908934
:1012D00080709074822B932B968785879C0115CF05
:1012E000AA2331F3A7CF80E090E0709321056093AB
:1012F0002005FC01EE0FFF1FE80FF91FEE0FFF1F87
:10130000EB54FB4F808191819093920480939104E0
:1013100020E06817790731F081E02827CACF81E003
:1013200090E0E3CF21E0F8CF0F920FB60F921F921B
:101330002F923F924F925F926F927F928F929F92E5
:10134000AF92BF92CF92DF92EF92FF920F931F93D3
:101350002F933F934F935F936F937F93AF93BF937D
:10136000CF93DF93EF93FF938F939F931124A8DE86
:10137000882309F435C0A0919104B09192048D9115
:101380009C9111979093A9048093A8040DB60092A4
:10139000A6040EB60092A7040090A8040DBE00900B
:1013A000A9040EBE8091A6049091A704E0912005A7
:1013B000F0912105918380831D968D919C911E97BC
:1013C000009771F09093A9048093A8041E961C9234
:1013D0001E921D970090A8040F920090A9040F92EE
:1013E0009F918F91FF91EF91DF91CF91BF91AF913D
:1013F0007F916F915F914F913F912F911F910F912D
:10140000FF90EF90DF90CF90BF90AF909F908F9024
:101410007F906F905F904F903F902F901F900F9014
:101420000FBE0F901895DF93CF9300D00F92CDB7DA
:10143000DEB781E090E060E040E007DB0197A1F1DA
:10144000789480E090E0A0E4B0E089839A83AB8355
:10145000BC8383E39BE061E372E00E949D1283E31F
:101460009BE067E870E04AE050E00E9480128981CA
:101470009A81AB81BC810097A105B10599F0898162
:101480009A81AB81BC810197A109B10989839A83B3
:10149000AB83BC8389819A81AB81BC810097A10514
:1014A000B10569F70C9400000F900F900F900F900A
:1014B000CF91DF91089582E090E0C1D8FFCF6F9285
:1014C0007F928F92AF92CF92DF92EF92FF920F9323
:1014D0001F9303E31BE0C80140E855E260E070E0C1
:1014E0006AD4C80165E772E00E949F128DE061E056
:1014F0002BD2A2E06A2EABE07A2E80E0B30140E06E
:1015000027E102E215E0FAEFEF2EF12CE2E0CE2E19
:10151000D12CAA24882455DC81E0B30140E02DE1E0
:101520000CE116E054E0C52ED12C4BDC82E0B30177
:1015300040E02FE106E117E038E0C32ED12C41DC7A
:1015400083E066EB7AE041E020E000E118E0C12CA6
:1015500090E8D92E36DC1F910F91FF90EF90DF902D
:10156000CF90AF908F907F906F900895EF92FF9201
:101570000F931F93EE24FF24870155DF83E39BE045
:1015800060E773E0DAD783E39BE063E873E0D5D7E5
:101590000894E11CF11C011D111D83E39BE0B801BF
:1015A000A7012AE030E034D783E39BE066E873E0EC
:1015B000C4D780E090E860E043E047DA83E39BE053
:1015C00061EA73E0BAD763E070E080E090E001D1B7
:1015D00083E39BE065EB73E0B0D783E39BE06AEDC8
:1015E00073E0ADD781E090E02AD880E090E460E03D
:1015F0004AE02BDA892B09F0C0CF1F910F91FF90A1
:10160000EF900895DF92EF92FF920F931F93DF9375
:10161000CF9300D00F92CDB7DEB78230910509F499
:101620003BC08430910509F485C0089791F1789406
:1016300080E090E0A0E4B0E089839A83AB83BC8330
:1016400083E39BE061E372E078D783E39BE06DEE98
:1016500070E04AE050E054D789819A81AB81BC8127
:101660000097A105B10599F089819A81AB81BC8170
:101670000197A109B10989839A83AB83BC838981CE
:101680009A81AB81BC810097A105B10569F70C94E3
:101690000000B2E0DB2E05C084E090E00E941F0352
:1016A000DD24EE24FF248701BEDE83E39BE06FEFA1
:1016B00073E043D783E39BE06D2D4AE050E0B5D65D
:1016C00083E39BE063E873E038D70894E11CF11CE6
:1016D000011D111D83E39BE0B801A7012AE030E062
:1016E00097D683E39BE06DE074E027D780E090E835
:1016F00060E046E0AAD983E39BE069E174E01DD78E
:101700006FE170E080E090E064D083E39BE069E407
:1017100074E013D783E39BE063E674E00ED783E3C2
:101720009BE06D2D4AE050E091D681E090E00E9470
:101730001F03BACF88E090E00E941F03DD24D394FA
:10174000B0CF1F920F920FB60F9211242F933F9399
:101750008F939F93AF93BF9380910E0990910F0940
:10176000A0911009B0911109309112090196A11DA3
:10177000B11D232F2D5F2D3720F02D570196A11D70
:10178000B11D2093120980930E0990930F09A09325
:101790001009B093110980910A0990910B09A09149
:1017A0000C09B0910D090196A11DB11D80930A0984
:1017B00090930B09A0930C09B0930D09BF91AF91C1
:1017C0009F918F913F912F910F900FBE0F901F907F
:1017D00018959B01AC017FB7F89480910A0990910C
:1017E0000B09A0910C09B0910D0966B5A89B05C025
:1017F0006F3F19F00196A11DB11D7FBFBA2FA92F10
:10180000982F8827860F911DA11DB11D62E0880FBA
:10181000991FAA1FBB1F6A95D1F7BC012DC0FFB746
:10182000F89480910A0990910B09A0910C09B0914C
:101830000D09E6B5A89B05C0EF3F19F00196A11D63
:10184000B11DFFBFBA2FA92F982F88278E0F911D8A
:10185000A11DB11DE2E0880F991FAA1FBB1FEA95C9
:10186000D1F7861B970B885E9340C8F22150304019
:101870004040504068517C4F2115310541055105CC
:1018800071F60895789484B5826084BD84B58160D2
:1018900084BD85B5826085BD85B5816085BDEEE678
:1018A000F0E0808181608083E1E8F0E01082808157
:1018B00082608083808181608083E0E8F0E08081C5
:1018C00081608083E1EBF0E0808184608083E0EBE5
:1018D000F0E0808181608083E1E9F0E080818260D6
:1018E0008083808181608083E0E9F0E08081816095
:1018F0008083E1EAF0E08081826080838081816082
:101900008083E0EAF0E0808181608083E1E2F1E0C1
:10191000808182608083808181608083E0E2F1E069
:10192000808181608083EAE7F0E080818460808349
:1019300080818260808380818160808380818068F3
:1019400080831092C1000895CF93DF93482F50E019
:10195000CA0188589E4FFC0134914E5C5E4FFA01DB
:101960008491882369F190E0880F991FFC01EC5164
:10197000FF4FA591B491FC01E250FF4FC591D49166
:10198000662351F42FB7F8948C91932F9095892367
:101990008C93888189230BC0623061F42FB7F8944F
:1019A0008C91932F909589238C938881832B8883A6
:1019B0002FBF06C09FB7F8948C91832B8C939FBF49
:1019C000DF91CF9108951F920F920FB60F920BB631
:1019D0000F9211242F933F934F938F939F93EF93E5
:1019E000FF938091C00082FD1DC04091C6002091F0
:1019F0005309309154092F5F3F4F2F7330708091FE
:101A00005509909156092817390771F0E09153094B
:101A1000F0915409ED5EF64F4083309354092093C2
:101A2000530902C08091C600FF91EF919F918F9161
:101A30004F913F912F910F900BBE0F900FBE0F90C3
:101A40001F9018951F920F920FB60F920BB60F9220
:101A500011242F933F934F938F939F93EF93FF9373
:101A60008091C80082FD1DC04091CE002091DB090D
:101A70003091DC092F5F3F4F2F7330708091DD096B
:101A80009091DE092817390771F0E091DB09F09198
:101A9000DC09E556F64F40833093DC092093DB09DF
:101AA00002C08091CE00FF91EF919F918F914F9155
:101AB0003F912F910F900BBE0F900FBE0F901F9074
:101AC00018951F920F920FB60F920BB60F9211241A
:101AD0002F933F934F938F939F93EF93FF93809117
:101AE000D00082FD1DC04091D6002091630A309144
:101AF000640A2F5F3F4F2F7330708091650A909179
:101B0000660A2817390771F0E091630AF091640AB8
:101B1000ED5DF54F40833093640A2093630A02C061
:101B20008091D600FF91EF919F918F914F913F91BE
:101B30002F910F900BBE0F900FBE0F901F90189516
:101B40001F920F920FB60F920BB60F9211242F9384
:101B50003F934F938F939F93EF93FF938091300127
:101B600082FD1DC0409136012091EB0A3091EC0AB4
:101B70002F5F3F4F2F7330708091ED0A9091EE0AE6
:101B80002817390771F0E091EB0AF091EC0AE5555E
:101B9000F54F40833093EC0A2093EB0A02C080910A
:101BA0003601FF91EF919F918F914F913F912F912E
:101BB0000F900BBE0F900FBE0F901F9018951F92A5
:101BC0000F920FB60F920BB60F9211242F933F93E3
:101BD0008F939F93EF93FF932091970930919809EA
:101BE0008091990990919A092817390731F48091C9
:101BF000C1008F7D8093C10014C0E0919909F091DC
:101C00009A09E95AF64F20818091990990919A0991
:101C100001968F73907090939A09809399092093FD
:101C2000C600FF91EF919F918F913F912F910F905F
:101C30000BBE0F900FBE0F901F9018951F920F9222
:101C40000FB60F920BB60F9211242F933F938F93E1
:101C50009F93EF93FF9320911F0A3091200A809168
:101C6000210A9091220A2817390731F48091C9007E
:101C70008F7D8093C90014C0E091210AF091220A5F
:101C8000E152F64F20818091210A9091220A01961B
:101C90008F7390709093220A8093210A2093CE0034
:101CA000FF91EF919F918F913F912F910F900BBEDC
:101CB0000F900FBE0F901F9018951F920F920FB6A6
:101CC0000F920BB60F9211242F933F938F939F93F4
:101CD000EF93FF932091A70A3091A80A8091A90A57
:101CE0009091AA0A2817390731F48091D1008F7D8D
:101CF0008093D10014C0E091A90AF091AA0AE95991
:101D0000F54F20818091A90A9091AA0A01968F73BC
:101D100090709093AA0A8093A90A2093D600FF910D
:101D2000EF919F918F913F912F910F900BBE0F904C
:101D30000FBE0F901F9018951F920F920FB60F9223
:101D40000BB60F9211242F933F938F939F93EF9392
:101D5000FF9320912F0B3091300B8091310B90919C
:101D6000320B2817390731F4809131018F7D809330
:101D7000310114C0E091310BF091320BE151F54F7C
:101D800020818091310B9091320B01968F7390706E
:101D90009093320B8093310B20933601FF91EF919A
:101DA0009F918F913F912F910F900BBE0F900FBE7F
:101DB0000F901F901895AF92BF92DF92EF92FF9213
:101DC0000F931F93CF93DF93EC017A018B01DD24F6
:101DD000403081EE580780E0680780E0780711F016
:101DE000DD24D39491E0A92EB12CEC89FD89DD206E
:101DF00069F0C50108A002C0880F991F0A94E2F794
:101E0000808360E079E08DE390E005C0108260E8B7
:101E100074E88EE190E0A8019701C1D321503040D1
:101E200040405040569547953795279580E12030A2
:101E3000380720F0DD2011F0DD24D7CFE889F989BB
:101E40003083EA89FB89208319A2EE89FF894081CA
:101E500021E030E0C9010C8C02C0880F991F0A9460
:101E6000E2F7482B4083EE89FF894081C9010D8C40
:101E700002C0880F991F0A94E2F7482B4083EE892D
:101E8000FF894081C9010E8C02C0880F991F0A94F6
:101E9000E2F7482B4083EE89FF8980810F8C02C0D6
:101EA000220F331F0A94E2F7209528232083DF9125
:101EB000CF911F910F91FF90EF90DF90BF90AF9067
:101EC0000895DC011C96ED91FC911D97E05CFF4F9D
:101ED0002191319180819181281B390B2F733070B2
:101EE000C9010895DC011C96ED91FC911D97E05C01
:101EF000FF4F20813181E054F040DF01AE5BBF4FE6
:101F00008D919C9111972817390719F42FEF3FEF06
:101F100007C08D919C91E80FF91F8081282F30E038
:101F2000C9010895DC011C96ED91FC911D97E05CC0
:101F3000FF4F20813181E054F040DF01AE5BBF4FA5
:101F40008D919C9111972817390719F42FEF3FEFC6
:101F500010C08D919C911197E80FF91F20818D91F0
:101F60009C91119701968F73907011969C938E930C
:101F700030E0C9010895DC0191968C9191978823F6
:101F800039F05496ED91FC915597808186FFF9CFF9
:101F900091961C920895CF93DF93EC01EE85FF8517
:101FA000E05CFF4F20813181E054F0402F5F3F4FD4
:101FB0002F733070DF01AE5BBF4F8D919C911197F5
:101FC00028173907D1F3E05CFF4F80819181E054FD
:101FD000F040E80FF91F6083EE85FF85E05CFF4F5E
:101FE00031832083EE89FF89208181E090E00F8C8E
:101FF00002C0880F991F0A94E2F7282B208381E002
:1020000089A3EC89FD8980818064808381E090E0F0
:10201000DF91CF9108951F931092360B1092350BDC
:1020200028EE33E040E050E02093370B3093380B3C
:102030004093390B50933A0B69E974E07093340B79
:102040006093330B83E199E09093400B80933F0BB7
:1020500087E599E09093420B8093410B85EC90E0EB
:102060009093440B8093430B84EC90E09093460B49
:102070008093450B80EC90E09093480B8093470B46
:1020800081EC90E090934A0B8093490B82EC90E0B6
:1020900090934C0B80934B0B86EC90E090934E0BFF
:1020A00080934D0B14E010934F0BB3E0B093500BA3
:1020B000A7E0A093510BF5E0F093520BE1E0E09321
:1020C000530B1092580B1092570B2093590B3093CF
:1020D0005A0B40935B0B50935C0B7093560B6093C1
:1020E000550B8BE999E09093620B8093610B8FED18
:1020F00099E09093640B8093630B8DEC90E0909348
:10210000660B8093650B8CEC90E09093680B80934A
:10211000670B88EC90E090936A0B8093690B89ECD5
:1021200090E090936C0B80936B0B8AEC90E0909313
:102130006E0B80936D0B8EEC90E09093700B809300
:102140006F0B1093710BB093720BA093730BF09302
:10215000740BE093750B10927A0B1092790B20930D
:102160007B0B30937C0B40937D0B50937E0B7093D5
:10217000780B6093770B83E29AE09093840B8093C3
:10218000830B87E69AE09093860B8093850B85ED11
:1021900090E09093880B8093870B84ED90E0909370
:1021A0008A0B8093890B80ED90E090938C0B809349
:1021B0008B0B81ED90E090938E0B80938D0B82EDD5
:1021C00090E09093900B80938F0B86ED90E090932E
:1021D000920B8093910B1093930BB093940BA0935D
:1021E000950BF093960BE093970B10929C0B10922B
:1021F0009B0B20939D0B30939E0B40939F0B509312
:10220000A00B70939A0B6093990B8BEA9AE09093D2
:10221000A60B8093A50B8FEE9AE09093A80B80936A
:10222000A70B85E391E09093AA0B8093A90B84E31D
:1022300091E09093AC0B8093AB0B80E391E0909393
:10224000AE0B8093AD0B81E391E09093B00B809344
:10225000AF0B82E391E09093B20B8093B10B86E3D6
:1022600091E09093B40B8093B30B1093B50BB093A4
:10227000B60BA093B70BF093B80BE093B90B1F917B
:102280000895CF92DF92EF92FF920F931F93CF9317
:10229000DF937C016B018A01C0E0D0E00FC0D60162
:1022A0006D916D01D701ED91FC910190F081E02DD0
:1022B000C7011995C80FD91F01501040011511050C
:1022C00071F7CE01DF91CF911F910F91FF90EF90A9
:1022D000DF90CF900895EF92FF920F931F938C01A0
:1022E000DC01ED91FC910190F081E02D6DE01995FC
:1022F0007C01D801ED91FC910190F081E02DC801A5
:102300006AE019959C012E0D3F1DC9011F910F9187
:10231000FF90EF900895CF93DF93EC016115710565
:1023200019F420E030E00FC0DB010D900020E9F748
:102330001197A61BB70BE881F9810280F381E02D8C
:10234000AD0119959C01C901DF91CF9108954F927C
:102350005F927F928F929F92AF92BF92CF92DF92C5
:10236000EF92FF920F931F93DF93CF93CDB7DEB71A
:10237000A1970FB6F894DEBF0FBECDBF2C01742E0F
:10238000CB01223008F42AE019A231E2C32ED12C6D
:10239000CC0EDD1E822E9924AA24BB24672D752F16
:1023A000A5019401FCD079018A01C801B701A501FA
:1023B0009401D6D0472D461B0894C108D1084A3055
:1023C00014F4405D01C0495CF6014083E114F1045E
:1023D0000105110521F07E2C5F2DC801DFCFC20160
:1023E000B60199DFA1960FB6F894DEBF0FBECDBF40
:1023F000CF91DF911F910F91FF90EF90DF90CF90E1
:10240000BF90AF909F908F907F905F904F90089576
:10241000DC012115310541F4ED91FC910190F08131
:10242000E02D642F1995089592CFEF92FF920F93AC
:102430001F939A01E62EFF2400E010E0B801A701E7
:10244000E7DF1F910F91FF90EF900895CF92DF92F9
:10245000EF92FF920F931F936C01E62E9A01FF24D7
:1024600000E010E0B801A701D3DF8C01C60133DF23
:10247000080F191FC8011F910F91FF90EF90DF9077
:10248000CF900895CF92DF92EF92FF920F931F9318
:10249000CF93DF93EC016A017B012115310541F4F3
:1024A000E881F9810190F081E02D642F19951DC01C
:1024B0002A303105C9F477FF16C0E881F98101900F
:1024C000F081E02D6DE219958C0144275527BA0162
:1024D0004C195D096E097F09CE012AE038DF9801A9
:1024E000280F391F03C02AE032DF9C01C901DF91A8
:1024F000CF911F910F91FF90EF90DF90CF900895B3
:10250000CF92DF92EF92FF920F931F936C017B01AA
:102510009A010027F7FC0095102FB801A701B2DF40
:102520008C01C601D8DE080F191FC8011F910F9139
:10253000FF90EF90DF90CF900895EDCE0895EF9249
:10254000FF920F931F937C01E6DE8C01C701C3DE6F
:10255000080F191FC8011F910F91FF90EF90089568
:10256000629FD001739FF001829FE00DF11D649F77
:10257000E00DF11D929FF00D839FF00D749FF00D03
:10258000659FF00D9927729FB00DE11DF91F639FA4
:10259000B00DE11DF91FBD01CF0111240895A1E285
:1025A0001A2EAA1BBB1BFD010DC0AA1FBB1FEE1FCD
:1025B000FF1FA217B307E407F50720F0A21BB30B18
:1025C000E40BF50B661F771F881F991F1A9469F794
:1025D00060957095809590959B01AC01BD01CF01F0
:1025E0000895EE0FFF1F0590F491E02D1994F894D3
:0225F000FFCF1B
:1025F200417373657274696F6E206661696C65649C
:1026020020696E2066696C6520636F64652F525481
:102612004F532F72746F732E632C206C696E65207A
:1026220000417373657274696F6E206661696C65CF
:102632006420696E2066696C6520636F64652F6132
:1026420070706C69636174696F6E732F746331317A
:102652002F746331315F6D757465782E632C206C35
:10266200696E6520000A525475696E4F5320312EEF
:102672003020666F722041726475696E6F20312E50
:10268200302E350A436F7079726967687420284367
:102692002920323031322D32303133205065746589
:1026A20072205672616E6B656E20286D61696C7462
:1026B2006F3A50657465725F5672616E6B656E40FB
:1026C2005961686F6F2E6465290A546869732069BD
:1026D20073206672656520736F6674776172653BFD
:1026E200207365652074686520736F757263652059
:1026F200666F7220636F7079696E6720636F6E64B4
:102702006974696F6E732E205468657265206973EF
:10271200204E4F0A77617272616E74793B206E6F40
:1027220074206576656E20666F72204D455243486F
:10273200414E544142494C495459206F72204649F6
:10274200544E45535320464F52204120504152543B
:102752004943554C415220505552504F53452E003B
:1027620054686973206973207461736B2054305FFD
:102772004331003A2000206C6F6F70732E20546832
:102782006973206C696E65206F6620636F6E736F6C
:10279200006C65206F757470757420697320696EA2
:1027A2007465727200757074656420627920736555
:1027B200766572616C207461736B2064652D616350
:1027C2007469766174696F6E73002E204E6F772084
:1027D200746865207265736F757263652069732012
:1027E20072656C656173656420616761696E00542E
:1027F200686973206973207461736B2000206C6FA9
:102802006F70732E205468690073206C696E6520A6
:102812006F6620636F6E736F6C65206F7574707571
:102822007420697320696E74657272757074656460
:1028320020627920736576650072616C2074617321
:102842006B2064652D61637469766174696F6E7360
:102852002E20004E6F7720746865207265736F7545
:102862007263652053657269616C206973207265B9
:102872006C6561736564206279207461736B2000FA
:10288200FF0D05010000000000CB0F4111610F9206
:062892000F720FBB0F00E6
:00000001FF
