:1000000002C100002CC100002AC1000028C100006C
:1000100026C1000024C1000022C1000020C1000050
:100020001EC100001CC100001AC1000018C1000060
:1000300016C1000014C1000012C10000F1C500008B
:100040000EC100000CC100000AC1000008C1000080
:1000500006C1000004C1000002C1000076C7000014
:10006000FEC000000C94A5090C94A10AF8C0000081
:10007000F6C00000F4C00000F2C00000F0C00000B4
:10008000EEC00000ECC00000EAC00000E8C00000C4
:100090000C94E4090C94E00AE2C00000E0C0000007
:1000A000DEC00000DCC00000DAC00000D8C00000E4
:1000B000D6C00000D4C00000D2C00000D0C00000F4
:1000C000CEC00000CCC00000CAC000000C94230ABF
:1000D0000C941F0BC4C000000C94620A0C945E0BBD
:1000E000BEC0000000002100240027002A002D00CF
:1000F0003000330001010000040107010A01000083
:100100002200250028002B002E00310034000201BF
:100110000000050108010B0100002000230026005B
:1001200029002C002F00320000010000030106010D
:10013000090105050505070508080808020202026D
:100140000A0A080804040404010101010101010173
:100150000303030303030303040707070C0C0C0C3E
:100160000C0C0C0C02020202060606060606060627
:100170000B0B0B0B0B0B0B0B0102102020080810B4
:100180002040102040800201020108040201010207
:1001900004081020408080402010080402018004E0
:1001A000020180402010080402010804020101023B
:1001B0000408102040800102040810204080000044
:1001C000090A02080B0C0D070603040100000000D9
:1001D000000000000000000000000000000000001F
:1001E0000000000000000000000011100F000000DF
:1001F00000000000000000000000000000000000FF
:1002000000000000CD0C11241FBECFEFD1E2DEBFF5
:10021000CDBF00E00CBF14E0A0E0B2E0EAE5F5E2FB
:1002200000E00BBF02C007900D92AE31B107D9F7C5
:100230001BBE17E0AEE1B4E001C01D92AD3FB107B7
:10024000E1F712E0C6E0D2E004C02297FE010E946E
:10025000A712C430D107C9F7AAD00C94AB12D0CEE4
:100260004F925F926F927F929F92AF92BF92CF9286
:10027000DF92EF92FF920F931F93DF93CF9300D003
:100280000F92CDB7DEB7A9D62B013C0138EEE32E95
:1002900033E0F32E012D112DE60EF71E081F191F56
:1002A0009924939486E79EE3FFD697D65B016C0171
:1002B0006E157F0580079107A0F38FE3891508F479
:1002C00041C086017501E418F50806091709892D52
:1002D00090E082959295907F9827807F98275C0187
:1002E000CC24DD24C601B50128EC30E040E050E02C
:1002F0000E946412E616F7060807190708F5AE14FF
:10030000BF04C006D106D0F4A80197010E94831251
:1003100088EC821B0F900F900F900F90CF91DF9180
:100320001F910F91FF90EF90DF90CF90BF90AF9013
:100330009F907F906F905F904F90089580E0EACFFC
:1003400088ECE8CF789480E090E0A0E4B0E0898386
:100350009A83AB83BC8385E797E060E072E00E94FC
:100360005F0F85E797E06EE770E04AE050E00E949B
:10037000420F89819A81AB81BC810097A105B105AB
:1003800099F089819A81AB81BC810197A109B1095A
:1003900089839A83AB83BC8389819A81AB81BC8139
:1003A0000097A105B10569F70C9400008ACF86D6A5
:1003B00098D180E090E00895E0E7F0E080818160EE
:1003C00080830895CF92DF92EF92FF920F931F9355
:1003D000DF93CF9300D00F92CDB7DEB77C01C62E4E
:1003E000D42E00910B0410910C0424E00B3312075F
:1003F00009F4B9C0F8018281682F70E0FB01EB5D60
:10040000FB4F8081815080838823D9F0E0E0F0E0C9
:1004100021E030E0482F50E04F5F5F4FE60FF71FBD
:10042000EE0FFF1FDF01A85DBB4F8D919C91EA5D30
:10043000FB4F91838083F9012F5F3F4F24173507CE
:1004400069F7E114F10461F0C7018070907C80507D
:10045000904C31F0CC20C1F1C7019F73892BA1F5DD
:10046000789480E090E0A0E4B0E089839A83AB8345
:10047000BC8385E797E06BE372E00E945F0F85E73E
:1004800097E060E475E04AE050E00E94420F898105
:100490009A81AB81BC810097A105B10599F0898152
:1004A0009A81AB81BC810197A109B10989839A83A3
:1004B000AB83BC8389819A81AB81BC810097A10504
:1004C000B10569F70C940000F6FE3EC0F801858185
:1004D0008D0D858390910A04891B1816DCF5F801AF
:1004E000F686E5861786CC2011F481E08787809117
:1004F0002404E82FF0E0EE0FFF1FEE5DFB4F1183A9
:1005000000838F5F8093240480910B0490910C04EE
:1005100090932904809328048BE394E090930C0437
:1005200080930B0480912504882309F055C00F9017
:100530000F900F900F90CF91DF911F910F91FF902F
:10054000EF90DF90CF900895FFEFDF12D394F80182
:10055000D286C5CF80898F3F11F08F5F808B9F5FE0
:10056000F8019583BCCF789480E090E0A0E4B0E0FF
:1005700089839A83AB83BC8385E797E06BE372E062
:100580000E945F0F85E797E066EE75E04AE050E075
:100590000E94420F89819A81AB81BC810097A1059D
:1005A000B10599F089819A81AB81BC810197A1093C
:1005B000B10989839A83AB83BC8389819A81AB819A
:1005C000BC810097A105B10569F70C94000000916A
:1005D0000B0410910C040ECF8091260490912704F7
:1005E00090930C0480930B04A2CFF8940F920FB653
:1005F0000F921F922F923F924F925F926F927F9233
:100600008F929F92AF92BF92CF92DF92EF92FF9222
:100610000F931F932F933F934F935F936F937F930A
:10062000AF93BF93CF93DF93EF93FF93CBDEA09174
:100630000B04B0910C048D919C911197909321041F
:10064000809320040DB600921E040EB600921F0483
:10065000009020040DBE009021040EBE80911E0467
:1006600090911F04E0912804F091290491838083E4
:100670001B968D919C911C97009771F0909321048B
:10068000809320041C961C921E921B9700902004BD
:100690000F92009021040F929F918F91FF91EF9103
:1006A000DF91CF91BF91AF917F916F915F914F910A
:1006B0003F912F911F910F91FF90EF90DF90CF907E
:1006C000BF90AF909F908F907F906F905F904F9072
:1006D0003F902F901F900F900FBE0F90189580E0C5
:1006E00090E00F931F93DF93CF9300D00F92CDB77D
:1006F000DEB70AE214E082E2F80111928A95E9F786
:1007000047D340912D0450912E044115510579F0A5
:1007100060913004709131046115710541F02091B0
:100720003204309133042233310508F040C078940C
:1007300080E090E0A0E4B0E089839A83AB83BC833F
:1007400085E797E06BE372E00E945F0F85E797E033
:100750006AED77E04AE050E00E94420F89819A8179
:10076000AB81BC810097A105B10599F089819A817F
:10077000AB81BC810197A109B10989839A83AB83BD
:10078000BC8389819A81AB81BC810097A105B105A9
:1007900069F70C940000609130047091310420914D
:1007A00032043091330440912D0450912E04215095
:1007B0003040260F371FF901108212921292429395
:1007C000CA01AA2797FDA095BA2F92938B2F99273C
:1007D000AA27BB278293129280E8829312923197C4
:1007E000DF012F5130401C921197A217B307D9F7A0
:1007F000769710821292129212921292129231975E
:10080000E617F70738F0DF0189E28C931197A617F6
:10081000B707D8F7F0932B04E0932A04109236041C
:100820001092350410923A0410932304009322048A
:1008300021E020932404C801419610923C041092B8
:100840003B04109240041092450410924704109209
:100850004604109249041092480420934A041092CE
:100860004B041092250490930C0480930B049093F6
:10087000290480932804A0DD52D2FECF8F929F924C
:10088000AF92BF92CF92DF92EF92FF920F931F939E
:10089000DF93CF9300D00F92CDB7DEB74701BC2CCA
:1008A000E82EFF246701C294D29450EFD522DC24B5
:1008B000C522DC24F601EE0DFF1DE65DFB4F7483BF
:1008C00063833783268311870087428381149104D1
:1008D00009F479C012861582C4018070907C805022
:1008E000904C31F0BB20C1F1C4019F73892BA1F55D
:1008F000789480E090E0A0E4B0E089839A83AB83B1
:10090000BC8385E797E06BE372E00E945F0F85E7A9
:1009100097E060E475E04AE050E00E94420F898170
:100920009A81AB81BC810097A105B10599F08981BD
:100930009A81AB81BC810197A109B10989839A830E
:10094000AB83BC8389819A81AB81BC810097A1056F
:10095000B10569F70C94000096FE2BC0F601EE0D70
:10096000FF1DE65DFB4F85818A0D858390910A040A
:10097000891B18160CF063C0F601EE0DFF1DE65D35
:10098000FB4F968685861786BB2011F481E087870A
:100990000F900F900F900F90CF91DF911F910F91BB
:1009A000FF90EF90DF90CF90BF90AF909F908F908F
:1009B00008952FEFA212A394F601EE0DFF1DE65D40
:1009C000FB4FA286D9CF789480E090E0A0E4B0E01D
:1009D00089839A83AB83BC8385E797E06BE372E0FE
:1009E0000E945F0F85E797E068E877E04AE050E013
:1009F0000E94420F89819A81AB81BC810097A10539
:100A0000B10599F089819A81AB81BC810197A109D7
:100A1000B10989839A83AB83BC8389819A81AB8135
:100A2000BC810097A105B10569F70C940000F6019F
:100A3000EE0DFF1DE65DFB4F1286158259CF8089B2
:100A40008F3F11F08F5F808BF601EE0DFF1DE65D8D
:100A5000FB4F9F5F958390CFFF920F931F93DF9380
:100A6000CF9300D00F92CDB7DEB7F0900A04F39485
:100A7000F0920A0410912404A0E000E0011708F0AD
:100A800061C0E02FF0E0EE0FFF1FEE5DFB4F208115
:100A90003181F90143855485BA018581F81609F43D
:100AA00063C0F9018285882361F0815082878823A1
:100AB00041F48585968580709078482B592B548712
:100AC00043874617570709F44DC0F90187858823E6
:100AD00069F4F90165857685CB01842795279F7395
:100AE000892B31F0462357234070507C452BD1F1A0
:100AF000D9011296EC91F0E0DF01AB5DBB4F8C9118
:100B0000E80FF11DEE0FFF1FEA5DFB4F31832083DD
:100B10008F5F8C931150011788F4202FE22FF0E0A3
:100B2000EE0FFF1FDF01AC5DBB4F8D919C91EE5D21
:100B3000FB4F918380832F5F211780F3A1E0011782
:100B400008F49FCF10932404AA23C1F440E0842F1B
:100B50000F900F900F900F90CF91DF911F910F91F9
:100B6000FF9008950F5F8ACF858596858070907479
:100B7000842B952B94878387AC0193CF8091250498
:100B80008823A9F5789480E090E0A0E4B0E0898320
:100B90009A83AB83BC8385E797E06BE372E00E94A6
:100BA0005F0F85E797E06EEC72E04AE050E00E944C
:100BB000420F89819A81AB81BC810097A105B10563
:100BC00099F089819A81AB81BC810197A109B10912
:100BD00089839A83AB83BC8389819A81AB81BC81F1
:100BE0000097A105B10569F70C940000AFCF2091E3
:100BF0000B0430910C043093290420932804809135
:100C000026049091270490930C0480930B0440E0F9
:100C10002817390719F081E0482799CF41E0FBCF29
:100C20000F920FB60F921F922F923F924F925F92A8
:100C30006F927F928F929F92AF92BF92CF92DF92EC
:100C4000EF92FF920F931F932F933F934F935F93D6
:100C50006F937F93AF93BF93CF93DF93EF93FF9304
:100C60008F939F931124F8DE882309F435C0A09157
:100C70000B04B0910C048D919C91119790932104D9
:100C8000809320040DB600921E040EB600921F043D
:100C9000009020040DBE009021040EBE80911E0421
:100CA00090911F04E0912804F0912904918380839E
:100CB0001B968D919C911C97009771F09093210445
:100CC000809320041C961C921E921B970090200477
:100CD0000F92009021040F929F918F91FF91EF91BD
:100CE000DF91CF91BF91AF917F916F915F914F91C4
:100CF0003F912F911F910F91FF90EF90DF90CF9038
:100D0000BF90AF909F908F907F906F905F904F902B
:100D10003F902F901F900F900FBE0F9018958DE071
:100D200061E0E1D266E970E080E090E064D18DE0BE
:100D300060E0D9D266E970E080E090E05CD18DE0BF
:100D400061E0D1D266E970E080E090E054D18DE0BE
:100D500060E0C9D266E970E080E090E04CD18DE0BF
:100D600061E0C1D266E970E080E090E044D18DE0BE
:100D700060E0B9D266E970E080E090E03CD162E5E5
:100D800073E080E090E037D16BDA80930D04089532
:100D9000AF92CF92EF92FF920F931F9305E717E068
:100DA000C80140E855E260E070E0C7D4C8016CE6D5
:100DB00072E00E9434108DE061E0E2D180E064EFE7
:100DC00076E040E02CE434E000E011E0E12C50E873
:100DD000F52ECC2495E0A92E51DD1F910F91FF90A7
:100DE000EF90CF90AF9008958F929F92AF92BF9265
:100DF000CF92DF92EF92FF920F931F93CF93DF93E7
:100E00008C01EBD04B015C0185E797E067E673E06E
:100E10000E945F0F85E797E0B80140E150E0C7D737
:100E2000C0E0D0E08DE061E05ED266E970E080E095
:100E300090E0E1D08DE060E056D266E970E080E0BD
:100E400090E0D9D08DE061E04ED266E970E080E0BC
:100E500090E0D1D08DE060E046D266E970E080E0BD
:100E600090E0C9D062E573E080E090E0C4D02196C4
:100E7000C330D105B9F685E797E067E873E00E94D3
:100E8000341080E090E860E047E3AFDB8C0185E759
:100E900097E065EA73E00E945F0F85E797E0B8018D
:100EA00040E150E084D785E797E064EC73E00E946E
:100EB000341080E090E460E04DE797DB8C018DD04A
:100EC0006B017C0185E797E065EA73E0F8D785E779
:100ED00097E0B80140E150E06AD785E797E062EE1D
:100EE00073E0EDD7C701B601681979098A099B0932
:100EF0000E94471129EC38EC48EC5EE30E94FD119A
:100F0000AB01BC0185E797E022E030E00E9432109F
:100F100085E797E06FEE73E00E94341085E797E075
:100F200061EF73E0CCD760910D04669585E797E09B
:100F300070E04AE050E094D785E797E06FEE73E009
:100F40000E9434104601570196CF1F920F920FB6A0
:100F50000F9211242F933F938F939F93AF93BF933F
:100F60008091500590915105A0915205B091530583
:100F7000309154050196A11DB11D232F2D5F2D37F2
:100F800020F02D570196A11DB11D2093540580938B
:100F9000500590935105A0935205B093530580914D
:100FA0004C0590914D05A0914E05B0914F050196CD
:100FB000A11DB11D80934C0590934D05A0934E0546
:100FC000B0934F05BF91AF919F918F913F912F911A
:100FD0000F900FBE0F901F9018958FB7F894209127
:100FE00050053091510540915205509153058FBFE6
:100FF000B901CA0108959B01AC017FB7F8948091B3
:101000004C0590914D05A0914E05B0914F0566B5E8
:10101000A89B05C06F3F19F00196A11DB11D7FBFB0
:10102000BA2FA92F982F8827860F911DA11DB11DBA
:1010300062E0880F991FAA1FBB1F6A95D1F7BC01F8
:101040002DC0FFB7F89480914C0590914D05A0916B
:101050004E05B0914F05E6B5A89B05C0EF3F19F0CE
:101060000196A11DB11DFFBFBA2FA92F982F882768
:101070008E0F911DA11DB11DE2E0880F991FAA1FBF
:10108000BB1FEA95D1F7861B970B885E9340C8F289
:10109000215030404040504068517C4F211531056F
:1010A0004105510571F60895019739F0880F991F90
:1010B000880F991F02970197F1F70895789484B5E6
:1010C000826084BD84B5816084BD85B5826085BD44
:1010D00085B5816085BDEEE6F0E08081816080832A
:1010E000E1E8F0E01082808182608083808181600D
:1010F0008083E0E8F0E0808181608083E1EBF0E0D4
:10110000808184608083E0EBF0E080818160808377
:10111000E1E9F0E08081826080838081816080836A
:10112000E0E9F0E0808181608083E1EAF0E08081A5
:1011300082608083808181608083E0EAF0E080814A
:1011400081608083E1E2F1E0808182608083808140
:1011500081608083E0E2F1E0808181608083EAE762
:10116000F0E08081846080838081826080838081E0
:10117000816080838081806880831092C10008959F
:10118000CF93DF93482F50E0CA0188589E4FFC014F
:1011900034914E5C5E4FFA018491882369F190E0AE
:1011A000880F991FFC01EC51FF4FA591B491FC01F0
:1011B000E250FF4FC591D491662351F42FB7F894B4
:1011C0008C91932F909589238C93888189230BC0D0
:1011D000623061F42FB7F8948C91932F9095892306
:1011E0008C938881832B88832FBF06C09FB7F89488
:1011F0008C91832B8C939FBFDF91CF910895893081
:1012000009F449C08A30A0F4843051F1853040F4AB
:10121000823079F1833000F5813009F063C026C057
:10122000873079F1883098F5863009F05BC025C0A9
:101230008D3009F442C08E3028F48B30B1F18C30FF
:10124000C0F52DC0803109F442C0813109F445C098
:101250008F3009F047C037C0809180008F7703C07E
:10126000809180008F7D80938000089584B58F7772
:1012700002C084B58F7D84BD08958091B0008F77C2
:1012800003C08091B0008F7D8093B000089580915D
:1012900090008F7707C0809190008F7D03C0809170
:1012A0009000877F8093900008958091A0008F77B1
:1012B00007C08091A0008F7D03C08091A000877F30
:1012C0008093A0000895809120018F7703C08091C2
:1012D00020018F7D80932001089580912001877FD8
:1012E000809320010895FF920F931F93F62E482FAD
:1012F00050E0CA0182549E4FFC012491CA018858D3
:101300009E4FFC0114914E5C5E4FFA010491002344
:10131000C1F0222311F0822F72DFE02FF0E0EE0FF8
:10132000FF1FE250FF4FA591B4919FB7F894FF20A3
:1013300021F48C911095812302C08C91812B8C9388
:101340009FBF1F910F91FF9008951F920F920FB6AC
:101350000F920BB60F9211242F933F934F938F93BD
:101360009F93EF93FF938091C00082FD1DC0409139
:10137000C60020919505309196052F5F3F4F2F7342
:10138000307080919705909198052817390771F072
:10139000E0919505F0919605EB5AFA4F4083309312
:1013A00096052093950502C08091C600FF91EF91AC
:1013B0009F918F914F913F912F910F900BBE0F9066
:1013C0000FBE0F901F9018951F920F920FB60F929D
:1013D0000BB60F9211242F933F934F938F939F93AC
:1013E000EF93FF938091C80082FD1DC04091CE0015
:1013F00020911D0630911E062F5F3F4F2F733070D6
:1014000080911F06909120062817390771F0E0910E
:101410001D06F0911E06E352FA4F408330931E06DC
:1014200020931D0602C08091CE00FF91EF919F9105
:101430008F914F913F912F910F900BBE0F900FBE48
:101440000F901F9018951F920F920FB60F920BB628
:101450000F9211242F933F934F938F939F93EF936A
:10146000FF938091D00082FD1DC04091D600209155
:10147000A5063091A6062F5F3F4F2F7330708091E5
:10148000A7069091A8062817390771F0E091A506E4
:10149000F091A606EB59F94F40833093A6062093AE
:1014A000A50602C08091D600FF91EF919F918F9188
:1014B0004F913F912F910F900BBE0F900FBE0F9049
:1014C0001F9018951F920F920FB60F920BB60F92A6
:1014D00011242F933F934F938F939F93EF93FF93F9
:1014E0008091300182FD1DC04091360120912D0771
:1014F00030912E072F5F3F4F2F73307080912F0751
:10150000909130072817390771F0E0912D07F0917D
:101510002E07E351F94F408330932E0720932D0778
:1015200002C080913601FF91EF919F918F914F9171
:101530003F912F910F900BBE0F900FBE0F901F90F9
:1015400018951F920F920FB60F920BB60F9211249F
:101550002F933F938F939F93EF93FF932091D90500
:101560003091DA058091DB059091DC052817390769
:1015700031F48091C1008F7D8093C10014C0E0914F
:10158000DB05F091DC05E756FA4F20818091DB0501
:101590009091DC0501968F7390709093DC05809399
:1015A000DB052093C600FF91EF919F918F913F91B2
:1015B0002F910F900BBE0F900FBE0F901F9018959C
:1015C0001F920F920FB60F920BB60F9211242F930A
:1015D0003F938F939F93EF93FF93209161063091F8
:1015E000620680916306909164062817390731F4EA
:1015F0008091C9008F7D8093C90014C0E09163067B
:10160000F0916406EF5DF94F20818091630690911F
:10161000640601968F7390709093640680936306BE
:101620002093CE00FF91EF919F918F913F912F9149
:101630000F900BBE0F900FBE0F901F9018951F922A
:101640000F920FB60F920BB60F9211242F933F9368
:101650008F939F93EF93FF932091E9063091EA06D1
:101660008091EB069091EC062817390731F48091B0
:10167000D1008F7D8093D10014C0E091EB06F091F2
:10168000EC06E755F94F20818091EB069091EC062E
:1016900001968F7390709093EC068093EB062093E5
:1016A000D600FF91EF919F918F913F912F910F90D5
:1016B0000BBE0F900FBE0F901F9018951F920F92A8
:1016C0000FB60F920BB60F9211242F933F938F9367
:1016D0009F93EF93FF932091710730917207809150
:1016E0007307909174072817390731F480913101FD
:1016F0008F7D8093310114C0E0917307F0917407DE
:10170000EF5CF84F208180917307909174070196E8
:101710008F739070909374078093730720933601B2
:10172000FF91EF919F918F913F912F910F900BBE61
:101730000F900FBE0F901F901895AF92BF92DF923F
:10174000EF92FF920F931F93CF93DF93EC017A01F7
:101750008B01DD24403081EE580780E0680780E08F
:10176000780711F0DD24D39491E0A92EB12CEC89F7
:10177000FD89DD2069F0C50108A002C0880F991F0E
:101780000A94E2F7808360E079E08DE390E005C0A1
:10179000108260E874E88EE190E0A8019701B3D66A
:1017A00021503040404050405695479537952795F9
:1017B00080E12030380720F0DD2011F0DD24D7CF84
:1017C000E889F9893083EA89FB89208319A2EE89A7
:1017D000FF89408121E030E0C9010C8C02C0880FF4
:1017E000991F0A94E2F7482B4083EE89FF894081D4
:1017F000C9010D8C02C0880F991F0A94E2F7482B8B
:101800004083EE89FF894081C9010E8C02C0880F98
:10181000991F0A94E2F7482B4083EE89FF89808163
:101820000F8C02C0220F331F0A94E2F72095282361
:101830002083DF91CF911F910F91FF90EF90DF9068
:10184000BF90AF900895DC011C96ED91FC911D971F
:10185000E05CFF4F2191319180819181281B390BF0
:101860002F733070C9010895DC011C96ED91FC9135
:101870001D97E05CFF4F20813181E054F040DF0193
:10188000AE5BBF4F8D919C9111972817390719F4C2
:101890002FEF3FEF07C08D919C91E80FF91F8081DA
:1018A000282F30E0C9010895DC011C96ED91FC91D0
:1018B0001D97E05CFF4F20813181E054F040DF0153
:1018C000AE5BBF4F8D919C9111972817390719F482
:1018D0002FEF3FEF10C08D919C911197E80FF91FEA
:1018E00020818D919C91119701968F739070119624
:1018F0009C938E9330E0C9010895DC0191968C9100
:101900009197882339F05496ED91FC9155978081F9
:1019100086FFF9CF91961C920895CF93DF93EC0147
:10192000EE85FF85E05CFF4F20813181E054F0407F
:101930002F5F3F4F2F733070DF01AE5BBF4F8D9134
:101940009C91119728173907D1F3E05CFF4F8081F4
:101950009181E054F040E80FF91F6083EE85FF8528
:10196000E05CFF4F31832083EE89FF89208181E095
:1019700090E00F8C02C0880F991F0A94E2F7282B81
:10198000208381E089A3EC89FD8980818064808344
:1019900081E090E0DF91CF9108951F931092780736
:1019A0001092770728EE33E040E050E0209379076B
:1019B00030937A0740937B0750937C0762E174E091
:1019C000709376076093750785E595E0909382079D
:1019D0008093810789E995E090938407809383073A
:1019E00085EC90E0909386078093850784EC90E0E7
:1019F000909388078093870780EC90E090938A0704
:101A00008093890781EC90E090938C0780938B07FB
:101A100082EC90E090938E0780938D0786EC90E0A7
:101A20009093900780938F0714E010939107B3E091
:101A3000B0939207A7E0A0939307F5E0F093940783
:101A4000E1E0E093950710929A071092990720938E
:101A50009B0730939C0740939D0750939E0770937C
:101A60009807609397078DED95E09093A407809376
:101A7000A30781E296E09093A6078093A5078DECDB
:101A800090E09093A8078093A7078CEC90E0909348
:101A9000AA078093A90788EC90E09093AC07809305
:101AA000AB0789EC90E09093AE078093AD078AEC8A
:101AB00090E09093B0078093AF078EEC90E0909306
:101AC000B2078093B1071093B307B093B407A09304
:101AD000B507F093B607E093B7071092BC071092D2
:101AE000BB072093BD073093BE074093BF075093B9
:101AF000C0077093BA076093B90785E696E09093A4
:101B0000C6078093C50789EA96E09093C80780933B
:101B1000C70785ED90E09093CA078093C90784EDCD
:101B200090E09093CC078093CB0780ED90E090936A
:101B3000CE078093CD0781ED90E09093D0078093FE
:101B4000CF0782ED90E09093D2078093D10786ED86
:101B500090E09093D4078093D3071093D507B09368
:101B6000D607A093D707F093D807E093D907109230
:101B7000DE071092DD072093DF073093E0074093E4
:101B8000E1075093E2077093DC076093DB078DEE6B
:101B900096E09093E8078093E70781E397E09093BE
:101BA000EA078093E90785E391E09093EC0780933F
:101BB000EB0784E391E09093EE078093ED0780E3D9
:101BC00091E09093F0078093EF0781E391E0909389
:101BD000F2078093F10782E391E09093F4078093FA
:101BE000F30786E391E09093F6078093F50710934F
:101BF000F707B093F807A093F907F093FA07E0937B
:101C0000FB071F910895CF92DF92EF92FF920F93FF
:101C10001F93CF93DF937C016B018A01C0E0D0E07A
:101C20000FC0D6016D916D01D701ED91FC9101902E
:101C3000F081E02DC7011995C80FD91F0150104040
:101C40000115110571F7CE01DF91CF911F910F9111
:101C5000FF90EF90DF90CF900895EF92FF920F9357
:101C60001F938C01DC01ED91FC910190F081E02D3E
:101C70006DE019957C01D801ED91FC910190F08106
:101C8000E02DC8016AE019959C012E0D3F1DC90188
:101C90001F910F91FF90EF900895CF93DF93EC0188
:101CA0006115710519F420E030E00FC0DB010D90E3
:101CB0000020E9F71197A61BB70BE881F981028094
:101CC000F381E02DAD0119959C01C901DF91CF9100
:101CD00008954F925F927F928F929F92AF92BF92A0
:101CE000CF92DF92EF92FF920F931F93DF93CF93E8
:101CF000CDB7DEB7A1970FB6F894DEBF0FBECDBF4C
:101D00002C01742ECB01223008F42AE019A231E212
:101D1000C32ED12CCC0EDD1E822E9924AA24BB24E6
:101D2000672D752FA5019401EED379018A01C801B1
:101D3000B701A5019401C8D3472D461B0894C108DB
:101D4000D1084A3014F4405D01C0495CF60140837B
:101D5000E114F1040105110521F07E2C5F2DC8016D
:101D6000DFCFC201B60199DFA1960FB6F894DEBFAE
:101D70000FBECDBFCF91DF911F910F91FF90EF90DC
:101D8000DF90CF90BF90AF909F908F907F905F90AB
:101D90004F900895DC012115310541F4ED91FC913E
:101DA0000190F081E02D642F1995089592CFCF9284
:101DB000DF92EF92FF920F931F936C017B019A01C8
:101DC00000E010E0B801A701E5DF8C01C60145DFA6
:101DD000080F191FC8011F910F91FF90EF90DF901E
:101DE000CF900895CF92DF92EF92FF920F931F93BF
:101DF000CF93DF93EC016A017B012115310541F49A
:101E0000E881F9810190F081E02D642F19951DC0C2
:101E10002A303105C9F477FF16C0E881F9810190B5
:101E2000F081E02D6DE219958C0144275527BA0108
:101E30004C195D096E097F09CE012AE04ADF98013D
:101E4000280F391F03C02AE044DF9C01C901DF913C
:101E5000CF911F910F91FF90EF90DF90CF90089559
:101E6000EF92FF920F931F937B019A010027F7FCDB
:101E70000095102FB801A701B5DF1F910F91FF90BA
:101E8000EF900895CF92DF92EF92FF920F931F93FE
:101E90006C017B019A010027F7FC0095102FB80117
:101EA000A701A0DF8C01C601D8DE080F191FC801E9
:101EB0001F910F91FF90EF90DF90CF900895EDCE9E
:101EC00008957F928F929F92AF92BF92CF92DF92AE
:101ED000EF92FF920F931F93CF93DF934C017A0100
:101EE0008B01722ECB01BA01A8019701E9D2882398
:101EF00021F0C4016CEF73E01FC0C0E0D0E05701D7
:101F00006801E894D7F8C601B5012FEF3FEF4FE71E
:101F10005FE7D6D2882349F4C601B5012FEF3FEF22
:101F20004FE75FE717D1181614F0C1E0D0E0219712
:101F300031F0C40160E074E0B0DEEC0184C0C8019F
:101F4000B7012FEF3FEF4FE75FE453D218164CF085
:101F5000C801B7012FEF3FEF4FE75FECFBD08823BD
:101F600024F4C40164E074E0E7CFC801B70120E0C5
:101F700030E040E050E0EED087FD03C0C0E0D0E0AC
:101F80000EC0D401ED91FC910190F081E02DC401CF
:101F90006DE21995EC0117FB109517F9109520E0EB
:101FA00030E040E05FE3DD240AC0CA01B90120E06F
:101FB00030E040E251E4D2D09B01AC01D394D7147D
:101FC000A0F3C801B70162D05B016C0134D17B0181
:101FD0008C01C401B801A7012AE030E0DBDEC80FA4
:101FE000D91F772031F0C40168E074E056DEC80FD5
:101FF000D91FC801B7014BD19B01AC01C601B50186
:1020000044D01FC020E030E040E251E4F6D17B0133
:102010008C010CD15B016C01CC24B7FCC094DC2C8E
:10202000C401B601A5012AE030E0DCDEC80FD91FEB
:10203000C601B5012ED19B01AC01C801B70125D065
:102040007A947720F9F6CE01DF91CF911F910F910D
:10205000FF90EF90DF90CF90BF90AF909F908F90C8
:102060007F9008952ECF0895EF92FF920F931F93C4
:102070007C0113DE8C01C701F0DD080F191FC801B8
:102080001F910F91FF90EF9008955058BB27AA27FA
:102090000ED075C166D130F06BD120F031F49F3F86
:1020A00011F41EF45BC10EF4E095E7FB51C1E92F7A
:1020B00077D180F3BA17620773078407950718F082
:1020C00071F49EF58FC10EF4E0950B2EBA2FA02D62
:1020D0000B01B90190010C01CA01A0011124FF27D5
:1020E000591B99F0593F50F4503E68F11A16F040D0
:1020F000A22F232F342F4427585FF3CF46953795CF
:102100002795A795F0405395C9F77EF41F16BA0B93
:10211000620B730B840BBAF09150A1F0FF0FBB1F41
:10212000661F771F881FC2F70EC0BA0F621F731F8A
:10213000841F48F4879577956795B795F7959E3FE7
:1021400008F0B3CF9395880F08F09927EE0F979575
:1021500087950895D9D008F481E008950CD00FC177
:1021600007D140F0FED030F021F45F3F19F0F0C00D
:10217000511139C1F3C014D198F39923C9F35523F0
:10218000B1F3951B550BBB27AA276217730784076A
:1021900038F09F5F5F4F220F331F441FAA1FA9F320
:1021A00033D00E2E3AF0E0E830D091505040E69512
:1021B000001CCAF729D0FE2F27D0660F771F881F73
:1021C000BB1F261737074807AB07B0E809F0BB0B62
:1021D000802DBF01FF2793585F4F2AF09E3F510586
:1021E00068F0B6C000C15F3FECF3983EDCF3869523
:1021F00077956795B795F7959F5FC9F7880F911DFC
:102200009695879597F90895E1E0660F771F881FE7
:10221000BB1F621773078407BA0720F0621B730B9A
:10222000840BBA0BEE1F88F7E095089504D06894EC
:10223000B111D9C00895BCD088F09F5790F0B92F44
:102240009927B751A0F0D1F0660F771F881F991F0B
:102250001AF0BA95C9F712C0B13081F0C3D0B1E01D
:102260000895C0C0672F782F8827B85F39F0B93F2D
:10227000CCF3869577956795B395D9F73EF490950D
:102280008095709561957F4F8F4F9F4F0895E8948B
:1022900009C097FB3EF490958095709561957F4FAE
:1022A0008F4F9F4F9923A9F0F92F96E9BB2793955C
:1022B000F695879577956795B795F111F8CFFAF46C
:1022C000BB0F11F460FF1BC06F5F7F4F8F4F9F4F9D
:1022D00016C0882311F096E911C0772321F09EE8FB
:1022E000872F762F05C0662371F096E8862F70E061
:1022F00060E02AF09A95660F771F881FDAF7880F3B
:102300009695879597F90895990F0008550FAA0B90
:10231000E0E8FEEF16161706E807F907C0F01216F8
:102320001306E407F50798F0621B730B840B950BFB
:1023300039F40A2661F0232B242B252B21F4089550
:102340000A2609F4A140A6958FEF811D811D0895ED
:1023500097F99F6780E870E060E008959FEF80EC58
:10236000089500240A9416161706180609060895FB
:1023700000240A9412161306140605060895092E61
:102380000394000C11F4882352F0BB0F40F4BF2BD0
:1023900011F460FF04C06F5F7F4F8F4F9F4F089510
:1023A00057FD9058440F551F59F05F3F71F0479506
:1023B000880F97FB991F61F09F3F79F087950895EB
:1023C000121613061406551FF2CF4695F1DF08C00A
:1023D000161617061806991FF1CF86957105610527
:1023E00008940895E894BB2766277727CB0197F9CF
:1023F00008958ADF08F48FEF08950BD0C0CFB1DFC6
:1024000028F0B6DF18F0952309F0A2CFA7CF11244A
:10241000EACFC6DFA0F3959FD1F3950F50E0551F8B
:10242000629FF001729FBB27F00DB11D639FAA2729
:10243000F00DB11DAA1F649F6627B00DA11D661F78
:10244000829F2227B00DA11D621F739FB00DA11D99
:10245000621F839FA00D611D221F749F3327A00D53
:10246000611D231F849F600D211D822F762F6A2FEF
:1024700011249F5750408AF0E1F088234AF0EE0F74
:10248000FF1FBB1F661F771F881F91505040A9F781
:102490009E3F510570F05CCFA6CF5F3FECF3983EB6
:1024A000DCF3869577956795B795F795E7959F5FE8
:1024B000C1F7FE2B880F911D9695879597F9089582
:1024C00023DF880B990B0895629FD001739FF00161
:1024D000829FE00DF11D649FE00DF11D929FF00DB4
:1024E000839FF00D749FF00D659FF00D9927729FEB
:1024F000B00DE11DF91F639FB00DE11DF91FBD0176
:10250000CF0111240895A1E21A2EAA1BBB1BFD01C5
:102510000DC0AA1FBB1FEE1FFF1FA217B307E407C2
:10252000F50720F0A21BB30BE40BF50B661F771F1A
:10253000881F991F1A9469F76095709580959095FA
:102540009B01AC01BD01CF010895EE0FFF1F059067
:0A255000F491E02D1994F894FFCFE8
:10255A00417373657274696F6E206661696C656434
:10256A0020696E2066696C6520636F64652F52541A
:10257A004F532F67736C5F73797374656D4C6F611A
:10258A00642E632C206C696E65200041737365723A
:10259A0074696F6E206661696C656420696E206675
:1025AA00696C6520636F64652F52544F532F7274A0
:1025BA006F732E632C206C696E6520000A52547565
:1025CA00696E4F5320312E3020666F72204172643B
:1025DA0075696E6F20312E302E350A436F7079720D
:1025EA00696768742028432920323031322D32300D
:1025FA003133205065746572205672616E6B656E58
:10260A0020286D61696C746F3A50657465725F5603
:10261A0072616E6B656E405961686F6F2E646529D1
:10262A000A54686973206973206672656520736F3E
:10263A006674776172653B207365652074686520EE
:10264A00736F7572636520666F7220636F70796944
:10265A006E6720636F6E646974696F6E732E20549F
:10266A0068657265206973204E4F0A7761727261DC
:10267A006E74793B206E6F74206576656E20666F86
:10268A0072204D45524348414E544142494C4954A7
:10269A0059206F72204649544E45535320464F5293
:1026AA00204120504152544943554C4152205055E3
:1026BA0052504F53452E007461736B30315F636C17
:1026CA0061737330303A204163746976617465646A
:1026DA00206279203078007461736B30315F636CEB
:1026EA0061737330303A2072746F735F64656C6122
:1026FA00792E2E2E007461736B30315F636C6173B7
:10270A007330303A2052656C65617365642077696D
:10271A00746820007461736B30315F636C6173732A
:10272A0030303A2053757370656E64696E672E2E69
:10273A002E004379636C652074696D653A20002523
:10274A0000435055206C6F61643A20006E616E0040
:10275A00696E66006F7666002E00FF3B04C80000B3
:0E276A0000008D0C030E230C540C340C7D0C5F
:00000001FF
