:1000000002C100002CC100002AC1000028C100006C
:1000100026C1000024C1000022C1000020C1000050
:100020001EC100001CC100001AC1000018C1000060
:1000300016C1000014C1000012C100000C94220877
:100040000EC100000CC100000AC1000008C1000080
:1000500006C1000004C1000002C100000C94F20AB5
:10006000FEC000000C944C0D0C94480EF8C000002B
:10007000F6C00000F4C00000F2C00000F0C00000B4
:10008000EEC00000ECC00000EAC00000E8C00000C4
:100090000C948B0D0C94870EE2C00000E0C00000B1
:1000A000DEC00000DCC00000DAC00000D8C00000E4
:1000B000D6C00000D4C00000D2C00000D0C00000F4
:1000C000CEC00000CCC00000CAC000000C94CA0D15
:1000D0000C94C60EC4C000000C94090E0C94050FBD
:1000E000BEC0000000002100240027002A002D00CF
:1000F0003000330001010000040107010A01000083
:100100002200250028002B002E00310034000201BF
:100110000000050108010B0100002000230026005B
:1001200029002C002F00320000010000030106010D
:10013000090105050505070508080808020202026D
:100140000A0A080804040404010101010101010173
:100150000303030303030303040707070C0C0C0C3E
:100160000C0C0C0C02020202060606060606060627
:100170000B0B0B0B0B0B0B0B0102102020080810B4
:100180002040102040800201020108040201010207
:1001900004081020408080402010080402018004E0
:1001A000020180402010080402010804020101023B
:1001B0000408102040800102040810204080000044
:1001C000090A02080B0C0D070603040100000000D9
:1001D000000000000000000000000000000000001F
:1001E0000000000000000000000011100F000000DF
:1001F00000000000000000000000000000000000FF
:1002000000000000741011241FBECFEFD1E2DEBF4A
:10021000CDBF00E00CBF14E0A0E0B2E0EAE8FAE2F3
:1002200000E00BBF02C007900D92A436B107D9F7CA
:100230001BBE1AE0A4E6B4E001C01D92A537B107C9
:10024000E1F712E0C6E0D2E004C02297FE010E946E
:100250003F15C430D107C9F7ADD00C944315D0CEAB
:100260004F925F926F927F929F92AF92BF92CF9286
:10027000DF92EF92FF920F931F93DF93CF9300D003
:100280000F92CDB7DEB70E943A0B2B013C0138EE3E
:10029000E32E33E0F32E012D112DE60EF71E081F7D
:1002A000191F9924939486E79EE30E94C70B0E942E
:1002B0003A0B5B016C016E157F058007910790F387
:1002C0008FE3891508F441C086017501E418F5082B
:1002D00006091709892D90E082959295907F9827BD
:1002E000807F98275C01CC24DD24C601B50128EC71
:1002F00030E040E050E00E94FC14E616F7060807E4
:10030000190708F5AE14BF04C006D106D0F4A80141
:1003100097010E941B1588EC821B0F900F900F9085
:100320000F90CF91DF911F910F91FF90EF90DF9091
:10033000CF90BF90AF909F907F906F905F904F90C5
:10034000089580E0EACF88ECE8CF789480E090E0F0
:10035000A0E4B0E089839A83AB83BC838DEE99E0FF
:1003600060E072E00E9422138DEE99E06EE770E08B
:100370004AE050E00E94051389819A81AB81BC81DB
:100380000097A105B10599F089819A81AB81BC8163
:100390000197A109B10989839A83AB83BC838981C1
:1003A0009A81AB81BC810097A105B10569F70C94D6
:1003B00000008ACF0E94D10B67D380E090E00895BF
:1003C000E0E7F0E08081816080830895662371F426
:1003D00090E0FC01E295F295F07FFE27E07FFE279A
:1003E000E80FF91FE658FB4F8089089590E0F894D4
:1003F000FC01E295F295F07FFE27E07FFE27E80FF3
:10040000F91FE658FB4F8089108A78940895EF927F
:10041000FF920F931F93DF93CF9300D00F92CDB72E
:10042000DEB77C018070907C892B09F0B2C01091FE
:100430006E04A0E000E0011708F052C0E02FF0E0E9
:10044000EE0FFF1FE859FB4F60817181FB0183852F
:10045000948545855685970124233523282B392BF0
:10046000348723878217930709F44DC08785882333
:1004700009F047C0C901842795279F73892B31F064
:100480004070507C42235323452BE9F1DB01129647
:10049000EC91F0E0DF01A159BB4F8C91E80FF11D09
:1004A000EE0FFF1FEE58FB4F718360838F5F8C93BD
:1004B0001150011788F4202FE22FF0E0EE0FFF1FFC
:1004C000DF01A659BB4F8D919C91E859FB4F918359
:1004D00080832F5F211780F3A1E0011708F4AECFCE
:1004E00010936E04AA2389F440E0842F0F900F909C
:1004F0000F900F90CF91DF911F910F91FF90EF9090
:100500000895232B19F60F5F96CF809171048823ED
:1005100009F074C080917004882309F08AC080912A
:100520006F04882309F088C0789480E090E0A0E40C
:10053000B0E089839A83AB83BC838DEE99E06BE353
:1005400072E00E9422138DEE99E06EEC72E04AE0B8
:1005500050E00E94051389819A81AB81BC8100978C
:10056000A105B10599F089819A81AB81BC81019780
:10057000A109B10989839A83AB83BC8389819A815C
:10058000AB81BC810097A105B10569F70C9400000F
:10059000ABCF789480E090E0A0E4B0E089839A83C8
:1005A000AB83BC838DEE99E06BE372E00E94221373
:1005B0008DEE99E06EEC73E04AE050E00E94051386
:1005C00089819A81AB81BC810097A105B10599F021
:1005D00089819A81AB81BC810197A109B109898385
:1005E0009A83AB83BC8389819A81AB81BC8100975C
:1005F000A105B10569F70C94000019CFE2E0F0E025
:100600002091400430914104309379042093780480
:10061000EE0FFF1FEE58FB4F8081918190934104B4
:100620008093400440E02817390749F081E04827CB
:100630005CCFE1E0F0E0E4CFE0E0F0E0E1CF41E0EA
:10064000F5CFF8940F920FB60F921F922F923F9210
:100650004F925F926F927F928F929F92AF92BF92D2
:10066000CF92DF92EF92FF920F931F932F933F93BE
:100670004F935F936F937F93AF93BF93CF93DF932A
:10068000EF93FF938F939F93C2DE882309F435C0C5
:10069000A0914004B09141048D919C911197909349
:1006A0006704809366040DB6009264040EB600924F
:1006B0006504009066040DBE009067040EBE809134
:1006C000640490916504E0917804F0917904918339
:1006D00080831B968D919C911C97009771F090934D
:1006E0006704809366041C961C921E921B970090D0
:1006F00066040F92009067040F929F918F91FF9173
:10070000EF91DF91CF91BF91AF917F916F915F9109
:100710004F913F912F911F910F91FF90EF90DF909C
:10072000CF90BF90AF909F908F907F906F905F9091
:100730004F903F902F901F900F900FBE0F901895E5
:10074000CF92DF92EF92FF920F931F93DF93CF939D
:1007500000D00F92CDB7DEB77C01C62ED42E00910B
:1007600040041091410424E00D3A120709F4C4C07A
:10077000F8018281682F70E0FB01E159FB4F808115
:10078000815080838823D9F0E0E0F0E021E030E080
:10079000482F50E04F5F5F4FE60FF71FEE0FFF1F30
:1007A000DF01AC58BB4F8D919C91EE58FB4F91836C
:1007B0008083F9012F5F3F4F2417350769F7E11454
:1007C000F10461F0C7018070907C8050904C31F052
:1007D000CC20C1F1C7019F73892BA1F5789480E0EB
:1007E00090E0A0E4B0E089839A83AB83BC838DEE74
:1007F00099E06BE372E00E9422138DEE99E060E4D1
:1008000075E04AE050E00E94051389819A81AB812E
:10081000BC810097A105B10599F089819A81AB81CE
:10082000BC810197A109B10989839A83AB83BC83F9
:1008300089819A81AB81BC810097A105B10569F7D7
:100840000C940000F6FE49C0F80185818D0D85836A
:1008500090913F04891B18160CF045C0F801F686EC
:10086000E5861786CC2011F481E0878780916E049D
:10087000E82FF0E0EE0FFF1FE859FB4F11830083D4
:100880008F5F80936E048091400490914104909317
:100890007904809378048DEA94E0909341048093E6
:1008A000400480917104882309F05FC08091700436
:1008B000882309F067C080916F04882309F065C020
:1008C0000F900F900F900F90CF91DF911F910F918C
:1008D000FF90EF90DF90CF900895FFEFDF12D39459
:1008E000F801D286BBCF80898F3F11F08F5F808B5C
:1008F0009F5FF8019583B2CF789480E090E0A0E408
:10090000B0E089839A83AB83BC838DEE99E06BE37F
:1009100072E00E9422138DEE99E066EE75E04AE0E7
:1009200050E00E94051389819A81AB81BC810097B8
:10093000A105B10599F089819A81AB81BC810197AC
:10094000A109B10989839A83AB83BC8389819A8188
:10095000AB81BC810097A105B10569F70C9400003B
:10096000009140041091410403CFE2E0F0E0EE0F6B
:10097000FF1FEE58FB4F808191819093410480933B
:1009800040049ECFE1E0F0E0F2CFE0E0F0E0EFCF16
:10099000F8940F920FB60F921F922F923F924F92A0
:1009A0005F926F927F928F929F92AF92BF92CF92FF
:1009B000DF92EF92FF920F931F932F933F934F93EA
:1009C0005F936F937F93AF93BF93CF93DF93EF9337
:1009D000FF93B6DEA0914004B09141048D919C91AB
:1009E000119790936704809366040DB60092640497
:1009F0000EB600926504009066040DBE0090670478
:100A00000EBE8091640490916504E0917804F091A9
:100A10007904918380831B968D919C911C970097FC
:100A200071F090936704809366041C961C921E924A
:100A30001B97009066040F92009067040F929F919D
:100A40008F91FF91EF91DF91CF91BF91AF917F9106
:100A50006F915F914F913F912F911F910F91FF9057
:100A6000EF90DF90CF90BF90AF909F908F907F904E
:100A70006F905F904F903F902F901F900F900FBE00
:100A80000F90189580E090E06F927F928F929F92E6
:100A9000AF92BF92CF92DF92EF92FF920F931F938C
:100AA000DF93CF9300D00F92CDB7DEB70AE714E003
:100AB00084E4D8011D928A95E9F74DD348E6C42E07
:100AC00044E0D42EEE24FF24812C912C30E4A32E7C
:100AD000B12C20E8722E99E2692EF801838194816D
:100AE000009761F0668177816115710539F00084A6
:100AF000F185E02DE233F10508F03DC0789489825C
:100B00009A82AB82BC828DEE99E06BE372E00E9428
:100B100022138DEE99E06AED77E04AE050E00E9402
:100B2000051389819A81AB81BC810097A105B1052C
:100B300099F089819A81AB81BC810197A109B109A2
:100B400089839A83AB83BC8389819A81AB81BC8181
:100B50000097A105B10569F70C940000D80116961D
:100B60006D917C9117971896ED91FC9119971396BA
:100B70008D919C9114973197E60FF71F1082DF013A
:100B80001E921E928E939C01442737FD4095542F50
:100B90003E93252F3327442755272E931E927E926E
:100BA0001E92CD010197DC017F971C921197AE1721
:100BB000BF07D9F74697FC011082DC011E92FD01A8
:100BC0001292DF011E92FD011292DF011E92119717
:100BD000A617B70730F0FD0160823197E617F707D7
:100BE000D8F7F801B183A08314861386108AC70151
:100BF00082959295907F9827807F98278E0D9F1DD4
:100C000086589B4FD6018D939D936D010894E11CEE
:100C1000F11C0F5E1F4FB3E0EB16F10409F05DCF3E
:100C200083E080936E042DEA34E01092AE041092BB
:100C3000AD041092B2041092B7041092B90410924D
:100C4000B8041092BB041092BA0481E08093BC04F3
:100C50001092BD0410926F041092700410927104EF
:100C60003093410420934004309379042093780416
:100C7000A7DB67D2FECF8F929F92AF92BF92CF92A7
:100C8000DF92EF92FF920F931F93DF93CF9300D0E9
:100C90000F92CDB7DEB74701BC2CE82EFF246701C9
:100CA000C294D29450EFD522DC24C522DC24F60174
:100CB000EE0DFF1DE658FB4F748363833783268355
:100CC0001187008742838114910409F479C0128648
:100CD0001582C4018070907C8050904C31F0BB2014
:100CE000C1F1C4019F73892BA1F5789480E090E055
:100CF000A0E4B0E089839A83AB83BC838DEE99E056
:100D00006BE372E00E9422138DEE99E060E475E0DF
:100D10004AE050E00E94051389819A81AB81BC8131
:100D20000097A105B10599F089819A81AB81BC81B9
:100D30000197A109B10989839A83AB83BC83898117
:100D40009A81AB81BC810097A105B10569F70C942C
:100D5000000096FE2BC0F601EE0DFF1DE658FB4F7E
:100D600085818A0D858390913F04891B18160CF0AC
:100D700063C0F601EE0DFF1DE658FB4F9686858693
:100D80001786BB2011F481E087870F900F900F909A
:100D90000F90CF91DF911F910F91FF90EF90DF9017
:100DA000CF90BF90AF909F908F9008952FEFA21299
:100DB000A394F601EE0DFF1DE658FB4FA286D9CF96
:100DC000789480E090E0A0E4B0E089839A83AB83DC
:100DD000BC838DEE99E06BE372E00E9422138DEEEE
:100DE00099E068E877E04AE050E00E9405138981C5
:100DF0009A81AB81BC810097A105B10599F08981E9
:100E00009A81AB81BC810197A109B10989839A8339
:100E1000AB83BC8389819A81AB81BC810097A1059A
:100E2000B10569F70C940000F601EE0DFF1DE658C0
:100E3000FB4F1286158259CF80898F3F11F08F5F4B
:100E4000808BF601EE0DFF1DE658FB4F9F5F9583EB
:100E500090CFFF920F931F93DF93CF9300D00F9209
:100E6000CDB7DEB7F0903F04F394F0923F041091B9
:100E70006E04A0E000E0011708F061C0E02FF0E090
:100E8000EE0FFF1FE859FB4F20813181F9014385A7
:100E90005485BA018581F81609F463C0F901828589
:100EA000882361F081508287882341F48585968567
:100EB00080709078482B592B5487438746175707E3
:100EC00009F44DC0F9018785882369F4F901658526
:100ED0007685CB01842795279F73892B31F0462394
:100EE00057234070507C452BD1F1D9011296EC91DB
:100EF000F0E0DF01A159BB4F8C91E80FF11DEE0F1F
:100F0000FF1FEE58FB4F318320838F5F8C9311506E
:100F1000011788F4202FE22FF0E0EE0FFF1FDF0112
:100F2000A659BB4F8D919C91E859FB4F91838083CB
:100F30002F5F211780F3A1E0011708F49FCF1093D2
:100F40006E04AA23C1F440E0842F0F900F900F90FD
:100F50000F90CF91DF911F910F91FF9008950F5F38
:100F60008ACF8585968580709074842B952B948785
:100F70008387AC0193CF80917104882309F03FC02F
:100F800080917004882309F055C080916F048823F4
:100F900009F053C0789480E090E0A0E4B0E0898349
:100FA0009A83AB83BC838DEE99E06BE372E00E9481
:100FB00022138DEE99E06EEC72E04AE050E00E9460
:100FC000051389819A81AB81BC810097A105B10588
:100FD00099F089819A81AB81BC810197A109B109FE
:100FE00089839A83AB83BC8389819A81AB81BC81DD
:100FF0000097A105B10569F70C940000A4CFE2E0C9
:10100000F0E0209140043091410430937904209322
:101010007804EE0FFF1FEE58FB4F80819181909373
:1010200041048093400440E02817390749F081E0EB
:1010300048278ACFE1E0F0E0E4CFE0E0F0E0E1CF64
:1010400041E0F5CF0F920FB60F921F922F923F9271
:101050004F925F926F927F928F929F92AF92BF92C8
:10106000CF92DF92EF92FF920F931F932F933F93B4
:101070004F935F936F937F93AF93BF93CF93DF9320
:10108000EF93FF938F939F931124E3DE882309F45A
:1010900035C0A0914004B09141048D919C9111976D
:1010A00090936704809366040DB6009264040EB6B4
:1010B00000926504009066040DBE009067040EBEA9
:1010C0008091640490916504E0917804F091790432
:1010D000918380831B968D919C911C97009771F052
:1010E00090936704809366041C961C921E921B9733
:1010F000009066040F92009067040F929F918F9169
:10110000FF91EF91DF91CF91BF91AF917F916F915F
:101110005F914F913F912F911F910F91FF90EF9011
:10112000DF90CF90BF90AF909F908F907F906F9007
:101130005F904F903F902F901F900F900FBE0F9099
:1011400018958ED8682F809342048DEE99E04AE07E
:1011500050E00C949912AF92CF92EF92FF920F93BE
:101160001F930DEE19E0C80140E855E260E070E021
:101170008BD6C8016CE672E00E94241380E06EEA10
:1011800079E041E024EC34E000E011E0E12CE0E81B
:10119000FE2ECC2455E0A52E6EDD81E064E579E0DD
:1011A00042E024EC35E09AE0A92E65DD82E065EEB0
:1011B00078E040E024EC36E0AA245DDD1F910F9139
:1011C000FF90EF90CF90AF900895EF92FF920F9322
:1011D0001F93DF93CF9300D00F92CDB7DEB78DEE84
:1011E00099E067E673E00E942413E12CF12CF0E40F
:1011F0000F2F112D08C080E090E460E044E6C8DBCA
:10120000892B09F446C080E490E01BDA8DEE99E06A
:1012100064E773E00E94241382E060E0D7D888235B
:1012200051F37894E982FA820B831C838DEE99E066
:101230006CE773E00E9422138DEE99E066EC70E09B
:101240004AE050E00E94051389819A81AB81BC81FC
:101250000097A105B10599F089819A81AB81BC8184
:101260000197A109B10989839A83AB83BC838981E2
:101270009A81AB81BC810097A105B10569F70C94F7
:10128000000080E090E460E044E682DB892B09F016
:10129000BACF0F900F900F900F90CF91DF911F91C9
:1012A0000F91FF90EF900895AF92BF92CF92EF927F
:1012B0000F93DF93CF93CDB7DEB765970FB6F89452
:1012C000DEBF0FBECDBF5E010894A11CB11CC501DD
:1012D0006CE04BE02AE009E0B8E0EB2EA7E0CA2E74
:1012E0000E94C414C50164E144E020E00E941D1482
:1012F000C5010E941714C50160E040E00E94E91397
:10130000C5016CEB73E00E9422138DEE99E06AEC4C
:1013100073E00E942413C5016DE040E00E94E913D0
:101320006091C2047091C304C5014AE050E00E947C
:10133000F31280E190E060E040E02ADB892B29F79E
:1013400065960FB6F894DEBF0FBECDBFCF91DF918B
:101350000F91EF90CF90BF90AF9008950F931F9390
:10136000CF93DF938C0186D18DEE99E06EEC73E024
:101370000E9422138DEE99E0B80140E150E00E94F6
:101380007E1200E010E01CC08DEE99E06BE074E08E
:101390000E9424138091C0049091C1049093C304CF
:1013A0008093C2048DEE99E06AE374E00E942413F6
:1013B000C091C204D091C304C017D10709F047C03F
:1013C0008DEE99E06EEE73E00E94241380E490E0CD
:1013D00060E040E0DDDA80E090E860E044EFD8DAF9
:1013E0008DEE99E062EF73E00E9424138DEE99E098
:1013F0006BEF73E00E9424138EEB94E062E070E0E8
:101400002BD0EC018DEE99E06DEF73E00E9422137A
:101410008FEFCF3FD80769F0209709F4B5CFCE5FA3
:10142000DF4F71F08DEE99E06CE274E00E942413BE
:10143000B1CF8DEE99E06EE074E00E942413AACF44
:101440008DEE99E06DE174E00E942413A3CF80E15A
:1014500090E0F7D88E01B4CF2F923F924F925F92D7
:101460007F928F929F92AF92BF92CF92DF92EF9234
:10147000FF920F931F93DF93CF9300D00F920F92A1
:10148000CDB7DEB72C01F62E19821A821B821C8280
:101490001D82862F61E0E7D18F2D60E097D262E157
:1014A00070E080E090E01AD18F2D61E08FD288E269
:1014B00090E06DD18F2D60E0D6D100E010E007C044
:1014C0000F5F1F4F87E20131180709F46CC08F2DA1
:1014D000AFD2892BA9F300E010E007C00F5F1F4FC8
:1014E000E7E201311E0709F45EC08F2DA1D20197FA
:1014F000A9F397E0E92E7724882499241E01089403
:10150000211C311C00E010E007C00F5F1F4FF7E205
:1015100001311F0709F447C08F2D8AD2892BA9F307
:10152000B7D05B016C0100E010E006C00F5F1F4FF9
:1015300087E201311807B9F18F2D7AD20197B1F303
:10154000A7D06A197B098C099D096932710581054B
:10155000910570F0F101E70DF11D21E030E00E2C56
:1015600002C0220F331F0A94E2F78081822B80830E
:10157000EE2099F5739487E0E82E0894811C911C65
:10158000E8E28E16910409F0BDCF8981F2018083D3
:1015900011829B8192831382980F8D818917F9F0B4
:1015A0002FEF3FEF02C02EEF3FEFC9010F900F90DA
:1015B0000F900F900F90CF91DF911F910F91FF909F
:1015C000EF90DF90CF90BF90AF909F908F907F90E3
:1015D0005F904F903F902F900895EA94CECF20E0F7
:1015E00030E0E3CF1F920F920FB60F9211242F938A
:1015F0003F938F939F93AF93BF938091C807909130
:10160000C907A091CA07B091CB073091CC070196CA
:10161000A11DB11D232F2D5F2D3720F02D570196D1
:10162000A11DB11D2093CC078093C8079093C907D3
:10163000A093CA07B093CB078091C4079091C507C8
:10164000A091C607B091C7070196A11DB11D809357
:10165000C4079093C507A093C607B093C707BF916F
:10166000AF919F918F913F912F910F900FBE0F904F
:101670001F9018958FB7F8942091C8073091C9072B
:101680004091CA075091CB078FBFB901CA01089595
:101690009FB7F8942091C4073091C5074091C607C1
:1016A0005091C70786B5A89B06C08F3F21F02F5FDA
:1016B0003F4F4F4F5F4F9FBF542F432F322F222753
:1016C000280F311D411D511D82E0220F331F441F81
:1016D000551F8A95D1F7B901CA0108959B01AC0144
:1016E0007FB7F8948091C4079091C507A091C60771
:1016F000B091C70766B5A89B05C06F3F19F001966A
:10170000A11DB11D7FBFBA2FA92F982F8827860F43
:10171000911DA11DB11D62E0880F991FAA1FBB1F5B
:101720006A95D1F7BC012DC0FFB7F8948091C4072A
:101730009091C507A091C607B091C707E6B5A89BD1
:1017400005C0EF3F19F00196A11DB11DFFBFBA2FD3
:10175000A92F982F88278E0F911DA11DB11DE2E0A2
:10176000880F991FAA1FBB1FEA95D1F7861B970BFD
:10177000885E9340C8F2215030404040504068514C
:101780007C4F211531054105510571F608950197EA
:1017900039F0880F991F880F991F02970197F1F769
:1017A0000895789484B5826084BD84B5816084BDD9
:1017B00085B5826085BD85B5816085BDEEE6F0E0CA
:1017C000808181608083E1E8F0E010828081826026
:1017D0008083808181608083E0E8F0E080818160A7
:1017E0008083E1EBF0E0808184608083E0EBF0E0D7
:1017F000808181608083E1E9F0E080818260808384
:10180000808181608083E0E9F0E080818160808375
:10181000E1EAF0E080818260808380818160808362
:10182000E0EAF0E0808181608083E1E2F1E08081A4
:1018300082608083808181608083E0E2F1E080814A
:1018400081608083EAE7F0E080818460808380812A
:1018500082608083808181608083808180688083D2
:101860001092C1000895CF93DF93482F50E0CA0132
:1018700088589E4FFC0134914E5C5E4FFA01849172
:10188000882369F190E0880F991FFC01EC51FF4F0C
:10189000A591B491FC01E250FF4FC591D49166230C
:1018A00051F42FB7F8948C91932F909589238C93B2
:1018B000888189230BC0623061F42FB7F8948C9132
:1018C000932F909589238C938881832B88832FBFB6
:1018D00006C09FB7F8948C91832B8C939FBFDF91A8
:1018E000CF910895893009F449C08A30A0F484303A
:1018F00051F1853040F4823079F1833000F5813048
:1019000009F063C026C0873079F1883098F58630B9
:1019100009F05BC025C08D3009F442C08E3028F438
:101920008B30B1F18C30C0F52DC0803109F442C04C
:10193000813109F445C08F3009F047C037C080912C
:1019400080008F7703C0809180008F7D809380001E
:10195000089584B58F7702C084B58F7D84BD0895C6
:101960008091B0008F7703C08091B0008F7D80930D
:10197000B0000895809190008F7707C0809190000B
:101980008F7D03C080919000877F809390000895A1
:101990008091A0008F7707C08091A0008F7D03C049
:1019A0008091A000877F8093A000089580912001FE
:1019B0008F7703C0809120018F7D8093200108954F
:1019C00080912001877F809320010895FF920F93DB
:1019D0001F93F62E482F50E0CA0182549E4FFC01FF
:1019E0002491CA0188589E4FFC0114914E5C5E4FB1
:1019F000FA0104910023C1F0222311F0822F72DF3B
:101A0000E02FF0E0EE0FFF1FE250FF4FA591B491E1
:101A10009FB7F894FF2021F48C911095812302C088
:101A20008C91812B8C939FBF1F910F91FF900895F4
:101A30000F931F93482F50E0CA0182549E4FFC0120
:101A40002491CA0188589E4FFC0104914E5C5E4F60
:101A5000FA011491112319F420E030E019C0222377
:101A600011F0822F3FDF812F90E0880F991F885E51
:101A70009E4FFC01A591B4918C91282F30E0802FCE
:101A800090E0282339232115310511F021E030E0C1
:101A9000C9011F910F9108951F920F920FB60F92D7
:101AA0000BB60F9211242F933F934F938F939F93D5
:101AB000EF93FF938091C00082FD1DC04091C6004E
:101AC00020910D0830910E082F5F3F4F2F7330701B
:101AD00080910F08909110082817390771F0E09154
:101AE0000D08F0910E08E353F84F408330930E0831
:101AF00020930D0802C08091C600FF91EF919F9145
:101B00008F914F913F912F910F900BBE0F900FBE71
:101B10000F901F9018951F920F920FB60F920BB651
:101B20000F9211242F933F934F938F939F93EF9393
:101B3000FF938091C80082FD1DC04091CE0020918E
:101B40009508309196082F5F3F4F2F73307080912A
:101B50009708909198082817390771F0E091950837
:101B6000F0919608EB5AF74F4083309396082093F4
:101B7000950802C08091CE00FF91EF919F918F91C7
:101B80004F913F912F910F900BBE0F900FBE0F9072
:101B90001F9018951F920F920FB60F920BB60F92CF
:101BA00011242F933F934F938F939F93EF93FF9322
:101BB0008091D00082FD1DC04091D60020911D096A
:101BC00030911E092F5F3F4F2F73307080911F0996
:101BD000909120092817390771F0E0911D09F091C3
:101BE0001E09E352F74F408330931E0920931D09CD
:101BF00002C08091D600FF91EF919F918F914F91FC
:101C00003F912F910F900BBE0F900FBE0F901F9022
:101C100018951F920F920FB60F920BB60F921124C8
:101C20002F933F934F938F939F93EF93FF938091C5
:101C3000300182FD1DC0409136012091A5093091EF
:101C4000A6092F5F3F4F2F7330708091A7099091A5
:101C5000A8092817390771F0E091A509F091A609A4
:101C6000EB59F64F40833093A6092093A50902C093
:101C700080913601FF91EF919F918F914F913F910C
:101C80002F910F900BBE0F900FBE0F901F901895C5
:101C90001F920F920FB60F920BB60F9211242F9333
:101CA0003F938F939F93EF93FF932091510830912F
:101CB000520880915308909154082817390731F43D
:101CC0008091C1008F7D8093C10014C0E0915308C2
:101CD000F0915408EF5EF74F208180915308909166
:101CE000540801968F739070909354088093530812
:101CF0002093C600FF91EF919F918F913F912F917B
:101D00000F900BBE0F900FBE0F901F9018951F9253
:101D10000F920FB60F920BB60F9211242F933F9391
:101D20008F939F93EF93FF932091D9083091DA0816
:101D30008091DB089091DC082817390731F48091F5
:101D4000C9008F7D8093C90014C0E091DB08F09139
:101D5000DC08E756F74F20818091DB089091DC0882
:101D600001968F7390709093DC088093DB0820932A
:101D7000CE00FF91EF919F918F913F912F910F9006
:101D80000BBE0F900FBE0F901F9018951F920F92D1
:101D90000FB60F920BB60F9211242F933F938F9390
:101DA0009F93EF93FF932091610930916209809195
:101DB0006309909164092817390731F48091D100A3
:101DC0008F7D8093D10014C0E0916309F091640984
:101DD000EF5DF64F2081809163099091640901962F
:101DE0008F73907090936409809363092093D60059
:101DF000FF91EF919F918F913F912F910F900BBE8B
:101E00000F900FBE0F901F9018951F920F920FB654
:101E10000F920BB60F9211242F933F938F939F93A2
:101E2000EF93FF932091E9093091EA098091EB0942
:101E30009091EC092817390731F4809131018F7D99
:101E40008093310114C0E091EB09F091EC09E75562
:101E5000F64F20818091EB099091EC0901968F73E8
:101E600090709093EC098093EB0920933601FF91D9
:101E7000EF919F918F913F912F910F900BBE0F90FB
:101E80000FBE0F901F901895AF92BF92DF92EF9206
:101E9000FF920F931F93CF93DF93EC017A018B0195
:101EA000DD24403081EE580780E0680780E0780745
:101EB00011F0DD24D39491E0A92EB12CEC89FD8999
:101EC000DD2069F0C50108A002C0880F991F0A949F
:101ED000E2F7808360E079E08DE390E005C0108256
:101EE00060E874E88EE190E0A8019701A4D5215044
:101EF000304040405040569547953795279580E1B2
:101F00002030380720F0DD2011F0DD24D7CFE8891C
:101F1000F9893083EA89FB89208319A2EE89FF8938
:101F2000408121E030E0C9010C8C02C0880F991F6C
:101F30000A94E2F7482B4083EE89FF894081C9016A
:101F40000D8C02C0880F991F0A94E2F7482B40833A
:101F5000EE89FF894081C9010E8C02C0880F991F4C
:101F60000A94E2F7482B4083EE89FF8980810F8C29
:101F700002C0220F331F0A94E2F720952823208302
:101F8000DF91CF911F910F91FF90EF90DF90BF9065
:101F9000AF900895DC011C96ED91FC911D97E05CDB
:101FA000FF4F2191319180819181281B390B2F7333
:101FB0003070C9010895DC011C96ED91FC911D97CC
:101FC000E05CFF4F20813181E054F040DF01AE5BE7
:101FD000BF4F8D919C9111972817390719F42FEF56
:101FE0003FEF07C08D919C91E80FF91F8081282F4A
:101FF00030E0C9010895DC011C96ED91FC911D971C
:10200000E05CFF4F20813181E054F040DF01AE5BA6
:10201000BF4F8D919C9111972817390719F42FEF15
:102020003FEF10C08D919C911197E80FF91F20810F
:102030008D919C91119701968F73907011969C933E
:102040008E9330E0C9010895DC0191968C919197AF
:10205000882339F05496ED91FC915597808186FF45
:10206000F9CF91961C920895CF93DF93EC01EE8502
:10207000FF85E05CFF4F20813181E054F0402F5F0D
:102080003F4F2F733070DF01AE5BBF4F8D919C913E
:10209000119728173907D1F3E05CFF4F80819181B8
:1020A000E054F040E80FF91F6083EE85FF85E05CA7
:1020B000FF4F31832083EE89FF89208181E090E00A
:1020C0000F8C02C0880F991F0A94E2F7282B2083F7
:1020D00081E089A3EC89FD8980818064808381E02F
:1020E00090E0DF91CF9108951F931092F009109224
:1020F000EF0928EE33E040E050E02093F1093093FF
:10210000F2094093F3095093F40967E474E0709383
:10211000EE096093ED098DEC97E09093FA098093B6
:10212000F90981E198E09093FC098093FB0985EC23
:1021300090E09093FE098093FD0984EC90E09093E9
:10214000000A8093FF0980EC90E09093020A80934C
:10215000010A81EC90E09093040A8093030A82ECD8
:1021600090E09093060A8093050A86EC90E09093A5
:10217000080A8093070A14E01093090AB3E0B093A9
:102180000A0AA7E0A0930B0AF5E0F0930C0AE1E03D
:10219000E0930D0A1092120A1092110A2093130A6A
:1021A0003093140A4093150A5093160A7093100A3C
:1021B00060930F0A85E598E090931C0A80931B0AB0
:1021C00089E998E090931E0A80931D0A8DEC90E0B7
:1021D0009093200A80931F0A8CEC90E09093220A3F
:1021E0008093210A88EC90E09093240A8093230A3C
:1021F00089EC90E09093260A8093250A8AEC90E07F
:102200009093280A8093270A8EEC90E090932A0AF4
:102210008093290A10932B0AB0932C0AA0932D0ABD
:10222000F0932E0AE0932F0A1092340A1092330A88
:102230002093350A3093360A4093370A5093380A70
:102240007093320A6093310A8DED98E090933E0AC4
:1022500080933D0A81E299E09093400A80933F0A7F
:1022600085ED90E09093420A8093410A84ED90E0DE
:102270009093440A8093430A80ED90E09093460A3D
:102280008093450A81ED90E09093480A8093470A35
:1022900082ED90E090934A0A8093490A86ED90E09F
:1022A00090934C0A80934B0A10934D0AB0934E0AB8
:1022B000A0934F0AF093500AE093510A1092560AE5
:1022C0001092550A2093570A3093580A4093590A9E
:1022D00050935A0A7093540A6093530A85E699E022
:1022E0009093600A80935F0A89EA99E09093620A6A
:1022F0008093610A85E391E09093640A8093630A76
:1023000084E391E09093660A8093650A80E391E00C
:102310009093680A8093670A81E391E090936A0A38
:102320008093690A82E391E090936C0A80936B0A30
:1023300086E391E090936E0A80936D0A10936F0A82
:10234000B093700AA093710AF093720AE093730A33
:102350001F910895CF92DF92EF92FF920F931F93F8
:10236000CF93DF937C016B018A01C0E0D0E00FC006
:10237000D6016D916D01D701ED91FC910190F08135
:10238000E02DC7011995C80FD91F01501040011544
:10239000110571F7CE01DF91CF911F910F91FF9041
:1023A000EF90DF90CF900895EF92FF920F931F93DD
:1023B0008C01DC01ED91FC910190F081E02D6DE04C
:1023C00019957C01D801ED91FC910190F081E02DEF
:1023D000C8016AE019959C012E0D3F1DC9011F918E
:1023E0000F91FF90EF900895CF93DF93EC0161156B
:1023F000710519F420E030E00FC0DB010D900020E2
:10240000E9F71197A61BB70BE881F9810280F381E8
:10241000E02DAD0119959C01C901DF91CF9108957F
:102420004F925F927F928F929F92AF92BF92CF9284
:10243000DF92EF92FF920F931F93DF93CF93CDB76D
:10244000DEB7A1970FB6F894DEBF0FBECDBF2C014B
:10245000742ECB01223008F42AE019A231E2C32EF7
:10246000D12CCC0EDD1E822E9924AA24BB24672DEC
:10247000752FA5019401DFD279018A01C801B70146
:10248000A5019401B9D2472D461B0894C108D10873
:102490004A3014F4405D01C0495CF6014083E11408
:1024A000F1040105110521F07E2C5F2DC801DFCF5D
:1024B000C201B60199DFA1960FB6F894DEBF0FBE38
:1024C000CDBFCF91DF911F910F91FF90EF90DF90E3
:1024D000CF90BF90AF909F908F907F905F904F90E4
:1024E0000895DC012115310541F4ED91FC91019035
:1024F000F081E02D642F1995089592CFCF92DF924D
:10250000EF92FF920F931F936C017B019A0100E001
:1025100010E0B801A701E5DF8C01C60145DF080F17
:10252000191FC8011F910F91FF90EF90DF90CF907E
:102530000895CF92DF92EF92FF920F931F936C0159
:10254000E62E9A01FF2400E010E0B801A701C9DFE0
:102550008C01C60129DF080F191FC8011F910F91B7
:10256000FF90EF90DF90CF900895CF92DF92EF929F
:10257000FF920F931F93CF93DF93EC016A017B01CE
:102580002115310541F4E881F9810190F081E02DB8
:10259000642F19951DC02A303105C9F477FF16C084
:1025A000E881F9810190F081E02D6DE219958C01AF
:1025B00044275527BA014C195D096E097F09CE01E0
:1025C0002AE02EDF9801280F391F03C02AE028DFF8
:1025D0009C01C901DF91CF911F910F91FF90EF9066
:1025E000DF90CF900895EF92FF920F931F937B019E
:1025F0009A010027F7FC0095102FB801A701B5DF5D
:102600001F910F91FF90EF900895CF92DF92EF927C
:10261000FF920F931F936C017B019A010027F7FC37
:102620000095102FB801A701A0DF8C01C601BCDE08
:10263000080F191FC8011F910F91FF90EF90DF90B5
:10264000CF900895D1CE0895EF92FF920F931F93EC
:102650007C01CADE8C01C701A7DE080F191FC80163
:102660001F910F91FF90EF9008950F931F938C018E
:10267000FC01868160E0AAD981E090E088D8F80169
:10268000868161E0A3D981E090E081D8F80186815C
:1026900060E09CD984E690E07AD81F910F9108956C
:1026A000CF92DF92EF92FF920F931F93CF93DF931E
:1026B000D82EC92E282F392FC9018C01C0E0D0E0B7
:1026C000E62EFF24F801878161E0CDD8B7010C2EFA
:1026D00002C0759567950A94E2F76170F8018781E9
:1026E00075D921960F5F1F4FC830D10559F78D2D31
:1026F0009C2DBBDFDF91CF911F910F91FF90EF9049
:10270000DF90CF900895CF92DF92EF92FF920F93D8
:102710001F93CF93DF93D82EC92E282F392FC901AD
:102720008C01C0E0D0E0E62EFF24F801878161E053
:102730009AD8B7010C2E02C0759567950A94E2F7F6
:102740006170F801878142D921960F5F1F4FC43015
:10275000D10559F78D2D9C2D88DFDF91CF911F91E9
:102760000F91FF90EF90DF90CF9008951F93CF933C
:10277000DF93EC01162F8C81642F28D98D818F3F38
:1027800011F060E023D98F8584FF04C0CE01612F52
:1027900087DF0CC0612F70E084E0759567958A959E
:1027A000E1F7CE01B0DFCE01612FADDFDF91CF9138
:1027B0001F91089541E0DADF81E090E0089540E064
:1027C000D5CFFC016089862F8460808B6C60CF013F
:1027D000F6CFDF93CF93CDB7DEB728970FB6F89437
:1027E000DEBF0FBECDBF9C01FE013196ABE5B4E06C
:1027F00088E00D9001928150E1F7F9018389481733
:1028000010F0482F4150E42FF0E0EE0FFF1FEC0FC7
:10281000FD1F8181680F6068C901D1DF28960FB65E
:10282000F894DEBF0FBECDBFCF91DF91089561E078
:10283000C6DF80ED97E00C94C70BCF93DF93EC01DC
:10284000423018F08F8588608F874B8B1C8A22233B
:1028500029F0413019F48F8584608F8780E593ECEF
:102860000E94C70B8C8160E0B1D88E8160E0AED849
:102870008D818F3F11F060E0A9D86F8564FD19C08C
:10288000CE0163E040DF84E991E10E94C70BCE01F5
:1028900063E039DF84E991E10E94C70BCE0163E078
:1028A00032DF86E990E00E94C70BCE0162E02BDFA9
:1028B00013C06062CE0183DF84E991E10E94C70BFF
:1028C0006F856062CE017BDF86E990E00E94C70BD6
:1028D0006F856062CE0173DF6F856062CE016FDF4E
:1028E00084E0888BCE016DDFCE01A1DF82E0898B91
:1028F000CE0166E064DFDF91CF9108956F927F9201
:102900008F92AF92CF92EF920F931F93DF93CF935B
:10291000CDB7DEB73C01162F842FF3014483258306
:102920000683E782C086A18682869E8593879F85DF
:102930009487988995879989968761E00E94330CDE
:10294000F30185818F3F19F061E00E94330CF301A0
:10295000868161E00E94330C112319F0F301178680
:1029600003C080E1F3018787C30160E141E020E01B
:1029700064DFCF91DF911F910F91EF90CF90AF90D7
:102980008F907F906F9008958F92AF92CF92EF9239
:102990000F931F93CF93DF93DC01362F542F722FA9
:1029A000102FAE2C8C2C13961C921E92129787E53A
:1029B00094E011969C938E9300D00F92EDB7FEB7E2
:1029C0003196CDB7DEB71982118212821382CD0102
:1029D00061E0432F2FEF052FE72EC12E8FDF0F90E1
:1029E0000F900F900F90DF91CF911F910F91EF906B
:1029F000CF90AF908F900895629FD001739FF001A8
:102A0000829FE00DF11D649FE00DF11D929FF00D7E
:102A1000839FF00D749FF00D659FF00D9927729FB5
:102A2000B00DE11DF91F639FB00DE11DF91FBD0140
:102A3000CF0111240895A1E21A2EAA1BBB1BFD0190
:102A40000DC0AA1FBB1FEE1FFF1FA217B307E4078D
:102A5000F50720F0A21BB30BE40BF50B661F771FE5
:102A6000881F991F1A9469F76095709580959095C5
:102A70009B01AC01BD01CF010895EE0FFF1F059032
:0A2A8000F491E02D1994F894FFCFB3
:102A8A00417373657274696F6E206661696C6564FF
:102A9A0020696E2066696C6520636F64652F5254E5
:102AAA004F532F67736C5F73797374656D4C6F61E5
:102ABA00642E632C206C696E652000417373657205
:102ACA0074696F6E206661696C656420696E206640
:102ADA00696C6520636F64652F52544F532F72746B
:102AEA006F732E632C206C696E6520000A52547530
:102AFA00696E4F5320312E3020666F722041726406
:102B0A0075696E6F20312E302E350A436F707972D7
:102B1A00696768742028432920323031322D3230D7
:102B2A003133205065746572205672616E6B656E22
:102B3A0020286D61696C746F3A50657465725F56CE
:102B4A0072616E6B656E405961686F6F2E6465299C
:102B5A000A54686973206973206672656520736F09
:102B6A006674776172653B207365652074686520B9
:102B7A00736F7572636520666F7220636F7079690F
:102B8A006E6720636F6E646974696F6E732E20546A
:102B9A0068657265206973204E4F0A7761727261A7
:102BAA006E74793B206E6F74206576656E20666F51
:102BBA0072204D45524348414E544142494C495472
:102BCA0059206F72204649544E45535320464F525E
:102BDA00204120504152544943554C4152205055AE
:102BEA0052504F53452E00313A737420636F6E74FE
:102BFA00726F6C00636F6E74726F6C0041737365F1
:102C0A007274696F6E206661696C656420696E20F2
:102C1A0066696C6520636F64652F6170706C6963A7
:102C2A006174696F6E732F62746F6F6C2F62546F69
:102C3A006F6C2E632C206C696E65200054656D7074
:102C4A00657261747572653A20004C434400746180
:102C5A00736B30315F636C61737330303A20416358
:102C6A0074697661746564206279203078005072E4
:102C7A0065007072652074656D70000A00526561A6
:102C8A00642073656E736F723A20004F4B0043687D
:102C9A0065636B73756D206572726F720054696D2E
:102CAA0065206F7574206572726F7200556E6B6E57
:102CBA006F776E206572726F720074656D7000FFB7
:102CCA00AD04C8000000003410AA11CA0FFB0FDBC4
:102CDA000F241000000000DA13AA110000400014AB
:042CEA000054000092
:00000001FF
