:1000000043C100006DC100006BC1000069C1000068
:1000100067C1000065C1000063C1000061C100004C
:100020005FC100005DC100005BC1000059C100005C
:1000300057C1000055C1000053C10000A8C6000010
:100040004FC100004DC100004BC1000049C100007C
:1000500047C1000045C1000043C100000C948D0A57
:100060003FC100000C94E70C0C94E30D39C1000073
:1000700037C1000035C1000033C1000031C10000AC
:100080002FC100002DC100002BC1000029C10000BC
:100090000C94260D0C94220E23C1000021C10000F7
:1000A0001FC100001DC100001BC1000019C10000DC
:1000B00017C1000015C1000013C1000011C10000EC
:1000C0000FC100000DC100000BC100000C94650DB4
:1000D0000C94610E05C100000C94A40D0C94A00EAC
:1000E000FFC0000008000000BE922449123EABAAE7
:1000F000AA2ABECDCCCC4C3E00000080BEABAAAA42
:10010000AA3E00000000BF000000803F0000000089
:1001100000084178D3BB4387D1133D190E3CC3BDC2
:100120004282AD2B3E68EC8276BED98FE1A93E4C6F
:1001300080EFFFBE01C4FF7F3F00000000000763A7
:100140004236B79BD8A71A39685618AEBAAB558C49
:100150001D3CB7CC5763BD6DEDFD753EF617723192
:10016000BF000000803F00002100240027002A007B
:100170002D003000330001010000040107010A01D5
:1001800000002200250028002B002E003100340042
:1001900002010000050108010B01000020002300FE
:1001A000260029002C002F0032000001000003016E
:1001B00006010901050505050705080808080202EA
:1001C00002020A0A080804040404010101010101F1
:1001D00001010303030303030303040707070C0CD4
:1001E0000C0C0C0C0C0C020202020606060606069B
:1001F00006060B0B0B0B0B0B0B0B01021020200840
:100200000810204010204080020102010804020171
:1002100001020408102040808040201008040201E0
:100220008004020180402010080402010804020139
:1002300001020408102040800102040810204080C0
:100240000000090A02080B0C0D0706030401000058
:10025000000000000000000000000000000000009E
:1002600000000000000000000000000011100F005E
:10027000000000000000000000000000000000007E
:10028000000000000000101011241FBECFEFD1E2CB
:10029000DEBFCDBF00E00CBF14E0A0E0B2E0E0E5BF
:1002A000F2E300E00BBF02C007900D92A237B10746
:1002B000D9F71BBE19E0A2E7B4E001C01D92A63831
:1002C000B107E1F712E0C8E8D2E004C02297FE01CE
:1002D0000E942219C638D107C9F7ADD00C9426194F
:1002E0008FCE4F925F926F927F929F92AF92BF920A
:1002F000CF92DF92EF92FF920F931F93DF93CF93F2
:1003000000D00F92CDB7DEB70E94D50A2B013C0179
:1003100038EEE32E33E0F32E012D112DE60EF71EFD
:10032000081F191F9924939486E79EE30E94620B8D
:100330000E94D50A5B016C016E157F05800791074D
:1003400090F38FE3891508F441C086017501E41824
:10035000F50806091709892D90E082959295907FFE
:100360009827807F98275C01CC24DD24C601B50145
:1003700028EC30E040E050E00E94DF18E616F70677
:100380000807190708F5AE14BF04C006D106D0F45B
:10039000A80197010E94FE1888EC821B0F900F9015
:1003A0000F900F90CF91DF911F910F91FF90EF90E1
:1003B000DF90CF90BF90AF909F907F906F905F90B5
:1003C0004F90089580E0EACF88ECE8CF789480E001
:1003D00090E0A0E4B0E089839A83AB83BC838EEF86
:1003E00098E060E072E00E9490128EEF98E06EE775
:1003F00070E04AE050E00E94731289819A81AB81DB
:10040000BC810097A105B10599F089819A81AB81E2
:10041000BC810197A109B10989839A83AB83BC830D
:1004200089819A81AB81BC810097A105B10569F7EB
:100430000C9400008ACF0E946C0BBBD180E090E04E
:100440000895E0E7F0E08081816080830895CF9295
:10045000DF92EF92FF920F931F93DF93CF9300D021
:100460000F92CDB7DEB77C01C62ED42E00914E047C
:1004700010914F0424E0003C120709F4C9C0F801B0
:10048000828190E0FC01E558FB4F40814150408360
:10049000442309F1E0E0F0E021E030E0BC01660F28
:1004A000771F660F771F50E0680F791F4F5F5F4F10
:1004B000E60FF71FEE0FFF1FDF01A058BB4F8D9116
:1004C0009C91E258FB4F91838083F9012F5F3F4F4E
:1004D0002417350769F7E114F10461F0C701807052
:1004E000907C8050904C31F0CC20C1F1C7019F73BB
:1004F000892BA1F5789480E090E0A0E4B0E08983B6
:100500009A83AB83BC838EEF98E06BE372E00E942A
:1005100090128EEF98E060E475E04AE050E00E94AF
:10052000731289819A81AB81BC810097A105B105C5
:1005300099F089819A81AB81BC810197A109B109A8
:1005400089839A83AB83BC8389819A81AB81BC8187
:100550000097A105B10569F70C940000F6FE49C0AB
:10056000F80185818D0D858390914D04891B1816A6
:100570000CF045C0F801F686E5861786CC2011F40C
:1005800081E0878780917A04E82FF0E0EE0FFF1F6B
:10059000EA58FB4F118300838F5F80937A04809128
:1005A0004E0490914F0490939D0480939C0480ECA2
:1005B00094E090934F0480934E0480917D048823AF
:1005C00009F05FC080917C04882309F070C080919D
:1005D0007B04882309F06EC00F900F900F900F904E
:1005E000CF91DF911F910F91FF90EF90DF90CF900F
:1005F0000895FFEFDF12D394F801D286BBCF808934
:100600008F3F11F08F5F808B9F5FF8019583B2CF92
:10061000789480E090E0A0E4B0E089839A83AB8393
:10062000BC838EEF98E06BE372E00E9490128EEF35
:1006300098E066EE75E04AE050E00E94731289810E
:100640009A81AB81BC810097A105B10599F08981A0
:100650009A81AB81BC810197A109B10989839A83F1
:10066000AB83BC8389819A81AB81BC810097A10552
:10067000B10569F70C94000000914E0410914F04ED
:10068000FECE82E090E0FC01EE0FFF1FEE0FFF1F99
:10069000EE0FFF1F880F991FE80FF91FE258FB4F5D
:1006A0008081918190934F0480934E0495CF81E097
:1006B00090E0E9CF80E090E0E6CFF8940F920FB69B
:1006C0000F921F922F923F924F925F926F927F9262
:1006D0008F929F92AF92BF92CF92DF92EF92FF9252
:1006E0000F931F932F933F934F935F936F937F933A
:1006F000AF93BF93CF93DF93EF93FF93A8DEA091C7
:100700004E04B0914F048D919C9111979093750474
:10071000809374040DB6009272040EB600927304B6
:10072000009074040DBE009075040EBE809172049A
:1007300090917304E0919C04F0919D0491838083D7
:100740001B968D919C911C97009771F09093750466
:10075000809374041C961C921E921B970090740444
:100760000F92009075040F929F918F91FF91EF91DE
:10077000DF91CF91BF91AF917F916F915F914F9139
:100780003F912F911F910F91FF90EF90DF90CF90AD
:10079000BF90AF909F908F907F906F905F904F90A1
:1007A0003F902F901F900F900FBE0F90189580E0F4
:1007B00090E06F927F928F929F92AF92BF92CF9272
:1007C000DF92EF92FF920F931F93DF93CF9300D0AE
:1007D0000F92CDB7DEB70EE914E083E3D8011D9286
:1007E0008A95E9F757D346E7C42E44E0D42EEE2489
:1007F000FF24812C912C30E4A32EB12C20E8722E02
:1008000099E2692EF80183819481009761F06681F5
:1008100077816115710539F00084F185E02DE233AF
:10082000F10508F03DC0789489829A82AB82BC823F
:100830008EEF98E06BE372E00E9490128EEF98E0EA
:100840006AED77E04AE050E00E94731289819A8154
:10085000AB81BC810097A105B10599F089819A818E
:10086000AB81BC810197A109B10989839A83AB83CC
:10087000BC8389819A81AB81BC810097A105B105B8
:1008800069F70C940000D80116966D917C9117972A
:100890001896ED91FC91199713968D919C91149750
:1008A0003197E60FF71F1082DF011E921E928E9382
:1008B0009C01442737FD4095542F3E93252F332725
:1008C000442755272E931E927E921E92CD010197AA
:1008D000DC017F971C921197AE17BF07D9F7469797
:1008E000FC011082DC011E92FD011292DF011E92BA
:1008F000FD011292DF011E921197A617B70730F083
:10090000FD0160823197E617F707D8F7F801B18348
:10091000A08314861386108AC70182959295907FD2
:100920009827807F98278E0D9F1D82569B4FD6015A
:100930008D939D936D010894E11CF11C0F5E1F4F78
:10094000B2E0EB16F10409F05DCF82E080937A0407
:1009500020EC34E01092C1041092C0041092C5043F
:100960001092CA041092CC041092CB041092CE04C0
:100970001092CD0481E08093CF041092D0041092A5
:100980007B0410927C0410927D0430934F042093DA
:100990004E0430939D0420939C0453DD77D2FECF08
:1009A0008F929F92AF92BF92CF92DF92EF92FF927F
:1009B0000F931F93DF93CF9300D00F92CDB7DEB785
:1009C0004701BC2CE82EFF246701C294D29450EF5B
:1009D000D522DC24C522DC24F601EE0DFF1DE256F3
:1009E000FB4F748363833783268311870087428399
:1009F0008114910409F479C012861582C4018070B3
:100A0000907C8050904C31F0BB20C1F1C4019F73A9
:100A1000892BA1F5789480E090E0A0E4B0E0898390
:100A20009A83AB83BC838EEF98E06BE372E00E9405
:100A300090128EEF98E060E475E04AE050E00E948A
:100A4000731289819A81AB81BC810097A105B105A0
:100A500099F089819A81AB81BC810197A109B10983
:100A600089839A83AB83BC8389819A81AB81BC8162
:100A70000097A105B10569F70C94000096FE2BC004
:100A8000F601EE0DFF1DE256FB4F85818A0D858331
:100A900090914D04891B18160CF063C0F601EE0D01
:100AA000FF1DE256FB4F968685861786BB2011F404
:100AB00081E087870F900F900F900F90CF91DF917B
:100AC0001F910F91FF90EF90DF90CF90BF90AF906C
:100AD0009F908F9008952FEFA212A394F601EE0D30
:100AE000FF1DE256FB4FA286D9CF789480E090E0BC
:100AF000A0E4B0E089839A83AB83BC838EEF98E057
:100B00006BE372E00E9490128EEF98E068E877E065
:100B10004AE050E00E94731289819A81AB81BC81C6
:100B20000097A105B10599F089819A81AB81BC81BB
:100B30000197A109B10989839A83AB83BC83898119
:100B40009A81AB81BC810097A105B10569F70C942E
:100B50000000F601EE0DFF1DE256FB4F12861582D6
:100B600059CF80898F3F11F08F5F808BF601EE0D9A
:100B7000FF1DE256FB4F9F5F958390CFFF920F932F
:100B80001F93DF93CF9300D00F92CDB7DEB7F090D5
:100B90004D04F394F0924D0410917A04A0E000E02B
:100BA000011708F068C0E02FF0E0EE0FFF1FEA58D1
:100BB000FB4F40815181FA0123853485B90185813C
:100BC000F81609F46AC0FA018285882361F0815021
:100BD0008287882341F48585968580709078282BBC
:100BE000392B348723872617370709F454C0FA01B5
:100BF0008785882369F4FA0165857685CB0182278C
:100C000093279F73892B39F0262337232070307C5C
:100C1000232B09F440C0FA01828190E0DC01A55841
:100C2000BB4F2C91FC01EE0FFF1FEE0FFF1FE80FD3
:100C3000F91FE20FF11DEE0FFF1FE258FB4F51832A
:100C400040832F5F2C931150011788F4202FE22F3F
:100C5000F0E0EE0FFF1FDF01A858BB4F8D919C9174
:100C6000EA58FB4F918380832F5F211780F3A1E027
:100C7000011708F498CF10937A04AA23C1F440E036
:100C8000842F0F900F900F900F90CF91DF911F91B5
:100C90000F91FF9008950F5F83CF858596858070B3
:100CA0009074822B932B948783879C018CCF8091A7
:100CB0007D04882309F03FC080917C04882309F0DB
:100CC0005EC080917B04882309F05CC0789480E04A
:100CD00090E0A0E4B0E089839A83AB83BC838EEF7D
:100CE00098E06BE372E00E9490128EEF98E06EEC59
:100CF00072E04AE050E00E94731289819A81AB81D0
:100D0000BC810097A105B10599F089819A81AB81D9
:100D1000BC810197A109B10989839A83AB83BC8304
:100D200089819A81AB81BC810097A105B10569F7E2
:100D30000C940000A4CF22E030E080914E0490910A
:100D40004F0490939D0480939C04F901EE0FFF1FC4
:100D5000EE0FFF1FEE0FFF1F220F331FE20FF31FD7
:100D6000E258FB4F2081318130934F0420934E0491
:100D700040E08217930749F081E0482781CF21E0C6
:100D800030E0DBCF20E030E0D8CF41E0F5CF0F926C
:100D90000FB60F921F922F923F924F925F926F92D7
:100DA0007F928F929F92AF92BF92CF92DF92EF92FB
:100DB000FF920F931F932F933F934F935F936F93E4
:100DC0007F93AF93BF93CF93DF93EF93FF938F9373
:100DD0009F931124D3DE882309F435C0A0914E04DB
:100DE000B0914F048D919C911197909375048093CD
:100DF00074040DB6009272040EB600927304009053
:100E000074040DBE009075040EBE80917204909122
:100E10007304E0919C04F0919D04918380831B9660
:100E20008D919C911C97009771F09093750480931D
:100E300074041C961C921E921B97009074040F92CF
:100E4000009075040F929F918F91FF91EF91DF9128
:100E5000CF91BF91AF917F916F915F914F913F91F2
:100E60002F911F910F91FF90EF90DF90CF90BF9047
:100E7000AF909F908F907F906F905F904F903F903A
:100E80002F901F900F900FBE0F9018952ADA809325
:100E900050040895AF92CF92EF92FF920F931F9359
:100EA0000EEF18E0C80140E855E260E070E087D737
:100EB000C8016CE672E00E94741380E067EB78E092
:100EC00040E025ED34E000E011E0E12C50E8F52EA3
:100ED000CC2495E0A92E64DD81E06AE777E040E06C
:100EE00025ED35E05DDD1F910F91FF90EF90CF90E4
:100EF000AF900895AF92BF92CF92EF920F93DF938E
:100F0000CF93CDB7DEB765970FB6F894DEBF0FBEAF
:100F1000CDBF5E010894A11CB11CC5016CE04BE083
:100F20002AE009E0E8E0EE2E77E0C72E0E941B15CC
:100F3000C50164E144E020E00E947114C5010E94F3
:100F40006B14C50160E040E00E943D14C50167E6F6
:100F500073E00E949012C5016DE040E00E943D14D4
:100F6000C50165E773E00E949012C50160E042E0B0
:100F70000E943D14C5016AE773E00E949012C5010A
:100F800060E043E00E943D14C50167E873E00E9401
:100F90009012C5010E94351480E090E860E044EFB3
:100FA0008CDBC6CF2F923F924F925F926F927F92CF
:100FB0008F929F92AF92BF92CF92DF92EF92FF9269
:100FC0000F931F9319012A0123E333E948E853E4FF
:100FD0000E9454159B01AC0163E373E98AEB93E42F
:100FE0000E94BC157B018C0120E030E040E85FE30B
:100FF0000E9453153B014C0126E335EE4CEF50ECBB
:101000000E9456175B016C01C801B7010E940B17C3
:1010100028E036EE40EA50E40E945617A6019501FA
:101020000E9454155B016C0160E070E080E89FEB6A
:10103000A80197010E94BC1520E030E040E85FE382
:101040000E94541526E031E845E351E40E9456170A
:101050009B01AC0160E070E080E291E40E94B9176E
:101060009B01AC01CA01B90120E030E040E85FE338
:101070000E94531522E239E544E154EB0E945617D1
:10108000A60195010E9454157B018C01C401B30196
:1010900022E934E74FE550EC0E9456179B01AC0162
:1010A00060E070E080E291E40E94B9179B01AC011E
:1010B000CA01B90120E030E040E85FE30E94531527
:1010C00020E73FE345E05CE30E945617A801970143
:1010D0000E94541522EA3DE540E450E40E94541574
:1010E00020E030E040E450E40E9453159B01AC0145
:1010F00060E070E080E291E40E94B9179B01AC01CE
:10110000CA01B901A20191010E94561724E13CE5F0
:101110004CE15FE30E94BC150E9416177B018C0115
:1011200028E431EE41E753E40E9456175B016C015D
:1011300069EC76E78CE891E4A80197010E945315C9
:101140009B01AC01C601B5010E94BC151F910F9116
:10115000FF90EF90DF90CF90BF90AF909F908F90D7
:101160007F906F905F904F903F902F9008956F9277
:101170007F928F929F92AF92BF92CF92DF92EF9227
:10118000FF920F931F93CF93DF938C010ED28EEFBC
:1011900098E068E973E00E9490128EEF98E0B80141
:1011A00040E150E00E941A12C1C08EEF98E068EC56
:1011B00073E00E9474138EEF98E067EF73E00E9473
:1011C00090126091D1047091D204882777FD8095A8
:1011D000982F0E945716AB01BC018EEF98E022E0D9
:1011E00030E00E9463138EEF98E066E074E00E94A6
:1011F00090126091D3047091D404882777FD809574
:10120000982F0E945716AB01BC018EEF98E022E0A8
:1012100030E00E9463138EEF98E069E174E00E9471
:1012200090126091D3047091D404882777FD809543
:10123000982F0E9457167B018C016091D104709108
:10124000D204882777FD8095982F0E9457169B011E
:10125000AC01C801B701A6DEAB01BC018EEF98E07E
:1012600022E030E00E9463138EEF98E06AE274E0BF
:101270000E9490126091D3047091D404882777FD66
:101280008095982F0E9457165B016C016091D104E4
:101290007091D204882777FD8095982F0E94571669
:1012A00020E030E048EC52E40E94BC150E94161782
:1012B0003B014C01C601B50122E03BE24AE851E4A2
:1012C0000E9456177B018C01C601B50123E333EB65
:1012D0004DE653E40E9454159B01AC01C801B701CF
:1012E0000E94BC15A40193010E9454157B018C013E
:1012F00023E333EB4DE653E40E9456175B016C0188
:1013000062E07BE28AE891E4A80197010E9453150C
:101310009B01AC01C601B5010E94BC15AB01BC012B
:101320008EEF98E022E030E00E9463138EEF98E0A9
:1013300068EB73E00E94741381ED94E062E070E06A
:1013400026D0EC018EEF98E06AEB73E00E949012D9
:101350008FEFCF3FD80769F0209709F426CFCE5FF3
:10136000DF4F71F08EEF98E069EE73E00E94741326
:1013700022CF8EEF98E06BEC73E00E9474131BCFCA
:101380008EEF98E06AED73E00E94741314CF2F92F1
:101390003F924F925F927F928F929F92AF92BF92B5
:1013A000CF92DF92EF92FF920F931F93DF93CF9331
:1013B00000D00F920F92CDB7DEB72C01F62E198216
:1013C0001A821B821C821D82862F61E0E7D18F2D3D
:1013D00060E097D262E170E080E090E01AD18F2D5A
:1013E00061E08FD288E290E06DD18F2D60E0D6D1A0
:1013F00000E010E007C00F5F1F4F87E201311807C0
:1014000009F46CC08F2DAFD2892BA9F300E010E056
:1014100007C00F5F1F4FE7E201311E0709F45EC0EE
:101420008F2DA1D20197A9F397E0E92E7724882484
:1014300099241E010894211C311C00E010E007C013
:101440000F5F1F4FF7E201311F0709F447C08F2DCF
:101450008AD2892BA9F3B7D05B016C0100E010E0C0
:1014600006C00F5F1F4F87E201311807B9F18F2DBA
:101470007AD20197B1F3A7D06A197B098C099D092B
:10148000693271058105910570F0F101E70DF11DDB
:1014900021E030E00E2C02C0220F331F0A94E2F745
:1014A0008081822B8083EE2099F5739487E0E82E6B
:1014B0000894811C911CE8E28E16910409F0BDCFBE
:1014C0008981F201808311829B8192831382980F1C
:1014D0008D818917F9F02FEF3FEF02C02EEF3FEF1C
:1014E000C9010F900F900F900F900F90CF91DF9147
:1014F0001F910F91FF90EF90DF90CF90BF90AF9032
:101500009F908F907F905F904F903F902F90089585
:10151000EA94CECF20E030E0E3CF1F920F920FB6D7
:101520000F9211242F933F938F939F93AF93BF9369
:101530008091D9069091DA06A091DB06B091DC0685
:101540003091DD060196A11DB11D232F2D5F2D3792
:1015500020F02D570196A11DB11D2093DD0680932B
:10156000D9069093DA06A093DB06B093DC0680914F
:10157000D5069091D606A091D706B091D8060196CF
:10158000A11DB11D8093D5069093D606A093D706D2
:10159000B093D806BF91AF919F918F913F912F91BA
:1015A0000F900FBE0F901F9018958FB7F894209151
:1015B000D9063091DA064091DB065091DC068FBFE8
:1015C000B901CA0108959FB7F8942091D5063091CA
:1015D000D6064091D7065091D80686B5A89B06C07E
:1015E0008F3F21F02F5F3F4F4F4F5F4F9FBF542FD3
:1015F000432F322F2227280F311D411D511D82E01C
:10160000220F331F441F551F8A95D1F7B901CA0114
:1016100008959B01AC017FB7F8948091D506909115
:10162000D606A091D706B091D80666B5A89B05C08E
:101630006F3F19F00196A11DB11D7FBFBA2FA92FD1
:10164000982F8827860F911DA11DB11D62E0880F7C
:10165000991FAA1FBB1F6A95D1F7BC012DC0FFB708
:10166000F8948091D5069091D606A091D706B091B6
:10167000D806E6B5A89B05C0EF3F19F00196A11D5D
:10168000B11DFFBFBA2FA92F982F88278E0F911D4C
:10169000A11DB11DE2E0880F991FAA1FBB1FEA958B
:1016A000D1F7861B970B885E9340C8F221503040DB
:1016B0004040504068517C4F21153105410551058E
:1016C00071F60895019739F0880F991F880F991FB7
:1016D00002970197F1F70895789484B5826084BDEC
:1016E00084B5816084BD85B5826085BD85B5816026
:1016F00085BDEEE6F0E0808181608083E1E8F0E086
:101700001082808182608083808181608083E0E8B4
:10171000F0E0808181608083E1EBF0E08081846093
:101720008083E0EBF0E0808181608083E1E9F0E09C
:10173000808182608083808181608083E0E9F0E045
:10174000808181608083E1EAF0E080818260808333
:10175000808181608083E0EAF0E080818160808325
:10176000E1E2F1E08081826080838081816080831A
:10177000E0E2F1E0808181608083EAE7F0E080814F
:1017800084608083808182608083808181608083A7
:101790008081806880831092C1000895CF93DF9389
:1017A000482F50E0CA0186509E4FFC0134914C54A2
:1017B0005E4FFA018491882369F190E0880F991FA8
:1017C000FC01EA59FE4FA591B491FC01E058FE4F8F
:1017D000C591D491662351F42FB7F8948C91932F2F
:1017E000909589238C93888189230BC0623061F4A2
:1017F0002FB7F8948C91932F909589238C9388819F
:10180000832B88832FBF06C09FB7F8948C91832BBE
:101810008C939FBFDF91CF910895893009F449C01F
:101820008A30A0F4843051F1853040F4823079F16F
:10183000833000F5813009F063C026C0873079F12C
:10184000883098F5863009F05BC025C08D3009F4EA
:1018500042C08E3028F48B30B1F18C30C0F52DC0F1
:10186000803109F442C0813109F445C08F3009F05C
:1018700047C037C0809180008F7703C0809180007F
:101880008F7D80938000089584B58F7702C084B5E2
:101890008F7D84BD08958091B0008F7703C08091C3
:1018A000B0008F7D8093B0000895809190008F7775
:1018B00007C0809190008F7D03C080919000877F4A
:1018C0008093900008958091A0008F7707C0809149
:1018D000A0008F7D03C08091A000877F8093A0002F
:1018E0000895809120018F7703C0809120018F7D22
:1018F00080932001089580912001877F80932001AB
:101900000895FF920F931F93F62E482F50E0CA01BF
:10191000805C9D4FFC012491CA0186509E4FFC01C2
:1019200014914C545E4FFA0104910023C1F022231C
:1019300011F0822F72DFE02FF0E0EE0FFF1FE05872
:10194000FE4FA591B4919FB7F894FF2021F48C919C
:101950001095812302C08C91812B8C939FBF1F9186
:101960000F91FF9008950F931F93482F50E0CA01E5
:10197000805C9D4FFC012491CA0186509E4FFC0162
:1019800004914C545E4FFA011491112319F420E094
:1019900030E019C0222311F0822F3FDF812F90E029
:1019A000880F991F86569E4FFC01A591B4918C918A
:1019B000282F30E0802F90E028233923211531058E
:1019C00011F021E030E0C9011F910F9108951F929D
:1019D0000F920FB60F920BB60F9211242F933F93D5
:1019E0004F938F939F93EF93FF938091C00082FD5D
:1019F0001DC04091C60020911E0730911F072F5F28
:101A00003F4F2F7330708091200790912107281746
:101A1000390771F0E0911E07F0911F07E252F94F6C
:101A2000408330931F0720931E0702C08091C60099
:101A3000FF91EF919F918F914F913F912F910F9037
:101A40000BBE0F900FBE0F901F9018951F920F9214
:101A50000FB60F920BB60F9211242F933F934F9313
:101A60008F939F93EF93FF938091C80082FD1DC0D9
:101A70004091CE002091A6073091A7072F5F3F4FDE
:101A80002F7330708091A8079091A9072817390704
:101A900071F0E091A607F091A707EA59F84F40834B
:101AA0003093A7072093A60702C08091CE00FF9134
:101AB000EF919F918F914F913F912F910F900BBE7E
:101AC0000F900FBE0F901F9018951F920F920FB698
:101AD0000F920BB60F9211242F933F934F938F9336
:101AE0009F93EF93FF938091D00082FD1DC04091A2
:101AF000D60020912E0830912F082F5F3F4F2F7373
:101B0000307080913008909131082817390771F0B2
:101B1000E0912E08F0912F08E251F84F4083309366
:101B20002F0820932E0802C08091D600FF91EF91DC
:101B30009F918F914F913F912F910F900BBE0F90DE
:101B40000FBE0F901F9018951F920F920FB60F9215
:101B50000BB60F9211242F933F934F938F939F9324
:101B6000EF93FF938091300182FD1DC040913601BB
:101B70002091B6083091B7082F5F3F4F2F73307018
:101B80008091B8089091B9082817390771F0E09151
:101B9000B608F091B708EA58F74F40833093B7087A
:101BA0002093B60802C080913601FF91EF919F917A
:101BB0008F914F913F912F910F900BBE0F900FBEC1
:101BC0000F901F9018951F920F920FB60F920BB6A1
:101BD0000F9211242F933F938F939F93EF93FF9333
:101BE00020916207309163078091640790916507A7
:101BF0002817390731F48091C1008F7D8093C1008F
:101C000014C0E0916407F0916507EE5DF84F208104
:101C1000809164079091650701968F7390709093FF
:101C20006507809364072093C600FF91EF919F9111
:101C30008F913F912F910F900BBE0F900FBE0F9081
:101C40001F9018951F920F920FB60F920BB60F921E
:101C500011242F933F938F939F93EF93FF932091A2
:101C6000EA073091EB078091EC079091ED07281778
:101C7000390731F48091C9008F7D8093C90014C069
:101C8000E091EC07F091ED07E655F84F2081809147
:101C9000EC079091ED0701968F7390709093ED078C
:101CA0008093EC072093CE00FF91EF919F918F914D
:101CB0003F912F910F900BBE0F900FBE0F901F9072
:101CC00018951F920F920FB60F920BB60F92112418
:101CD0002F933F938F939F93EF93FF9320917208DD
:101CE000309173088091740890917508281739070E
:101CF00031F48091D1008F7D8093D10014C0E091A8
:101D00007408F0917508EE5CF74F2081809174089B
:101D10009091750801968F739070909375088093D9
:101D200074082093D600FF91EF919F918F913F917E
:101D30002F910F900BBE0F900FBE0F901F90189514
:101D40001F920F920FB60F920BB60F9211242F9382
:101D50003F938F939F93EF93FF932091FA083091D5
:101D6000FB088091FC089091FD082817390731F491
:101D7000809131018F7D8093310114C0E091FC0886
:101D8000F091FD08E654F74F20818091FC08909176
:101D9000FD0801968F7390709093FD088093FC0866
:101DA00020933601FF91EF919F918F913F912F9159
:101DB0000F900BBE0F900FBE0F901F901895AF9213
:101DC000BF92DF92EF92FF920F931F93CF93DF9317
:101DD000EC017A018B01DD24403081EE580780E070
:101DE000680780E0780711F0DD24D39491E0A92EF4
:101DF000B12CEC89FD89DD2069F0C50108A002C085
:101E0000880F991F0A94E2F7808360E079E08DE300
:101E100090E005C0108260E874E88EE190E0A801CF
:101E200097010E94FE182150304040405040569586
:101E300047953795279580E12030380720F0DD2041
:101E400011F0DD24D6CFE889F9893083EA89FB894E
:101E5000208319A2EE89FF89408121E030E0C90189
:101E60000C8C02C0880F991F0A94E2F7482B40831C
:101E7000EE89FF894081C9010D8C02C0880F991F2E
:101E80000A94E2F7482B4083EE89FF894081C9011B
:101E90000E8C02C0880F991F0A94E2F7482B4083EA
:101EA000EE89FF8980810F8C02C0220F331F0A94B4
:101EB000E2F7209528232083DF91CF911F910F9186
:101EC000FF90EF90DF90BF90AF900895DC011C96DB
:101ED000ED91FC911D97E05CFF4F21913191808144
:101EE0009181281B390B2F733070C9010895DC01D3
:101EF0001C96ED91FC911D97E05CFF4F2081318194
:101F0000E054F040DF01AE5BBF4F8D919C91119783
:101F10002817390719F42FEF3FEF07C08D919C91D7
:101F2000E80FF91F8081282F30E0C9010895DC01F6
:101F30001C96ED91FC911D97E05CFF4F2081318153
:101F4000E054F040DF01AE5BBF4F8D919C91119743
:101F50002817390719F42FEF3FEF10C08D919C918E
:101F60001197E80FF91F20818D919C91119701968F
:101F70008F73907011969C938E9330E0C9010895F1
:101F8000DC0191968C919197882339F05496ED91CC
:101F9000FC915597808186FFF9CF91961C92089508
:101FA000CF93DF93EC01EE85FF85E05CFF4F20814E
:101FB0003181E054F0402F5F3F4F2F733070DF01CD
:101FC000AE5BBF4F8D919C91119728173907D1F3C4
:101FD000E05CFF4F80819181E054F040E80FF91FF1
:101FE0006083EE85FF85E05CFF4F31832083EE89BF
:101FF000FF89208181E090E00F8C02C0880F991F3B
:102000000A94E2F7282B208381E089A3EC89FD89DB
:1020100080818064808381E090E0DF91CF9108959A
:102020001F93109201091092000928EE33E040E05E
:1020300050E0209302093093030940930409509320
:10204000050965E574E07093FF086093FE088EED66
:1020500096E090930B0980930A0982E297E09093AF
:102060000D0980930C0985EC90E090930F09809303
:102070000E0984EC90E0909311098093100980EC94
:1020800090E0909313098093120981EC90E0909373
:1020900015098093140982EC90E0909317098093BE
:1020A000160986EC90E0909319098093180914E0C2
:1020B00010931A09B3E0B0931B09A7E0A0931C0981
:1020C000F5E0F0931D09E1E0E0931E091092230969
:1020D0001092220920932409309325094093260960
:1020E00050932709709321096093200986E697E0B1
:1020F00090932D0980932C098AEA97E090932F09F9
:1021000080932E098DEC90E09093310980933009F3
:102110008CEC90E0909333098093320988EC90E046
:10212000909335098093340989EC90E090933709B6
:10213000809336098AEC90E09093390980933809AE
:102140008EEC90E090933B0980933A0910933C0900
:10215000B0933D09A0933E09F0933F09E0934009F5
:10216000109245091092440920934609309347097B
:102170004093480950934909709343096093420979
:102180008EEE97E090934F0980934E0982E398E09A
:10219000909351098093500985ED90E090935309F5
:1021A0008093520984ED90E09093550980935409EF
:1021B00080ED90E0909357098093560981ED90E06F
:1021C000909359098093580982ED90E090935B09B0
:1021D00080935A0986ED90E090935D0980935C09A5
:1021E00010935E09B0935F09A0936009F0936109B1
:1021F000E0936209109267091092660920936809BA
:102200003093690940936A0950936B09709365098B
:102210006093640986E798E0909371098093700950
:102220008AEB98E0909373098093720985E391E0BB
:10223000909375098093740984E391E090937709F2
:102240008093760980E391E09093790980937809EF
:1022500081E391E090937B0980937A0982E391E096
:1022600090937D0980937C0986E391E090937F09A8
:1022700080937E0910938009B0938109A09382090D
:10228000F0938309E09384091F910895CF92DF9220
:10229000EF92FF920F931F93CF93DF937C016B011B
:1022A0008A01C0E0D0E00FC0D6016D916D01D70169
:1022B000ED91FC910190F081E02DC7011995C80FB7
:1022C000D91F015010400115110571F7CE01DF91A2
:1022D000CF911F910F91FF90EF90DF90CF900895D5
:1022E000EF92FF920F931F938C01DC01ED91FC9113
:1022F0000190F081E02D6DE019957C01D801ED9100
:10230000FC910190F081E02DC8016AE019959C01D3
:102310002E0D3F1DC9011F910F91FF90EF90089561
:10232000CF93DF93EC016115710519F420E030E0E3
:102330000FC0DB010D900020E9F71197A61BB70B2A
:10234000E881F9810280F381E02DAD0119959C01AE
:10235000C901DF91CF9108954F925F927F928F9242
:102360009F92AF92BF92CF92DF92EF92FF920F9324
:102370001F93DF93CF93CDB7DEB7A1970FB6F89435
:10238000DEBF0FBECDBF2C01742ECB01223008F46E
:102390002AE019A231E2C32ED12CCC0EDD1E822EF2
:1023A0009924AA24BB24672D752FA501940126D753
:1023B00079018A01C801B701A501940100D7472D11
:1023C000461B0894C108D1084A3014F4405D01C08E
:1023D000495CF6014083E114F1040105110521F087
:1023E0007E2C5F2DC801DFCFC201B60199DFA19617
:1023F0000FB6F894DEBF0FBECDBFCF91DF911F9116
:102400000F91FF90EF90DF90CF90BF90AF909F9093
:102410008F907F905F904F900895DC0121153105DA
:1024200041F4ED91FC910190F081E02D642F19951C
:10243000089592CFCF92DF92EF92FF920F931F9366
:102440006C017B019A0100E010E0B801A701E5DF13
:102450008C01C60145DF080F191FC8011F910F919C
:10246000FF90EF90DF90CF900895CF92DF92EF92A0
:10247000FF920F931F93CF93DF93EC016A017B01CF
:102480002115310541F4E881F9810190F081E02DB9
:10249000642F19951DC02A303105C9F477FF16C085
:1024A000E881F9810190F081E02D6DE219958C01B0
:1024B00044275527BA014C195D096E097F09CE01E1
:1024C0002AE04ADF9801280F391F03C02AE044DFC1
:1024D0009C01C901DF91CF911F910F91FF90EF9067
:1024E000DF90CF900895CF92DF92EF92FF920F93FB
:1024F0001F936C017B019A010027F7FC0095102FB8
:10250000B801A701B2DF8C01C601EADE080F191F6E
:10251000C8011F910F91FF90EF90DF90CF90089529
:10252000FFCE08957F928F929F92AF92BF92CF92EB
:10253000DF92EF92FF920F931F93CF93DF934C01A3
:102540007A018B01722ECB01BA01A80197015DD5EA
:10255000882321F0C4016FE374E01FC0C0E0D0E025
:1025600057016801E894D7F8C601B5012FEF3FEF96
:102570004FE75FE74AD5882349F4C601B5012FEF3D
:102580003FEF4FE75FE7F4D2181614F0C1E0D0E058
:10259000219731F0C40163E474E0C2DEEC0184C031
:1025A000C801B7012FEF3FEF4FE75FE430D41816B3
:1025B0004CF0C801B7012FEF3FEF4FE75FECD8D2E7
:1025C000882324F4C40167E474E0E7CFC801B701AD
:1025D00020E030E040E050E0CBD287FD03C0C0E017
:1025E000D0E00EC0D401ED91FC910190F081E02D7E
:1025F000C4016DE21995EC0117FB109517F91095C0
:1026000020E030E040E05FE3DD240AC0CA01B90108
:1026100020E030E040E251E4AFD29B01AC01D39422
:10262000D714A0F3C801B7013FD25B016C0111D3ED
:102630007B018C01C401B801A7012AE030E0EDDE86
:10264000C80FD91F772031F0C4016BE474E068DE55
:10265000C80FD91FC801B70128D39B01AC01C6011F
:10266000B50121D21FC020E030E040E251E41ED489
:102670007B018C01E9D25B016C01CC24B7FCC094D6
:10268000DC2CC401B601A5012AE030E0EEDEC80F63
:10269000D91FC601B5010BD39B01AC01C801B7011D
:1026A00002D27A947720F9F6CE01DF91CF911F9173
:1026B0000F91FF90EF90DF90CF90BF90AF909F90E1
:1026C0008F907F900895EF92FF920F931F937C015C
:1026D00029DF8C01C70104DE080F191FC8011F91F3
:1026E0000F91FF90EF900895EF92FF920F931F9339
:1026F0007C0116DE8C01C701F3DD080F191FC8012C
:102700001F910F91FF90EF9008950F931F938C01ED
:10271000FC01868160E0F5D881E090E00E94620BC8
:10272000F801868161E0EDD881E090E00E94620BC3
:10273000F801868160E0E5D884E690E00E94620BB3
:102740001F910F910895CF92DF92EF92FF920F9316
:102750001F93CF93DF93D82EC92E282F392FC9016D
:102760008C01C0E0D0E0E62EFF24F801878161E013
:1027700015D8B7010C2E02C0759567950A94E2F73B
:102780006170F8018781BDD821960F5F1F4FC83057
:10279000D10559F78D2D9C2DB8DFDF91CF911F9179
:1027A0000F91FF90EF90DF90CF900895CF92DF923E
:1027B000EF92FF920F931F93CF93DF93D82EC92EE2
:1027C000282F392FC9018C01C0E0D0E0E62EFF246C
:1027D000F801878161E00E94CE0BB7010C2E02C088
:1027E000759567950A94E2F76170F801878189D839
:1027F00021960F5F1F4FC430D10551F78D2D9C2DB1
:1028000084DFDF91CF911F910F91FF90EF90DF90C8
:10281000CF9008951F93CF93DF93EC01162F8C81F7
:10282000642F6FD88D818F3F11F060E06AD88F855B
:1028300084FF04C0CE01612F86DF0CC0612F70E0E1
:1028400084E0759567958A95E1F7CE01AFDFCE01FB
:10285000612FACDFDF91CF911F91089541E0DADF66
:1028600081E090E0089540E0D5CFFC016089862F9B
:102870008460808B6C60CF01F6CFDF93CF93CDB7B0
:10288000DEB728970FB6F894DEBF0FBECDBF9C0110
:10289000FE013196A9E6B4E088E00D9001928150E6
:1028A000E1F7F9018389481710F0482F4150E42FD0
:1028B000F0E0EE0FFF1FEC0FFD1F8181680F6068D5
:1028C000C901D1DF28960FB6F894DEBF0FBECDBF89
:1028D000CF91DF91089561E0C6DF80ED97E00C9421
:1028E000620BCF93DF93EC01423018F08F85886044
:1028F0008F874B8B1C8A222329F0413019F48F8556
:1029000084608F8780E593EC0E94620B8C8160E08D
:102910000E94810C8E8160E00E94810C8D818F3F2E
:1029200019F060E00E94810C6F8564FD19C0CE0132
:1029300063E03CDF84E991E10E94620BCE0163E039
:1029400035DF84E991E10E94620BCE0163E02EDF66
:1029500086E990E00E94620BCE0162E027DF13C09F
:102960006062CE0180DF84E991E10E94620B6F8595
:102970006062CE0178DF86E990E00E94620B6F858D
:102980006062CE0170DF6F856062CE016CDF84E033
:10299000888BCE016ADFCE019EDF82E0898BCE017B
:1029A00066E061DFDF91CF9108956F927F928F9201
:1029B000AF92CF92EF920F931F93DF93CF93CDB748
:1029C000DEB73C01162F842FF30144832583068351
:1029D000E782C086A18682869E8593879F8594879D
:1029E000988995879989968761E00E94CE0BF301BB
:1029F00085818F3F19F061E00E94CE0BF301868143
:102A000061E00E94CE0B112319F0F301178603C079
:102A100080E1F3018787C30160E141E020E061DFED
:102A2000CF91DF911F910F91EF90CF90AF908F904A
:102A30007F906F9008958F92AF92CF92EF920F9305
:102A40001F93CF93DF93DC01362F542F722F102F5B
:102A5000AE2C8C2C13961C921E92129785E694E055
:102A600011969C938E9300D00F92EDB7FEB73196DE
:102A7000CDB7DEB71982118212821382CD0161E0D7
:102A8000432F2FEF052FE72EC12E8FDF0F900F90D2
:102A90000F900F90DF91CF911F910F91EF90CF90FA
:102AA000AF908F9008955058BB27AA270ED075C1BC
:102AB00066D130F06BD120F031F49F3F11F41EF459
:102AC0005BC10EF4E095E7FB51C1E92F77D180F3AC
:102AD000BA17620773078407950718F071F49EF51B
:102AE0008FC10EF4E0950B2EBA2FA02D0B01B9016A
:102AF00090010C01CA01A0011124FF27591B99F074
:102B0000593F50F4503E68F11A16F040A22F232F7F
:102B1000342F4427585FF3CF469537952795A795CF
:102B2000F0405395C9F77EF41F16BA0B620B730B76
:102B3000840BBAF09150A1F0FF0FBB1F661F771FE7
:102B4000881FC2F70EC0BA0F621F731F841F48F49C
:102B5000879577956795B795F7959E3F08F0B3CF22
:102B60009395880F08F09927EE0F9795879508950C
:102B7000D9D008F481E008950CD00FC107D140F0FE
:102B8000FED030F021F45F3F19F0F0C0511139C18F
:102B9000F3C014D198F39923C9F35523B1F3951BCE
:102BA000550BBB27AA2762177307840738F09F5F6E
:102BB0005F4F220F331F441FAA1FA9F333D00E2EDD
:102BC0003AF0E0E830D091505040E695001CCAF74A
:102BD00029D0FE2F27D0660F771F881FBB1F26170F
:102BE00037074807AB07B0E809F0BB0B802DBF01E2
:102BF000FF2793585F4F2AF09E3F510568F0B6C0FB
:102C000000C15F3FECF3983EDCF3869577956795BE
:102C1000B795F7959F5FC9F7880F911D9695879592
:102C200097F90895E1E0660F771F881FBB1F6217B1
:102C300073078407BA0720F0621B730B840BBA0B6F
:102C4000EE1F88F7E095089504D06894B111D9C0BB
:102C50000895BCD088F09F5790F0B92F9927B751AD
:102C6000A0F0D1F0660F771F881F991F1AF0BA9550
:102C7000C9F712C0B13081F0C3D0B1E00895C0C02F
:102C8000672F782F8827B85F39F0B93FCCF3869546
:102C900077956795B395D9F73EF4909580957095A3
:102CA00061957F4F8F4F9F4F0895E89409C097FB20
:102CB0003EF490958095709561957F4F8F4F9F4F13
:102CC0009923A9F0F92F96E9BB279395F695879557
:102CD00077956795B795F111F8CFFAF4BB0F11F41A
:102CE00060FF1BC06F5F7F4F8F4F9F4F16C08823C1
:102CF00011F096E911C0772321F09EE8872F762FF7
:102D000005C0662371F096E8862F70E060E02AF037
:102D10009A95660F771F881FDAF7880F9695879523
:102D200097F90895990F0008550FAA0BE0E8FEEFF8
:102D300016161706E807F907C0F012161306E4077F
:102D4000F50798F0621B730B840B950B39F40A2678
:102D500061F0232B242B252B21F408950A2609F456
:102D6000A140A6958FEF811D811D089597F99F675A
:102D700080E870E060E008959FEF80EC0895002403
:102D80000A941616170618060906089500240A94D0
:102D900012161306140605060895092E0394000C56
:102DA00011F4882352F0BB0F40F4BF2B11F460FFE5
:102DB00004C06F5F7F4F8F4F9F4F089557FD90580E
:102DC000440F551F59F05F3F71F04795880F97FBEF
:102DD000991F61F09F3F79F08795089512161306A9
:102DE0001406551FF2CF4695F1DF08C016161706D8
:102DF0001806991FF1CF869571056105089408950D
:102E0000E894BB2766277727CB0197F908958ADFD7
:102E100008F48FEF08950AD029ED3BE54EED5EE30F
:102E200045C00EF027C1A8CF6894A0CFCFDFC8F36C
:102E30009923D1F3C6F3DF93CF931F930F93FF92A0
:102E4000C92FDD2788232AF02197660F771F881F57
:102E5000DAF720E030E040E85FEB9FE3883920F0CC
:102E6000803E30F021968F771FDEE4EEF0E003C065
:102E70001BDEE1E1F1E00ED18B01BE01EC01FB2E86
:102E80006F5771097595771F880B990B10DF28E133
:102E900032E741E35FE316D0AF2D9801AE01FF901A
:102EA0000F911F91CF91DF9110DE77CF0BD075CFAF
:102EB00066DF28F06BDF18F0952309F057CF5CCF61
:102EC00011249FCF7BDFA0F3959FD1F3950F50E0A6
:102ED000551F629FF001729FBB27F00DB11D639FCC
:102EE000AA27F00DB11DAA1F649F6627B00DA11D72
:102EF000661F829F2227B00DA11D621F739FB00D18
:102F0000A11D621F839FA00D611D221F749F332787
:102F1000A00D611D231F849F600D211D822F762F20
:102F20006A2F11249F5750408AF0E1F088234AF01D
:102F3000EE0FFF1FBB1F661F771F881F9150504069
:102F4000A9F79E3F510570F011CF5BCF5F3FECF3C7
:102F5000983EDCF3869577956795B795F795E79555
:102F60009F5FC1F7FE2B880F911D9695879597F966
:102F70000895FA01EE0FFF1F30962105310599F1F2
:102F80006115710561F48038BFE39B0749F16894CE
:102F90009038810561F08038BFEF9B0741F099239D
:102FA00042F5FF3FE1053105210511F1E894089450
:102FB000E795D901AA2329F4AB2FBE2FF85FD0F3F0
:102FC00010C0FF5F70F4A695E0F7F73950F019F0E4
:102FD000FF3A38F49F779F930CD00F9007FC9058DE
:102FE00008953EF0C9CE60E070E080E89FE3089568
:102FF0004FE79F775F934F933F932F9317DF2F9167
:103000003F914F915F9152DF09C08CDE880B990B85
:10301000089519F40EF0AACEF3CEAECED7DEC8F3E3
:103020009638C0F707F80F92E8942BE33AEA48EB9A
:103030005FE74ADF0F920F920F924DB75EB70F9284
:103040008BD0EEE3F1E026D04F915F91EF91FF91AD
:10305000E595EE1FFF1F49F0FE57E0684427EE0F8D
:10306000441FFA95E1F74195550B42D00F9007FEAA
:1030700036C008959F3F49F0915028F48695779582
:103080006795B7959F5F80389F4F880F9695879576
:1030900097F90895DF93CF931F930F93FF92EF92C9
:1030A000DF927B018C01689405C0DA2EEF010ADF04
:1030B000FE01E894A5912591359145915591AEF386
:1030C000EF0103DDFE019701A801DA9479F7DF90A3
:1030D000EF90FF900F911F91CF91DF9108959B0189
:1030E000AC0160E070E080E89FE346CD3FCEC2CF08
:1030F0006DDEE8F39923D9F3940F511DBBF3915082
:10310000504094F059F0882332F0660F771F881FE3
:1031100091505040C1F79E3F510544F7880F911DD3
:103120009695879597F908955F3FACF0983E9CF08F
:10313000BB27869577956795B79508F4B160939509
:10314000C1F7BB0F58F711F460FFE8CF6F5F7F4FF7
:103150008F4F9F4FE3CF55CEFA01DC01AA0FBB1F63
:103160009B01AC01BF5728F422273327442750780E
:103170001FC0B75188F4AB2F00244695379527958B
:10318000011CA395D2F3002069F0220F331F441FC6
:10319000B395DAF30DD087CC61307105A0E88A07CA
:1031A000B94630F49B01AC016627772788279078D1
:1031B000309621F020833183428353830895629FA8
:1031C000D001739FF001829FE00DF11D649FE00D1F
:1031D000F11D929FF00D839FF00D749FF00D659F80
:1031E000F00D9927729FB00DE11DF91F639FB00D7F
:1031F000E11DF91FBD01CF0111240895A1E21A2E8E
:10320000AA1BBB1BFD010DC0AA1FBB1FEE1FFF1F8A
:10321000A217B307E407F50720F0A21BB30BE40BDA
:10322000F50B661F771F881F991F1A9469F7609521
:103230007095809590959B01AC01BD01CF010895DB
:10324000EE0FFF1F0590F491E02D1994F894FFCF35
:10325000417373657274696F6E206661696C656431
:1032600020696E2066696C6520636F64652F525417
:103270004F532F67736C5F73797374656D4C6F6117
:10328000642E632C206C696E652000417373657237
:1032900074696F6E206661696C656420696E206672
:1032A000696C6520636F64652F52544F532F72749D
:1032B0006F732E632C206C696E6520000A52547562
:1032C000696E4F5320312E3020666F722041726438
:1032D00075696E6F20312E302E350A436F7079720A
:1032E000696768742028432920323031322D32300A
:1032F0003133205065746572205672616E6B656E55
:1033000020286D61696C746F3A50657465725F5600
:1033100072616E6B656E405961686F6F2E646529CE
:103320000A54686973206973206672656520736F3B
:103330006674776172653B207365652074686520EB
:10334000736F7572636520666F7220636F70796941
:103350006E6720636F6E646974696F6E732E20549C
:1033600068657265206973204E4F0A7761727261D9
:103370006E74793B206E6F74206576656E20666F83
:1033800072204D45524348414E544142494C4954A4
:1033900059206F72204649544E45535320464F5290
:1033A000204120504152544943554C4152205055E0
:1033B00052504F53452E0054656D7065726174759F
:1033C00072653A2000626F4F530062546F6F6C2039
:1033D000763A302E3161004665726D656E746F729B
:1033E00020537461747573007461736B30315F6363
:1033F0006C61737330303A2041637469766174652F
:1034000064206279203078000A005265616420737C
:10341000656E736F723A20004F4B00436865636BB3
:1034200073756D206572726F720054696D65206FDF
:103430007574206572726F7200556E6B6E6F776E69
:10344000206572726F720048756D696469747920C5
:103450002825293A200054656D7065726174757273
:103460006520286F43293A200044657720506F6912
:103470006E7420286F43293A200044657720506FEE
:10348000696E744661737420286F43293A20006E78
:10349000616E00696E66006F7666002E00FFC004E4
:1034A000C800000000D00F4611660F970F770FC0BD
:1034B0000F000000002E14461100004000140054BC
:0234C00000000A
:00000001FF
