:10000000F8C0000022C1000020C100001EC1000095
:100010001CC100001AC1000018C1000016C1000078
:1000200014C1000012C1000010C100000EC1000088
:100030000CC100000AC1000008C100000C947E0C35
:1000400004C1000002C1000000C10000FEC00000A9
:10005000FCC00000FAC00000F8C000000C94391089
:10006000F4C000000C94FB100C94F711EEC00000DB
:10007000ECC00000EAC00000E8C00000E6C00000DC
:10008000E4C00000E2C00000E0C00000DEC00000EC
:100090000C943A110C943612D8C00000D6C000005F
:1000A000D4C00000D2C00000D0C00000CEC000000C
:1000B000CCC00000CAC00000C8C00000C6C000001C
:1000C000C4C00000C2C00000C0C000000C94791180
:1000D0000C947512BAC000000C94B8110C94B412B0
:1000E000B4C000000D525475696E4F5320312E304C
:1000F00020666F722041726475696E6F20312E30F8
:100100002E350A436F707972696768742028432915
:1001100020323031322D32303133205065746572E7
:10012000205672616E6B656E20286D61696C746F0C
:100130003A50657465725F5672616E6B656E4059B8
:1001400061686F6F2E6465290A546869732069734A
:10015000206672656520736F6674776172653B20F7
:100160007365652074686520736F757263652066BA
:100170006F7220636F7079696E6720636F6E646958
:1001800074696F6E732E20546865726520697320E0
:100190004E4F0A77617272616E74793B206E6F7494
:1001A000206576656E20666F72204D45524348414A
:1001B0004E544142494C495459206F72204649548B
:1001C0004E45535320464F522041205041525449EE
:1001D00043554C415220505552504F53452E0052DA
:1001E0005475696E4F532069732069646C65000013
:1001F000231411241FBECFEFD1E2DEBFCDBF00E03C
:100200000CBF13E0A0E0B2E0EAEFFDE200E00BBFBC
:1002100002C007900D92A034B107D9F71BBE1AE0B7
:10022000A0E4B3E001C01D92AD38B107E1F711E0E1
:10023000C2EFD1E004C02297FE010E94C016C03F69
:10024000D107C9F731D30C94FB16DACE0F931F9365
:10025000CF93DF938C01EB018B8181FF1BC082FF69
:100260000DC02E813F818C819D812817390764F450
:10027000E881F9810193F983E88306C0E885F9856F
:10028000802F1995892B31F48E819F8101969F8350
:100290008E8302C00FEF1FEFC801DF91CF911F9136
:1002A0000F910895A0E0B0E0E8E5F1E00C94D416D9
:1002B000FE013696619171918091890A90918A0A26
:1002C000AF0104D02096E2E00C94F016ABE0B0E071
:1002D000ECE6F1E00C94C4163C012B015A01FC0140
:1002E00017821682838181FD03C06FEF7FEFB9C152
:1002F0009AE0892E1E010894211C311CF3012381F0
:10030000F20123FD859123FF81912F01882309F4B8
:10031000A5C1853239F423FD859123FF81912F01F9
:10032000853221F490E0B30191DFE8CF982FFF24CC
:10033000EE249924FFE1FF15D0F09B3269F09C3246
:1003400028F4903259F0933291F40EC09D3249F066
:10035000903369F441E024C052E0F52A84E0F82AA1
:1003600028C098E0F92A25C0E0E1FE2A22C0F7FC67
:1003700029C0892F80538A3070F4F6FE05C0989CFE
:10038000902C1124980E15C0E89CE02C1124E80E46
:10039000F0E2FF2A0EC09E3229F4F6FC5FC140E471
:1003A000F42A07C09C3619F450E8F52A02C09836A2
:1003B00049F4F20123FD959123FF91912F01992397
:1003C00009F0B8CF892F8554833018F080528330DC
:1003D00038F444E050E0A40EB51E5FE359830FC02B
:1003E000933631F0933779F0933509F052C01FC03E
:1003F000F5018081898342E050E0A40EB51E6101C1
:1004000001E010E011C0F501C080D180F6FC03C00E
:100410006FEF7FEF02C0692D70E042E050E0A40E64
:10042000B51EC6012ED18C015FE7F52213C0F50180
:10043000C080D180F6FC03C06FEF7FEF02C0692D52
:1004400070E042E050E0A40EB51EC6010FD18C0151
:1004500050E8F52AF3FE06C018C080E290E0B30130
:10046000F5DEEA948E2D90E008171907B0F30DC061
:10047000F601F7FC8591F7FE81916F0190E0B301E1
:10048000E5DEE110EA94015010400115110581F7F5
:10049000E2C0943611F0993661F5F7FE08C0F50117
:1004A000208131814281538184E090E00AC0F501CE
:1004B000808191819C01442737FD4095542F82E033
:1004C00090E0A80EB91E9FE6F92257FF09C050958B
:1004D0004095309521953F4F4F4F5F4FE0E8FE2A02
:1004E000CA01B901A1012AE030E0D6D0D82ED21835
:1004F0003FC0953729F41F2D1F7E2AE030E01DC034
:100500001F2D197F9F3661F0903720F4983509F040
:10051000A5C00FC0903739F0983709F09FC004C0CC
:1005200028E030E00AC0106114FD146020E130E0E2
:1005300004C014FD166020E132E017FF08C0F50189
:10054000608171818281938144E050E008C0F501AF
:1005500080819181BC0180E090E042E050E0A40EF7
:10056000B51EA10199D0D82ED2188FE7F82EF1220E
:10057000F6FE0BC05EEFF522D91438F4F4FE07C086
:10058000F2FC05C08FEEF82202C01D2D01C0192D0E
:10059000F4FE0DC0FE01ED0DF11D8081803319F4D4
:1005A00099EEF92208C01F5FF2FE05C003C08F2D2F
:1005B000867809F01F5F0F2DF3FC13C0F0FE0EC00C
:1005C0001E1510F09D2C0AC09D2C9E0C911A1E2DFC
:1005D00005C080E290E0B30139DE1F5F1E15C8F34D
:1005E00004C01E1510F4E11A01C0EE2404FF0EC071
:1005F00080E390E0B3012ADE02FF1BC001FD03C0CF
:1006000088E790E00EC088E590E00BC0802F8678E8
:1006100081F001FF02C08BE201C080E2F7FC8DE2B5
:1006200090E0B30113DE05C080E390E0B3010EDE7D
:100630009A94D914C8F3DA94F101ED0DF11D80817B
:1006400090E0B30103DEDD20B1F705C080E290E069
:10065000B301FCDDEA94EE20C9F750CEF3016681C8
:100660007781CB012B96E2E10C94E016FC0105901A
:10067000615070400110D8F7809590958E0F9F1FA4
:100680000895FC016150704001900110D8F78095E9
:1006900090958E0F9F1F0895FA01AA27283051F1D7
:1006A000203181F1E8946F936E7F6E5F7F4F8F4FA3
:1006B0009F4FAF4FB1E03ED0B4E03CD0670F781F02
:1006C000891F9A1FA11D680F791F8A1F911DA11DE7
:1006D0006A0F711D811D911DA11D20D009F4689420
:1006E0003F912AE0269F11243019305D3193DEF6C8
:1006F000CF010895462F4770405D4193B3E00FD07E
:10070000C9F7F6CF462F4F70405D4A3318F0495D68
:1007100031FD4052419302D0A9F7EACFB4E0A6954B
:100720009795879577956795BA95C9F7009761056D
:10073000710508959B01AC010A2E069457954795C3
:1007400037952795BA95C9F7620F731F841F951FB8
:10075000A01D08954F925F926F927F929F92AF92E9
:10076000BF92CF92DF92EF92FF920F931F93DF938E
:10077000CF9300D00F92CDB7DEB70E9481102B012E
:100780003C0138EEE32E33E0F32E012D112DE60E61
:10079000F71E081F191F9924939486E79EE30E9471
:1007A0008F100E9481105B016C016E157F05800720
:1007B000910790F38FE3891508F441C08601750114
:1007C000E418F50806091709892D90E0829592959D
:1007D000907F9827807F98275C01CC24DD24C60178
:1007E000B50128EC30E040E050E00E947D16E616AE
:1007F000F7060807190708F5AE14BF04C006D106AE
:10080000D0F4A80197010E949C1688EC821B0F90DF
:100810000F900F900F90CF91DF911F910F91FF904C
:10082000EF90DF90CF90BF90AF909F907F906F90B0
:100830005F904F90089580E0EACF88ECE8CF7894FD
:1008400080E090E0A0E4B0E089839A83AB83BC832E
:100850008FEF99E060E072E00E947B168FEF99E0E5
:100860006EE770E04AE050E00E945E1689819A814E
:10087000AB81BC810097A105B10599F089819A816E
:10088000AB81BC810197A109B10989839A83AB83AC
:10089000BC8389819A81AB81BC810097A105B10598
:1008A00069F70C9400008ACF0E949910F6D480E07A
:1008B00090E00895E0E7F0E0808181608083089512
:1008C000AF92BF92CF92DF92EF92FF920F931F935E
:1008D000DF93CF9300D00F92CDB7DEB78C0180703D
:1008E000907C892B09F0DBC1602FC12C3FEFD32E08
:1008F000C022D12270914C03EE24FF24F71608F099
:1009000018C1EF2DF0E0EE0FFF1FEC5BFC4F0081F4
:100910001181D8011B962D913C911C9759011D9670
:10092000ED91FC911E97C6018E239F23282B392B16
:100930001C963C932E931B97662309F4B9C0C901FA
:10094000809590958E239F23462F50E084239523F6
:1009500080FF0CC0C90181601C969C938E931B97ED
:100960006E7F09F4A4C09C01462F50E0C901809518
:1009700090958E239F238270907084239523892BDA
:1009800069F0C9018260D8011C969C938E931B97D5
:100990006D7F09F48CC09C01462F50E0C901809501
:1009A00090958E239F238470907084239523892BA8
:1009B00069F0C9018460D8011C969C938E931B97A3
:1009C0006B7F09F474C09C01462F50E0C9018095EB
:1009D00090958E239F238870907084239523892B74
:1009E00069F0C9018860D8011C969C938E931B976F
:1009F000677F09F45CC09C01462F50E0C9018095D7
:100A000090958E239F238071907084239523892B4A
:100A100069F0C9018061D8011C969C938E931B9745
:100A20006F7E09F444C09C01462F50E0C9018095B7
:100A300090958E239F238072907084239523892B19
:100A400061F0C9018062D8011C969C938E931B971C
:100A50006F7D69F19C01462F50E0C901809590950A
:100A60008E239F238074907084239523892B61F0BB
:100A7000C9018064D8011C969C938E931B976F7B51
:100A8000B1F09C01462F50E0C901809590958E23CE
:100A90009F238078907084239523892B49F0C90186
:100AA0008068D8011C969C938E931B976F779C014E
:100AB0002A153B0509F4A8C0D8011F968C918823FC
:100AC00051F4CF01822793279F73892B39F02E236E
:100AD0003F232070307C232B09F496C0D801129656
:100AE000EC91F0E0DF01A35BBC4F8C91E80FF11DAE
:100AF000EE0FFF1FEF5AFC4F118300838F5F8C9323
:100B00007150F71688F42F2DE22FF0E0EE0FFF1F43
:100B1000DF01AA5BBC4F8D919C91EC5BFC4F9183F4
:100B200080832F5F271780F3EE24E394F71608F4F1
:100B3000E8CE70934C03662309F453C0FF24A12C24
:100B4000B12C70E4C72ED12C08C0C80195958795AB
:100B5000682F882309F445C0F394062F10E060FF46
:100B6000F4CFEF2DF0E0E254FC4F80818F5F808363
:100B7000882359F77894A982BA82CB82DC828FEFDE
:100B800099E06BE372E00E947B168FEF99E064E4DA
:100B900074E04AE050E00E945E1689819A81AB8140
:100BA000BC810097A105B10599F089819A81AB813B
:100BB000BC810197A109B10989839A83AB83BC8366
:100BC00089819A81AB81BC810097A105B10569F744
:100BD0000C940000C80195958795682F882309F02B
:100BE000BBCFEE2099F440E0842F0F900F900F9030
:100BF0000F90CF91DF911F910F91FF90EF90DF90B9
:100C0000CF90BF90AF900895F39478CE8091500329
:100C1000882309F079C080914F03882309F08FC0A1
:100C200080914E03882309F08DC080914D03882365
:100C300009F08BC0789480E090E0A0E4B0E0898374
:100C40009A83AB83BC838FEF99E06BE372E00E94E1
:100C50007B168FEF99E06EEC72E04AE050E00E9464
:100C60005E1689819A81AB81BC810097A105B1058F
:100C700099F089819A81AB81BC810197A109B10961
:100C800089839A83AB83BC8389819A81AB81BC8140
:100C90000097A105B10569F70C940000A4CF7894E2
:100CA00080E090E0A0E4B0E089839A83AB83BC83CA
:100CB0008FEF99E06BE372E00E947B168FEF99E073
:100CC0006EEC73E04AE050E00E945E1689819A81E2
:100CD000AB81BC810097A105B10599F089819A810A
:100CE000AB81BC810197A109B10989839A83AB8348
:100CF000BC8389819A81AB81BC810097A105B10534
:100D000069F70C940000F0CDE3E0F0E020912E03B1
:100D100030912F0330935A0320935903EE0FFF1F96
:100D2000EF5AFC4F8081918190932F0380932E0383
:100D300040E02817390761F081E0482755CFE2E00D
:100D4000F0E0E4CFE1E0F0E0E1CFE0E0F0E0DECFA2
:100D500041E0F2CFF8940F920FB60F921F922F92AC
:100D60003F924F925F926F927F928F929F92AF923B
:100D7000BF92CF92DF92EF92FF920F931F932F9328
:100D80003F934F935F936F937F93AF93BF93CF93B3
:100D9000DF93EF93FF938F939F9392DD882309F462
:100DA00035C0A0912E03B0912F038D919C91119786
:100DB00090934303809342030DB6009240030EB616
:100DC00000924103009042030DBE009043030EBE0B
:100DD0008091400390914103E0915903F0915A03AF
:100DE000918380831B968D919C911C97009771F045
:100DF00090934303809342031C961C921E921B9770
:100E0000009042030F92009043030F929F918F91A5
:100E1000FF91EF91DF91CF91BF91AF917F916F9152
:100E20005F914F913F912F911F910F91FF90EF9004
:100E3000DF90CF90BF90AF909F908F907F906F90FA
:100E40005F904F903F902F901F900F900FBE0F908C
:100E50001895BF92CF92DF92EF92FF920F931F935C
:100E6000DF93CF9300D00F92CDB7DEB78C01C62EA3
:100E7000B42EE0902E03F0902F032FE9E21623E02A
:100E8000F20609F432C1902F002309F160E071E00D
:100E900002C06F5F770F492F50E090FF12C0E62F1E
:100EA000F0E0E254FC4F8081882359F08150808328
:100EB000272F30E0F70183859485822B932B94872D
:100EC0008387CA0195958795982F882311F7CC20A1
:100ED000B9F0F70183859485802791279F73892B2B
:100EE000A1F480E00F900F900F900F90CF91DF91C1
:100EF0001F910F91FF90EF90DF90CF90BF900895DA
:100F0000F70183859485892B61F7F701D2806D2DD8
:100F100070E0FB01E35BFC4F80818150808388237C
:100F2000D9F0E0E0F0E021E030E0482F50E04F5F02
:100F30005F4FE60FF71FEE0FFF1FDF01AD5ABC4FEB
:100F40008D919C91EF5AFC4F91838083F9012F5F23
:100F50003F4F2417350769F70115110561F0C801E6
:100F60008070907C8050904C31F0CC20C1F1C80151
:100F70009F73892BA1F5789480E090E0A0E4B0E025
:100F800089839A83AB83BC838FEF99E06BE372E034
:100F90000E947B168FEF99E060E475E04AE050E034
:100FA0000E945E1689819A81AB81BC810097A10560
:100FB000B10599F089819A81AB81BC810197A10922
:100FC000B10989839A83AB83BC8389819A81AB8180
:100FD000BC810097A105B10569F70C94000016FFCC
:100FE00075C0F70185818B0D858390912D03891B39
:100FF00018160CF071C0F701168705871786CC20EC
:1010000011F481E0878790914C03692F70E061159E
:10101000710509F4B1C0E0914403F0914503828168
:101020008D1508F4A9C0A6E4B3E021E030E007C0C4
:10103000ED91FD9182812F5F3F4F8D1528F0122F8A
:10104000A90126173707A4F3292F21509F5F9093FA
:101050004C03211784F0E22FFF27E7FDF095EE0FF8
:10106000FF1FEC5BFC4F8081918193838283215031
:1010700032972117C4F7440F551F4C5B5C4FFA01A0
:10108000F182E08280912E0390912F0390935A0376
:10109000809359038FE993E090932F0380932E035D
:1010A00080915003882309F06BC080914F038823FF
:1010B00009F069C080914E03882309F067C08091D0
:1010C0004D03882309F04AC081E00CCFFFEFBF1227
:1010D000B394F701B2868FCF80898F3F11F08F5F75
:1010E000808B9F5FF701958386CF789480E090E0B6
:1010F000A0E4B0E089839A83AB83BC838FEF99E04F
:101100006BE372E00E947B168FEF99E066EE75E06C
:101110004AE050E00E945E1689819A81AB81BC81D1
:101120000097A105B10599F089819A81AB81BC81B5
:101130000197A109B10989839A83AB83BC83898113
:101140009A81AB81BC810097A105B10569F70C9428
:101150000000E0902E03F0902F0395CEE0E0F0E049
:10116000EE0FFF1FEF5AFC4F8081918190932F0368
:1011700080932E0381E0B6CE10E040E050E064CFD3
:10118000E3E0F0E0EDCFE2E0F0E0EACFE1E0F0E034
:10119000E7CFF8940F920FB60F921F922F923F92C3
:1011A0004F925F926F927F928F929F92AF92BF9277
:1011B000CF92DF92EF92FF920F931F932F933F9363
:1011C0004F935F936F937F93AF93BF93CF93DF93CF
:1011D000EF93FF933EDE882309F03DC0A0912E03DC
:1011E000B0912F031B968D919C911C97009771F0E5
:1011F00090934303809342031C961C921E921B976C
:10120000009042030F92009043030F929F918F91A1
:10121000FF91EF91DF91CF91BF91AF917F916F914E
:101220005F914F913F912F911F910F91FF90EF9000
:10123000DF90CF90BF90AF909F908F907F906F90F6
:101240005F904F903F902F901F900F900FBE0F9088
:10125000189580E090E0A0912E03B0912F038D911E
:101260009C91119790934303809342030DB6009293
:1012700040030EB600924103009042030DBE009061
:1012800043030EBE8091400390914103E0915903C6
:10129000F0915A0391838083A5CF6F927F928F92B2
:1012A0009F92AF92BF92CF92DF92EF92FF920F93F5
:1012B0001F93DF93CF9300D00F92CDB7DEB70BE52E
:1012C00013E085E5D8011D928A95E9F795D444E4A9
:1012D000C42E43E0D42EEE24FF24812C912C30E444
:1012E000A32EB12C20E8722E99E2692EF801838199
:1012F0009481009761F0668177816115710539F0FD
:101300000084F185E02DE233F10508F03DC07894CA
:1013100089829A82AB82BC828FEF99E06BE372E0A4
:101320000E947B168FEF99E06AED77E04AE050E08B
:101330000E945E1689819A81AB81BC810097A105CC
:10134000B10599F089819A81AB81BC810197A1098E
:10135000B10989839A83AB83BC8389819A81AB81EC
:10136000BC810097A105B10569F70C940000D80174
:1013700016966D917C9117971896ED91FC9119979F
:1013800013968D919C9114973197E60FF71F108259
:10139000DF011E921E928E939C01442737FD4095DB
:1013A000542F3E93252F3327442755272E931E92E3
:1013B0007E921E92CD010197DC017F971C921197BE
:1013C000AE17BF07D9F74697FC011082DC011E92C9
:1013D000FD011292DF011E92FD011292DF011E92A9
:1013E0001197A617B70730F0FD0160823197E61715
:1013F000F707D8F7F801B183A08314861386108A03
:10140000C70182959295907F9827807F98278E0DAF
:101410009F1D855A9C4FD6018D939D936D01089415
:10142000E11CF11C0F5E1F4FB4E0EB16F10409F054
:101430005DCF84E080934C032FE933E01092A0034A
:1014400010929F031092A4031092A9031092AB0371
:101450001092AA031092AD031092AC0381E0809326
:10146000AE031092AF0310924D0310924E031092F0
:101470004F031092500330932F0320932E03309389
:101480005A032093590316DA53D3FECF8F929F92BB
:10149000AF92BF92CF92DF92EF92FF920F931F9382
:1014A000DF93CF9300D00F92CDB7DEB74701BC2CAE
:1014B000E82EFF246701C294D29450EFD522DC2499
:1014C000C522DC24F601EE0DFF1DE55AFC4F7483A6
:1014D00063833783268311870087428381149104B5
:1014E00009F4C2C0882009F4A3C0789480E090E099
:1014F000A0E4B0E089839A83AB83BC838FEF99E04B
:101500006BE372E00E947B168FEF99E06CE877E066
:101510004AE050E00E945E1689819A81AB81BC81CD
:101520000097A105B10599F089819A81AB81BC81B1
:101530000197A109B10989839A83AB83BC8389810F
:101540009A81AB81BC810097A105B10569F70C9424
:101550000000F601EE0DFF1DE55AFC4F12861582C4
:10156000C4018070907C8050904C09F06AC07894DF
:1015700080E090E0A0E4B0E089839A83AB83BC83F1
:101580008FEF99E06BE372E00E947B168FEF99E09A
:1015900060E475E04AE050E00E945E1689819A811D
:1015A000AB81BC810097A105B10599F089819A8131
:1015B000AB81BC810197A109B10989839A83AB836F
:1015C000BC8389819A81AB81BC810097A105B1055B
:1015D00069F70C94000096FE3DC0F601EE0DFF1D6C
:1015E000E55AFC4F85818A0D858390912D03891BD7
:1015F00018160CF075C0F601EE0DFF1DE55AFC4FF4
:10160000968685861786BB2011F481E087870F9028
:101610000F900F900F90CF91DF911F910F91FF903E
:10162000EF90DF90CF90BF90AF909F908F900895F4
:1016300012861582C4018070907C8050904C09F411
:1016400096CFBB2041F2C4019F73892B09F48FCF41
:1016500096FCC3CF8FEFA812A394F601EE0DFF1DE9
:10166000E55AFC4FA286C7CF789480E090E0A0E4D2
:10167000B0E089839A83AB83BC838FEF99E06BE3FF
:1016800072E00E947B168FEF99E068E877E04AE00D
:1016900050E00E945E1689819A81AB81BC810097DF
:1016A000A105B10599F089819A81AB81BC8101972F
:1016B000A109B10989839A83AB83BC8389819A810B
:1016C000AB81BC810097A105B10569F70C940000BE
:1016D000F601EE0DFF1DE55AFC4F1286158247CF2D
:1016E00080898F3F11F08F5F808BF601EE0DFF1D1B
:1016F000E55AFC4F9F5F95837ECFFF920F931F9318
:10170000DF93CF9300D00F92CDB7DEB7F0902D03CB
:10171000F394F0922D0310914C03A0E000E0011728
:1017200008F061C0E02FF0E0EE0FFF1FEC5BFC4F14
:1017300020813181F90143855485BA018581F816EC
:1017400009F463C0F9018285882361F081508287A2
:10175000882341F48585968580709078482B592B95
:10176000548743874617570709F44DC0F901878509
:10177000882369F4F90165857685CB01842795274F
:101780009F73892B31F0462357234070507C452BA3
:10179000D1F1D9011296EC91F0E0DF01A35BBC4FCF
:1017A0008C91E80FF11DEE0FFF1FEF5AFC4F3183B4
:1017B00020838F5F8C931150011788F4202FE22F24
:1017C000F0E0EE0FFF1FDF01AA5BBC4F8D919C91F3
:1017D000EC5BFC4F918380832F5F211780F3A1E0A6
:1017E000011708F49FCF10934C03AA23C1F440E0E3
:1017F000842F0F900F900F900F90CF91DF911F913A
:101800000F91FF9008950F5F8ACF85859685807030
:101810009074842B952B94878387AC0193CF809110
:101820005003882309F044C080914F03882309F0B6
:101830005AC080914E03882309F058C080914D030F
:10184000882309F056C0789480E090E0A0E4B0E0EE
:1018500089839A83AB83BC838FEF99E06BE372E05B
:101860000E947B168FEF99E06EEC72E04AE050E048
:101870000E945E1689819A81AB81BC810097A10587
:10188000B10599F089819A81AB81BC810197A10949
:10189000B10989839A83AB83BC8389819A81AB81A7
:1018A000BC810097A105B10569F70C9400009FCF9A
:1018B000E3E0F0E020912E0330912F0330935A03A0
:1018C00020935903EE0FFF1FEF5AFC4F8081918147
:1018D00090932F0380932E0340E02817390761F07F
:1018E00081E0482785CFE2E0F0E0E4CFE1E0F0E0FE
:1018F000E1CFE0E0F0E0DECF41E0F2CF0F920FB6B3
:101900000F921F922F923F924F925F926F927F920F
:101910008F929F92AF92BF92CF92DF92EF92FF92FF
:101920000F931F932F933F934F935F936F937F93E7
:10193000AF93BF93CF93DF93EF93FF938F939F93D7
:101940001124DBDE882309F435C0A0912E03B09169
:101950002F038D919C9111979093430380934203A1
:101960000DB6009240030EB6009241030090420370
:101970000DBE009043030EBE809140039091410341
:10198000E0915903F0915A03918380831B968D91C6
:101990009C911C97009771F09093430380934203AE
:1019A0001C961C921E921B97009042030F9200906F
:1019B00043030F929F918F91FF91EF91DF91CF9110
:1019C000BF91AF917F916F915F914F913F912F9117
:1019D0001F910F91FF90EF90DF90CF90BF90AF904D
:1019E0009F908F907F906F905F904F903F902F903F
:1019F0001F900F900FBE0F90189580EB93E090937F
:101A00008A0A8093890A88E39DE09093B9038093C2
:101A1000B8031092BB031092BA0382E08093B30321
:101A20001092BD031092BC030895CF93DF93FC0185
:101A30008491882381F0EF0121966091890A709149
:101A40008A0A992787FD90950E942601FE0121961A
:101A50008491882391F76091890A70918A0A8AE0BB
:101A600090E00E94260180E090E0DF91CF91089500
:101A70001F93DF93CF9300D00F92CDB7DEB7182F0F
:101A80008091890A90918A0A86179707A1F1789424
:101A900080E090E0A0E4B0E089839A83AB83BC83CC
:101AA0008FEF99E06CE672E00E947B168FEF99E071
:101AB00060E570E04AE050E00E945E1689819A81FC
:101AC000AB81BC810097A105B10599F089819A810C
:101AD000AB81BC810197A109B10989839A83AB834A
:101AE000BC8389819A81AB81BC810097A105B10536
:101AF00069F70C9400001A30B1F0612F772767FD69
:101B000070958FEF99E05FD620E030E0019711F0FB
:101B100021E030E0C9010F900F900F900F90CF910E
:101B2000DF911F9108958FEF99E06DE04CD6E5CFDE
:101B3000EF92FF920F931F938FED91E076DF0E945B
:101B4000AA03282F30E080FD54C04CEA52E000D0B8
:101B500000D0EDB7FEB7319680EB92E0ADB7BEB7DF
:101B600012969C938E9311973595279533832283F4
:101B7000558344830E945201F894E090C603F0908C
:101B8000C7030091C8031091C90378942DB73EB7DD
:101B90002A5F3F4F0FB6F8943EBF0FBE2DBFB1D2A4
:101BA000ADB7BEB71A970FB6F894BEBF0FBEADBFA4
:101BB000EDB7FEB7319624EC32E012963C932E93AB
:101BC0001197E282F382048315836683778380878B
:101BD00091870E9452012DB73EB7265F3F4F0FB647
:101BE000F8943EBF0FBE2DBF1F910F91FF90EF9055
:101BF00008954EEA52E0ABCFAF92CF92EF92FF92B0
:101C00000F931F938FEF99E040E855E260E070E09A
:101C1000EAD4F3DE80E06CE97FE040E02AEC33E0D8
:101C200000E011E0E12C90E8F92ECC24AA24A39442
:101C30002DDC81E061E07FE041E02AEC34E026DC4D
:101C400082E066E67EE042E02AEC35E01FDC83E0DD
:101C500068E37EE043E02AEC36E018DC84EE90E0B6
:101C6000E4DE1F910F91FF90EF90CF90AF90089519
:101C70008EE090E06FD880E090E860E041E089DAA3
:101C800080E790E067D88091CA079091CB07A09138
:101C9000CC07B091CD070196A11DB11D8093CA0755
:101CA0009093CB07A093CC07B093CD0780E090E84A
:101CB00060E041E06EDA80E890E04CD880E090E4AB
:101CC00060E045E066DA892B99F60895EF92FF927D
:101CD0000F931F93DF93CF9300D00F92CDB7DEB752
:101CE000E12CF12C20E4022F112D87E090E860E038
:101CF00046E04FDA069771F17894E982FA820B8315
:101D00001C838FEF99E064EE72E0F5D78FEF99E0D6
:101D10006AE870E04AE050E0D1D789819A81AB81CE
:101D2000BC810097A105B10599F089819A81AB81A9
:101D3000BC810197A109B10989839A83AB83BC83D4
:101D400089819A81AB81BC810097A105B10569F7B2
:101D50000C9400002091C6033091C7034091C80342
:101D60005091C9038091CA079091CB07A091CC07ED
:101D7000B091CD07281739074A075B0771F17894AE
:101D8000E982FA820B831C838FEF99E064EE72E0A4
:101D9000B2D78FEF99E06CE870E04AE050E08ED760
:101DA00089819A81AB81BC810097A105B10599F029
:101DB00089819A81AB81BC810197A109B10989838D
:101DC0009A83AB83BC8389819A81AB81BC81009764
:101DD000A105B10569F70C9400008091C6039091AC
:101DE000C703A091C803B091C9030196A11DB11DFD
:101DF0008093C6039093C703A093C803B093C9030D
:101E000074CFEF92FF920F931F93DF93CF9300D085
:101E10000F92CDB7DEB7E12CF12C30E4032F112D5A
:101E20008FE090E860E046E0B4D9089771F17894CB
:101E3000E982FA820B831C838FEF99E064EE72E0F3
:101E40005AD78FEF99E069EA70E04AE050E036D760
:101E500089819A81AB81BC810097A105B10599F078
:101E600089819A81AB81BC810197A109B1098983DC
:101E70009A83AB83BC8389819A81AB81BC810097B3
:101E8000A105B10569F70C9400002091CE073091AF
:101E9000CF074091D0075091D1078091CA07909108
:101EA000CB07A091CC07B091CD07281739074A0777
:101EB0005B0771F17894E982FA820B831C838FEFC0
:101EC00099E064EE72E017D78FEF99E06BEA70E06B
:101ED0004AE050E0F3D689819A81AB81BC810097BA
:101EE000A105B10599F089819A81AB81BC810197E7
:101EF000A109B10989839A83AB83BC8389819A81C3
:101F0000AB81BC810097A105B10569F70C94000075
:101F10008091CE079091CF07A091D007B091D107C3
:101F20000196A11DB11D8093CE079093CF07A0937A
:101F3000D007B093D10774CFEF92FF920F931F9306
:101F4000DF93CF9300D00F92CDB7DEB7E12CF12C09
:101F500040E4042F112D80EF90E861E046E019D9AC
:101F6000803F910571F17894E982FA820B831C839A
:101F70008FEF99E064EE72E0BED68FEF99E065ECEA
:101F800070E04AE050E09AD689819A81AB81BC81A9
:101F90000097A105B10599F089819A81AB81BC8137
:101FA0000197A109B10989839A83AB83BC83898195
:101FB0009A81AB81BC810097A105B10569F70C94AA
:101FC00000008091D2079091D307A091D407B091DF
:101FD000D5070196A11DB11D8093D2079093D30719
:101FE000A093D407B093D5072091D2073091D3079F
:101FF0004091D4075091D5078091CA079091CB07A3
:10200000A091CC07B091CD07281739074A075B0785
:1020100009F4A1CF7894E982FA820B831C838FEFB5
:1020200099E064EE72E067D68FEF99E068EC70E0BB
:102030004AE050E043D689819A81AB81BC81009708
:10204000A105B10599F089819A81AB81BC81019785
:10205000A109B10989839A83AB83BC8389819A8161
:10206000AB81BC810097A105B10569F70C94000014
:1020700072CF1F920F920FB60F9211242F933F939E
:102080008F939F93AF93BF938091DA079091DB0773
:10209000A091DC07B091DD073091DE070196A11D0C
:1020A000B11D232F2D5F2D3720F02D570196A11D37
:1020B000B11D2093DE078093DA079093DB07A0938E
:1020C000DC07B093DD078091D6079091D707A091E8
:1020D000D807B091D9070196A11DB11D8093D607ED
:1020E0009093D707A093D807B093D907BF91AF912A
:1020F0009F918F913F912F910F900FBE0F901F9046
:1021000018958FB7F8942091DA073091DB0740914A
:10211000DC075091DD078FBFB901CA01089501970F
:1021200039F0880F991F880F991F02970197F1F7CF
:102130000895789484B5826084BD84B5816084BD3F
:1021400085B5826085BD85B5816085BDEEE6F0E030
:10215000808181608083E1E8F0E01082808182608C
:102160008083808181608083E0E8F0E0808181600D
:102170008083E1EBF0E0808184608083E0EBF0E03D
:10218000808181608083E1E9F0E0808182608083EA
:10219000808181608083E0E9F0E0808181608083DC
:1021A000E1EAF0E0808182608083808181608083C9
:1021B000E0EAF0E0808181608083E1E2F1E080810B
:1021C00082608083808181608083E0E2F1E08081B1
:1021D00081608083EAE7F0E0808184608083808191
:1021E0008260808380818160808380818068808339
:1021F0001092C10008951F920F920FB60F920BB666
:102200000F9211242F933F934F938F939F93EF93AC
:10221000FF938091C00082FD1DC04091C6002091B7
:102220001F08309120082F5F3F4F2F73307080912F
:102230002108909122082817390771F0E0911F08B2
:10224000F0912008E152F84F40833093200820930A
:102250001F0802C08091C600FF91EF919F918F915E
:102260004F913F912F910F900BBE0F900FBE0F908B
:102270001F9018951F920F920FB60F920BB60F92E8
:1022800011242F933F934F938F939F93EF93FF933B
:102290008091C80082FD1DC04091CE002091A7080A
:1022A0003091A8082F5F3F4F2F7330708091A9089D
:1022B0009091AA082817390771F0E091A708F091CA
:1022C000A808E959F74F40833093A8082093A7083E
:1022D00002C08091CE00FF91EF919F918F914F911D
:1022E0003F912F910F900BBE0F900FBE0F901F903C
:1022F00018951F920F920FB60F920BB60F921124E2
:102300002F933F934F938F939F93EF93FF938091DE
:10231000D00082FD1DC04091D60020912F09309140
:1023200030092F5F3F4F2F733070809131099091AA
:1023300032092817390771F0E0912F09F09130091F
:10234000E151F74F40833093300920932F0902C0A9
:102350008091D600FF91EF919F918F914F913F9186
:102360002F910F900BBE0F900FBE0F901F901895DE
:102370001F920F920FB60F920BB60F9211242F934C
:102380003F934F938F939F93EF93FF9380913001EF
:1023900082FD1DC0409136012091B7093091B809E6
:1023A0002F5F3F4F2F7330708091B9099091BA0918
:1023B0002817390771F0E091B709F091B809E95889
:1023C000F64F40833093B8092093B70902C080913B
:1023D0003601FF91EF919F918F914F913F912F91F6
:1023E0000F900BBE0F900FBE0F901F9018951F926D
:1023F0000F920FB60F920BB60F9211242F933F93AB
:102400008F939F93EF93FF9320916308309164081B
:1024100080916508909166082817390731F48091FA
:10242000C1008F7D8093C10014C0E0916508F091D8
:102430006608ED5DF74F20818091650890916608F0
:1024400001968F739070909366088093650820932F
:10245000C600FF91EF919F918F913F912F910F9027
:102460000BBE0F900FBE0F901F9018951F920F92EA
:102470000FB60F920BB60F9211242F933F938F93A9
:102480009F93EF93FF932091EB083091EC0880919C
:10249000ED089091EE082817390731F48091C900B2
:1024A0008F7D8093C90014C0E091ED08F091EE0893
:1024B000E555F74F20818091ED089091EE08019647
:1024C0008F7390709093EE088093ED082093CE0068
:1024D000FF91EF919F918F913F912F910F900BBEA4
:1024E0000F900FBE0F901F9018951F920F920FB66E
:1024F0000F920BB60F9211242F933F938F939F93BC
:10250000EF93FF93209173093091740980917509BD
:10251000909176092817390731F48091D1008F7D89
:102520008093D10014C0E0917509F0917609ED5CBB
:10253000F64F2081809175099091760901968F73ED
:10254000907090937609809375092093D600FF913F
:10255000EF919F918F913F912F910F900BBE0F9014
:102560000FBE0F901F9018951F920F920FB60F92EB
:102570000BB60F9211242F933F938F939F93EF935A
:10258000FF932091FB093091FC098091FD09909106
:10259000FE092817390731F4809131018F7D80932E
:1025A000310114C0E091FD09F091FE09E554F64FA8
:1025B00020818091FD099091FE0901968F739070A2
:1025C0009093FE098093FD0920933601FF91EF91CE
:1025D0009F918F913F912F910F900BBE0F900FBE47
:1025E0000F901F901895AF92BF92DF92EF92FF92DB
:1025F0000F931F93CF93DF93EC017A018B01DD24BE
:10260000403081EE580780E0680780E0780711F0DD
:10261000DD24D39491E0A92EB12CEC89FD89DD2035
:1026200069F0C50108A002C0880F991F0A94E2F75B
:10263000808360E079E08DE390E005C0108260E87F
:1026400074E88EE190E0A801970176D321503040E4
:1026500040405040569547953795279580E120306A
:10266000380720F0DD2011F0DD24D7CFE889F98983
:102670003083EA89FB89208319A2EE89FF89408192
:1026800021E030E0C9010C8C02C0880F991F0A9428
:10269000E2F7482B4083EE89FF894081C9010D8C08
:1026A00002C0880F991F0A94E2F7482B4083EE89F5
:1026B000FF894081C9010E8C02C0880F991F0A94BE
:1026C000E2F7482B4083EE89FF8980810F8C02C09E
:1026D000220F331F0A94E2F7209528232083DF91ED
:1026E000CF911F910F91FF90EF90DF90BF90AF902F
:1026F0000895DC011C96ED91FC911D97E05CFF4F65
:102700002191319180819181281B390B2F73307079
:10271000C9010895DC011C96ED91FC911D97E05CC8
:10272000FF4F20813181E054F040DF01AE5BBF4FAD
:102730008D919C9111972817390719F42FEF3FEFCE
:1027400007C08D919C91E80FF91F8081282F30E000
:10275000C9010895DC011C96ED91FC911D97E05C88
:10276000FF4F20813181E054F040DF01AE5BBF4F6D
:102770008D919C9111972817390719F42FEF3FEF8E
:1027800010C08D919C911197E80FF91F20818D91B8
:102790009C91119701968F73907011969C938E93D4
:1027A00030E0C9010895DC0191968C9191978823BE
:1027B00039F05496ED91FC915597808186FFF9CFC1
:1027C00091961C920895CF93DF93EC01EE85FF85DF
:1027D000E05CFF4F20813181E054F0402F5F3F4F9C
:1027E0002F733070DF01AE5BBF4F8D919C911197BD
:1027F00028173907D1F3E05CFF4F80819181E054C5
:10280000F040E80FF91F6083EE85FF85E05CFF4F25
:1028100031832083EE89FF89208181E090E00F8C55
:1028200002C0880F991F0A94E2F7282B208381E0C9
:1028300089A3EC89FD8980818064808381E090E0B8
:10284000DF91CF9108951F931092020A1092010A0E
:1028500028EE33E040E050E02093030A3093040A6E
:102860004093050A5093060A64E373E07093000AEC
:102870006093FF098FED97E090930C0A80930B0A09
:1028800083E298E090930E0A80930D0A85EC90E025
:102890009093100A80930F0A84EC90E09093120AB0
:1028A0008093110A80EC90E09093140A8093130AAD
:1028B00081EC90E09093160A8093150A82EC90E0E8
:1028C0009093180A8093170A86EC90E090931A0A66
:1028D0008093190A14E010931B0AB3E0B0931C0A0A
:1028E000A7E0A0931D0AF5E0F0931E0AE1E0E09353
:1028F0001F0A1092240A1092230A2093250A30936B
:10290000260A4093270A5093280A7093220A60935C
:10291000210A87E698E090932E0A80932D0A8BEA8D
:1029200098E09093300A80932F0A8DEC90E090937A
:10293000320A8093310A8CEC90E09093340A8093B1
:10294000330A88EC90E09093360A8093350A89EC3C
:1029500090E09093380A8093370A8AEC90E0909345
:102960003A0A8093390A8EEC90E090933C0A809367
:102970003B0A10933D0AB0933E0AA0933F0AF0939E
:10298000400AE093410A1092460A1092450A2093A9
:10299000470A3093480A4093490A50934A0A709371
:1029A000440A6093430A8FEE98E09093500A809314
:1029B0004F0A83E399E09093520A8093510A85ED80
:1029C00090E09093540A8093530A84ED90E09093A2
:1029D000560A8093550A80ED90E09093580A8093B0
:1029E000570A81ED90E090935A0A8093590A82ED3C
:1029F00090E090935C0A80935B0A86ED90E0909360
:102A00005E0A80935D0A10935F0AB093600AA093F8
:102A1000610AF093620AE093630A1092680A1092C6
:102A2000670A2093690A30936A0A40936B0A5093AD
:102A30006C0A7093660A6093650A87E799E0909341
:102A4000720A8093710A8BEB99E09093740A8093D9
:102A5000730A85E391E09093760A8093750A84E384
:102A600091E09093780A8093770A80E391E09093C5
:102A70007A0A8093790A81E391E090937C0A8093AB
:102A80007B0A82E391E090937E0A80937D0A86E33D
:102A900091E09093800A80937F0A1093810AB0930B
:102AA000820AA093830AF093840AE093850A1F9117
:102AB0000895CF92DF92EF92FF920F931F93CF93DF
:102AC000DF937C016B018A01C0E0D0E00FC0D6012A
:102AD0006D916D01D701ED91FC910190F081E02D98
:102AE000C7011995C80FD91F0150104001151105D4
:102AF00071F7CE01DF91CF911F910F91FF90EF9071
:102B0000DF90CF900895EF92FF920F931F938C0167
:102B1000DC01ED91FC910190F081E02D6DE01995C3
:102B20007C01D801ED91FC910190F081E02DC8016C
:102B30006AE019959C012E0D3F1DC9011F910F914F
:102B4000FF90EF900895CF93DF93EC01611571052D
:102B500019F420E030E00FC0DB010D900020E9F710
:102B60001197A61BB70BE881F9810280F381E02D54
:102B7000AD0119959C01C901DF91CF9108954F9244
:102B80005F927F928F929F92AF92BF92CF92DF928D
:102B9000EF92FF920F931F93DF93CF93CDB7DEB7E2
:102BA000A1970FB6F894DEBF0FBECDBF2C01742ED7
:102BB000CB01223008F42AE019A231E2C32ED12C35
:102BC000CC0EDD1E822E9924AA24BB24672D752FDE
:102BD000A5019401B1D079018A01C801B701A5010D
:102BE00094018BD0472D461B0894C108D1084A3068
:102BF00014F4405D01C0495CF6014083E114F10426
:102C00000105110521F07E2C5F2DC801DFCFC20127
:102C1000B60199DFA1960FB6F894DEBF0FBECDBF07
:102C2000CF91DF911F910F91FF90EF90DF90CF90A8
:102C3000BF90AF909F908F907F905F904F9008953E
:102C4000CF92DF92EF92FF920F931F93CF93DF9378
:102C5000EC016A017B012115310541F4E881F9811C
:102C60000190F081E02D642F19951DC02A303105A7
:102C7000C9F477FF16C0E881F9810190F081E02D59
:102C80006DE219958C0144275527BA014C195D094D
:102C90006E097F09CE012AE072DF9801280F391FE3
:102CA00003C02AE06CDF9C01C901DF91CF911F9125
:102CB0000F91FF90EF90DF90CF900895CF92DF9229
:102CC000EF92FF920F931F936C017B019A010027F3
:102CD000F7FC0095102FB801A701B2DF8C01C601E7
:102CE00012DF080F191FC8011F910F91FF90EF907D
:102CF000DF90CF90089527CF0895629FD001739FF2
:102D0000F001829FE00DF11D649FE00DF11D929F87
:102D1000F00D839FF00D749FF00D659FF00D9927C6
:102D2000729FB00DE11DF91F639FB00DE11DF91FEA
:102D3000BD01CF0111240895A1E21A2EAA1BBB1BCD
:102D4000FD010DC0AA1FBB1FEE1FFF1FA217B30777
:102D5000E407F50720F0A21BB30BE40BF50B661F8D
:102D6000771F881F991F1A9469F760957095809551
:102D700090959B01AC01BD01CF010895EE0FFF1F9F
:102D80000590F491E02D19942F923F924F925F920B
:102D90006F927F928F929F92AF92BF92CF92DF926B
:102DA000EF92FF920F931F93CF93DF93CDB7DEB7D0
:102DB000CA1BDB0B0FB6F894DEBF0FBECDBF199454
:102DC0002A88398848885F846E847D848C849B84BB
:102DD000AA84B984C884DF80EE80FD800C811B81C9
:102DE000AA81B981CE0FD11D0FB6F894DEBF0FBEF8
:0A2DF000CDBFED010895F894FFCF68
:102DFA00417373657274696F6E206661696C65648C
:102E0A0020696E2066696C6520636F64652F525471
:102E1A004F532F67736C5F73797374656D4C6F6171
:102E2A00642E632C206C696E652000417373657291
:102E3A0074696F6E206661696C656420696E2066CC
:102E4A00696C6520636F64652F52544F532F7274F7
:102E5A006F732E632C206C696E6520004173736555
:102E6A007274696F6E206661696C656420696E2090
:102E7A0066696C6520636F64652F6170706C696345
:102E8A006174696F6E732F746331352F7374646F55
:102E9A0075742E632C206C696E6520003000350035
:102EAA00435055206C6F61643A202533752E257383
:102EBA0025250A0025356C7520746573742063799D
:102ECA00636C65732061667465722025376C7520A2
:102EDA006D730A00417373657274696F6E2066615F
:102EEA00696C656420696E2066696C6520636F642D
:102EFA00652F6170706C69636174696F6E732F748A
:102F0A006331352F746331355F73656D6170686F36
:102F1A007265732E632C206C696E652000FF9F0317
:102F2A0000000000E31359157913AA138A13D31367
:00000001FF
