:1000000002C100002CC100002AC1000028C100006C
:1000100026C1000024C1000022C1000020C1000050
:100020001EC100001CC100001AC1000018C1000060
:1000300016C1000014C1000012C100000DC2000072
:100040000EC100000CC100000AC1000008C1000080
:1000500006C1000004C1000002C10000DAC20000B5
:10006000FEC00000BEC40000B8C50000F8C000001B
:10007000F6C00000F4C00000F2C00000F0C00000B4
:10008000EEC00000ECC00000EAC00000E8C00000C4
:10009000E7C40000E1C50000E2C00000E0C00000CD
:1000A000DEC00000DCC00000DAC00000D8C00000E4
:1000B000D6C00000D4C00000D2C00000D0C00000F4
:1000C000CEC00000CCC00000CAC0000008C50000BF
:1000D00002C60000C4C0000041C500003BC60000CD
:1000E000BEC0000000002100240027002A002D00CF
:1000F0003000330001010000040107010A01000083
:100100002200250028002B002E00310034000201BF
:100110000000050108010B0100002000230026005B
:1001200029002C002F00320000010000030106010D
:10013000090105050505070508080808020202026D
:100140000A0A080804040404010101010101010173
:100150000303030303030303040707070C0C0C0C3E
:100160000C0C0C0C02020202060606060606060627
:100170000B0B0B0B0B0B0B0B0102102020080810B4
:100180002040102040800201020108040201010207
:1001900004081020408080402010080402018004E0
:1001A000020180402010080402010804020101023B
:1001B0000408102040800102040810204080000044
:1001C000090A02080B0C0D070603040100000000D9
:1001D000000000000000000000000000000000001F
:1001E0000000000000000000000011100F000000DF
:1001F00000000000000000000000000000000000FF
:1002000000000000190811241FBECFEFD1E2DEBFAD
:10021000CDBF00E00CBF13E0A0E0B2E0EAE9F5E1F9
:1002200000E00BBF02C007900D92A035B107D9F7CF
:100230001BBE16E0A0E5B3E001C01D92A931B107D5
:10024000E1F712E0C6E0D2E004C02297FE010E946E
:10025000C70AC430D107C9F703D00C94CB0AD0CE5B
:1002600079D209D080E090E00895E0E7F0E0808165
:100270008160808308950F931F9307E513E081E168
:10028000F80111928A95E9F7B0D1109254031092B7
:1002900058031092570310925C031092610310925E
:1002A000630310926203109265031092640381E06D
:1002B000809366031092670310933E0300933D03FF
:1002C0001093560300935503D0DF45D1FECFFF9224
:1002D0000F931F93DF93CF9300D00F92CDB7DEB76C
:1002E000F0903C03F394F0923C0310915403A0E08F
:1002F00000E0011708F060C0E02FF0E0EE0FFF1FF4
:10030000EC5AFC4F20813181F90143855485BA01B3
:100310008581F81609F461C0F9018285882361F0AE
:1003200081508287882341F48585968580709078F6
:10033000482B592B548743874617570709F44BC05E
:10034000F9018785882369F4F90165857685CB01F4
:10035000842795279F73892B31F0462357234070BC
:10036000507C452BC1F1D9011296EC91F0E0EB5A8B
:10037000FC4F8081A82FB0E0AA0FBB1FAB5ABC4F27
:100380002D933C938F5F80831150011788F4202FA9
:10039000E22FF0E0EE0FFF1FDF01AA5ABC4F8D9154
:1003A0009C91EC5AFC4F918380832F5F211780F33F
:1003B000A1E0011708F4A0CF10935403AA23B9F4C5
:1003C00080E00F900F900F900F90CF91DF911F91D1
:1003D0000F91FF9008950F5F8CCF85859685807073
:1003E0009074842B952B94878387AC0195CF789458
:1003F00080E090E0A0E4B0E089839A83AB83BC8383
:1004000081E995E060E072E00E94710A81E995E07F
:100410006EEC72E04AE050E00E94540A89819A81B1
:10042000AB81BC810097A105B10599F089819A81C2
:10043000AB81BC810197A109B10989839A83AB8300
:10044000BC8389819A81AB81BC810097A105B105EC
:1004500069F70C940000B4CF0F920FB60F921F9261
:100460002F923F924F925F926F927F928F929F92C4
:10047000AF92BF92CF92DF92EF92FF920F931F93B2
:100480002F933F934F935F936F937F93AF93BF935C
:10049000CF93DF93EF93FF938F939F93112417DFF5
:1004A000882309F435C0A0913D03B0913E038D919E
:1004B0009C91119790935303809352030DB6009231
:1004C00050030EB600925103009052030DBE0090EF
:1004D00053030EBE8091500390915103E091550358
:1004E000F0915603918380831B968D919C911C976C
:1004F000009771F090935303809352031C961C92C3
:100500001E921B97009052030F92009053030F927C
:100510009F918F91FF91EF91DF91CF91BF91AF911B
:100520007F916F915F914F913F912F911F910F910B
:10053000FF90EF90DF90CF90BF90AF909F908F9003
:100540007F906F905F904F903F902F901F900F90F3
:100550000FBE0F9018958DE061E011D266E970E052
:1005600080E090E09ED08DE060E009D266E970E026
:1005700080E090E096D08DE061E001D266E970E025
:1005800080E090E08ED08DE060E0F9D166E970E027
:1005900080E090E086D08DE061E0F1D166E970E026
:1005A00080E090E07ED08DE060E0E9D166E970E027
:1005B00080E090E076D08DE061E0E1D166E970E026
:1005C00080E090E06ED08DE060E0D9D166E970E027
:1005D00080E090E066D062E573E080E090E061D07A
:1005E00081E995E061E372E07EC70F931F9301E913
:1005F00015E0C80140E855E260E070E0EAD3C801C8
:1006000061E472E070D78DE061E006D11F910F9137
:1006100008951F920F920FB60F9211242F933F93BC
:100620008F939F93AF93BF9380916C0390916D03D1
:10063000A0916E03B0916F03309170030196A11DDC
:10064000B11D232F2D5F2D3720F02D570196A11DB1
:10065000B11D2093700380936C0390936D03A0935E
:100660006E03B0936F038091680390916903A0912A
:100670006A03B0916B030196A11DB11D80936803BD
:1006800090936903A0936A03B0936B03BF91AF91FA
:100690009F918F913F912F910F900FBE0F901F90C0
:1006A00018959B01AC017FB7F894809168039091F5
:1006B0006903A0916A03B0916B0366B5A89B05C05E
:1006C0006F3F19F00196A11DB11D7FBFBA2FA92F51
:1006D000982F8827860F911DA11DB11D62E0880FFC
:1006E000991FAA1FBB1F6A95D1F7BC012DC0FFB788
:1006F000F8948091680390916903A0916A03B09186
:100700006B03E6B5A89B05C0EF3F19F00196A11D4C
:10071000B11DFFBFBA2FA92F982F88278E0F911DCB
:10072000A11DB11DE2E0880F991FAA1FBB1FEA950A
:10073000D1F7861B970B885E9340C8F2215030405A
:100740004040504068517C4F21153105410551050D
:1007500071F60895789484B5826084BD84B5816013
:1007600084BD85B5826085BD85B5816085BDEEE6B9
:10077000F0E0808181608083E1E8F0E01082808198
:1007800082608083808181608083E0E8F0E0808106
:1007900081608083E1EBF0E0808184608083E0EB26
:1007A000F0E0808181608083E1E9F0E08081826017
:1007B0008083808181608083E0E9F0E080818160D6
:1007C0008083E1EAF0E080818260808380818160C3
:1007D0008083E0EAF0E0808181608083E1E2F1E003
:1007E000808182608083808181608083E0E2F1E0AB
:1007F000808181608083EAE7F0E08081846080838B
:100800008081826080838081816080838081806834
:1008100080831092C1000895CF93DF93482F50E05A
:10082000CA0188589E4FFC0134914E5C5E4FFA011C
:100830008491882369F190E0880F991FFC01EC51A5
:10084000FF4FA591B491FC01E250FF4FC591D491A7
:10085000662351F42FB7F8948C91932F90958923A8
:100860008C93888189230BC0623061F42FB7F89490
:100870008C91932F909589238C938881832B8883E7
:100880002FBF06C09FB7F8948C91832B8C939FBF8A
:10089000DF91CF910895893009F449C08A30A0F4DE
:1008A000843051F1853040F4823079F1833000F5A5
:1008B000813009F063C026C0873079F1883098F51F
:1008C000863009F05BC025C08D3009F442C08E30FF
:1008D00028F48B30B1F18C30C0F52DC0803109F493
:1008E00042C0813109F445C08F3009F047C037C09C
:1008F000809180008F7703C0809180008F7D8093EE
:100900008000089584B58F7702C084B58F7D84BD43
:1009100008958091B0008F7703C08091B0008F7DE3
:100920008093B0000895809190008F7707C08091E8
:1009300090008F7D03C080919000877F809390000E
:1009400008958091A0008F7707C08091A0008F7DCF
:1009500003C08091A000877F8093A00008958091BC
:1009600020018F7703C0809120018F7D809320012B
:10097000089580912001877F809320010895FF9240
:100980000F931F93F62E482F50E0CA0182549E4FBA
:10099000FC012491CA0188589E4FFC0114914E5CC1
:1009A0005E4FFA0104910023C1F0222311F0822F3F
:1009B00072DFE02FF0E0EE0FFF1FE250FF4FA59136
:1009C000B4919FB7F894FF2021F48C911095812366
:1009D00002C08C91812B8C939FBF1F910F91FF9030
:1009E00008951F920F920FB60F920BB60F9211241B
:1009F0002F933F934F938F939F93EF93FF93809108
:100A0000C00082FD1DC04091C6002091B10330910D
:100A1000B2032F5F3F4F2F7330708091B3039091DB
:100A2000B4032817390771F0E091B103F091B203D4
:100A3000EF58FC4F40833093B2032093B10302C0C0
:100A40008091C600FF91EF919F918F914F913F91BF
:100A50002F910F900BBE0F900FBE0F901F90189507
:100A60001F920F920FB60F920BB60F9211242F9375
:100A70003F934F938F939F93EF93FF938091C80081
:100A800082FD1DC04091CE002091390430913A047E
:100A90002F5F3F4F2F73307080913B0490913C0447
:100AA0002817390771F0E0913904F0913A04E750C2
:100AB000FC4F408330933A042093390402C0809164
:100AC000CE00FF91EF919F918F914F913F912F9188
:100AD0000F900BBE0F900FBE0F901F9018951F9296
:100AE0000F920FB60F920BB60F9211242F933F93D4
:100AF0004F938F939F93EF93FF938091D00082FD4C
:100B00001DC04091D6002091C1043091C2042F5FD6
:100B10003F4F2F7330708091C3049091C404281705
:100B2000390771F0E091C104F091C204EF57FB4F17
:100B300040833093C2042093C10402C08091D60048
:100B4000FF91EF919F918F914F913F912F910F9036
:100B50000BBE0F900FBE0F901F9018951F920F9213
:100B60000FB60F920BB60F9211242F933F934F9312
:100B70008F939F93EF93FF938091300182FD1DC06F
:100B8000409136012091490530914A052F5F3F4F32
:100B90002F73307080914B0590914C0528173907C1
:100BA00071F0E0914905F0914A05E75FFA4F408303
:100BB00030934A052093490502C080913601FF9188
:100BC000EF919F918F914F913F912F910F900BBE7D
:100BD0000F900FBE0F901F9018951F920F920FB697
:100BE0000F920BB60F9211242F933F938F939F93E5
:100BF000EF93FF932091F5033091F6038091F70373
:100C00009091F8032817390731F48091C1008F7D46
:100C10008093C10014C0E091F703F091F803EB5406
:100C2000FC4F20818091F7039091F80301968F7318
:100C300090709093F8038093F7032093C600FF9180
:100C4000EF919F918F913F912F910F900BBE0F903D
:100C50000FBE0F901F9018951F920F920FB60F9214
:100C60000BB60F9211242F933F938F939F93EF9383
:100C7000FF9320917D0430917E0480917F049091B8
:100C800080042817390731F48091C9008F7D809343
:100C9000C90014C0E0917F04F0918004E35CFB4F35
:100CA000208180917F049091800401968F739070D1
:100CB0009093800480937F042093CE00FF91EF9166
:100CC0009F918F913F912F910F900BBE0F900FBE70
:100CD0000F901F9018951F920F920FB60F920BB6A0
:100CE0000F9211242F933F938F939F93EF93FF9332
:100CF0002091050530910605809107059091080522
:100D00002817390731F48091D1008F7D8093D1006D
:100D100014C0E0910705F0910805EB53FB4F2081CB
:100D2000809107059091080501968F7390709093BC
:100D30000805809307052093D600FF91EF919F91BE
:100D40008F913F912F910F900BBE0F900FBE0F9080
:100D50001F9018951F920F920FB60F920BB60F921D
:100D600011242F933F938F939F93EF93FF932091A1
:100D70008D0530918E0580918F05909190052817F3
:100D8000390731F4809131018F7D8093310114C096
:100D9000E0918F05F0919005E35BFA4F20818091FF
:100DA0008F059091900501968F73907090939005A8
:100DB00080938F0520933601FF91EF919F918F9142
:100DC0003F912F910F900BBE0F900FBE0F901F9071
:100DD0001895AF92BF92DF92EF92FF920F931F93FD
:100DE000CF93DF93EC017A018B01DD24403081EE5B
:100DF000580780E0680780E0780711F0DD24D3947D
:100E000091E0A92EB12CEC89FD89DD2069F0C501A6
:100E100008A002C0880F991F0A94E2F7808360E05F
:100E200079E08DE390E005C0108260E874E88EE11F
:100E300090E0A801970187D32150304040405040B6
:100E4000569547953795279580E12030380720F053
:100E5000DD2011F0DD24D7CFE889F9893083EA89D4
:100E6000FB89208319A2EE89FF89408121E030E0CF
:100E7000C9010C8C02C0880F991F0A94E2F7482B15
:100E80004083EE89FF894081C9010D8C02C0880F23
:100E9000991F0A94E2F7482B4083EE89FF8940812D
:100EA000C9010E8C02C0880F991F0A94E2F7482BE3
:100EB0004083EE89FF8980810F8C02C0220F331F8F
:100EC0000A94E2F7209528232083DF91CF911F9188
:100ED0000F91FF90EF90DF90BF90AF900895DC01ED
:100EE0001C96ED91FC911D97E05CFF4F2191319193
:100EF00080819181281B390B2F733070C9010895AF
:100F0000DC011C96ED91FC911D97E05CFF4F208168
:100F10003181E054F040DF01AE5BBF4F8D919C9179
:100F200011972817390719F42FEF3FEF07C08D915C
:100F30009C91E80FF91F8081282F30E0C9010895A6
:100F4000DC011C96ED91FC911D97E05CFF4F208128
:100F50003181E054F040DF01AE5BBF4F8D919C9139
:100F600011972817390719F42FEF3FEF10C08D9113
:100F70009C911197E80FF91F20818D919C911197F9
:100F800001968F73907011969C938E9330E0C901F7
:100F90000895DC0191968C919197882339F05496AD
:100FA000ED91FC915597808186FFF9CF91961C9227
:100FB0000895CF93DF93EC01EE85FF85E05CFF4F52
:100FC00020813181E054F0402F5F3F4F2F7330700C
:100FD000DF01AE5BBF4F8D919C91119728173907A8
:100FE000D1F3E05CFF4F80819181E054F040E80F45
:100FF000F91F6083EE85FF85E05CFF4F318320831E
:10100000EE89FF89208181E090E00F8C02C0880F7B
:10101000991F0A94E2F7282B208381E089A3EC89A9
:10102000FD8980818064808381E090E0DF91CF91B1
:1010300008951F93109294051092930528EE33E0C3
:1010400040E050E020939505309396054093970536
:101050005093980563E473E0709392056093910553
:1010600081E793E090939E0580939D0585EB93E047
:101070009093A00580939F0585EC90E09093A20546
:101080008093A10584EC90E09093A4058093A30540
:1010900080EC90E09093A6058093A50581EC90E00C
:1010A0009093A8058093A70582EC90E09093AA0501
:1010B0008093A90586EC90E09093AC058093AB05F6
:1010C00014E01093AD05B3E0B093AE05A7E0A09394
:1010D000AF05F5E0F093B005E1E0E093B1051092C3
:1010E000B6051092B5052093B7053093B805409327
:1010F000B9055093BA057093B4056093B30589EFB1
:1011000093E09093C0058093BF058DE394E09093A6
:10111000C2058093C1058DEC90E09093C405809347
:10112000C3058CEC90E09093C6058093C50588ECD0
:1011300090E09093C8058093C70589EC90E0909368
:10114000CA058093C9058AEC90E09093CC05809302
:10115000CB058EEC90E09093CE058093CD05109357
:10116000CF05B093D005A093D105F093D205E093BD
:10117000D3051092D8051092D7052093D905309346
:10118000DA054093DB055093DC057093D605609338
:10119000D50581E894E09093E2058093E10585EC24
:1011A00094E09093E4058093E30585ED90E09093BF
:1011B000E6058093E50584ED90E09093E805809343
:1011C000E70580ED90E09093EA058093E90581EDD5
:1011D00090E09093EC058093EB0582ED90E0909386
:1011E000EE058093ED0586ED90E09093F0058093F9
:1011F000EF051093F105B093F205A093F305F0937A
:10120000F405E093F5051092FA051092F905209384
:10121000FB053093FC054093FD055093FE0570934C
:10122000F8056093F70589E095E0909304068093B4
:1012300003068DE495E0909306068093050685E30A
:1012400091E0909308068093070684E391E09093E1
:101250000A068093090680E391E090930C06809340
:101260000B0681E391E090930E0680930D0682E3D6
:1012700091E09093100680930F0686E391E090939F
:1012800012068093110610931306B0931406A093D0
:101290001506F0931606E09317061F910895CF9256
:1012A000DF92EF92FF920F931F93CF93DF937C0116
:1012B0006B018A01C0E0D0E00FC0D6016D916D01D5
:1012C000D701ED91FC910190F081E02DC7011995B6
:1012D000C80FD91F015010400115110571F7CE013B
:1012E000DF91CF911F910F91FF90EF90DF90CF9002
:1012F0000895EF92FF920F931F938C01DC01ED9103
:10130000FC910190F081E02D6DE019957C01D801F0
:10131000ED91FC910190F081E02DC8016AE01995F2
:101320009C012E0D3F1DC9011F910F91FF90EF9061
:101330000895CF93DF93EC016115710519F420E056
:1013400030E00FC0DB010D900020E9F71197A61BDC
:10135000B70BE881F9810280F381E02DAD01199589
:101360009C01C901DF91CF9108954F925F927F92C6
:101370008F929F92AF92BF92CF92DF92EF92FF92A5
:101380000F931F93DF93CF93CDB7DEB7A1970FB61F
:10139000F894DEBF0FBECDBF2C01742ECB012230DE
:1013A00008F42AE019A231E2C32ED12CCC0EDD1EA6
:1013B000822E9924AA24BB24672D752FA5019401A0
:1013C000C2D079018A01C801B701A50194019CD05E
:1013D000472D461B0894C108D1084A3014F4405DDB
:1013E00001C0495CF6014083E114F10401051105D7
:1013F00021F07E2C5F2DC801DFCFC201B60199DF3D
:10140000A1960FB6F894DEBF0FBECDBFCF91DF918E
:101410001F910F91FF90EF90DF90CF90BF90AF9012
:101420009F908F907F905F904F900895CF92DF9222
:10143000EF92FF920F931F93CF93DF93EC016A011A
:101440007B012115310541F4E881F9810190F0819A
:10145000E02D642F19951DC02A303105C9F477FF9E
:1014600016C0E881F9810190F081E02D6DE21995B7
:101470008C0144275527BA014C195D096E097F0973
:10148000CE012AE072DF9801280F391F03C02AE03D
:101490006CDF9C01C901DF91CF911F910F91FF90EB
:1014A000EF90DF90CF900895CF92DF92EF92FF926E
:1014B0000F931F936C017B019A010027F7FC0095A5
:1014C000102FB801A701B2DF8C01C60112DF080F8F
:1014D000191FC8011F910F91FF90EF90DF90CF90DF
:1014E000089527CF0895EF92FF920F931F937C01E9
:1014F00020DF8C01C701FDDE080F191FC8011F91F5
:101500000F91FF90EF900895629FD001739FF001BB
:10151000829FE00DF11D649FE00DF11D929FF00D83
:10152000839FF00D749FF00D659FF00D9927729FBA
:10153000B00DE11DF91F639FB00DE11DF91FBD0145
:10154000CF0111240895A1E21A2EAA1BBB1BFD0195
:101550000DC0AA1FBB1FEE1FFF1FA217B307E40792
:10156000F50720F0A21BB30BE40BF50B661F771FEA
:10157000881F991F1A9469F76095709580959095CA
:101580009B01AC01BD01CF010895EE0FFF1F059037
:0A159000F491E02D1994F894FFCFB8
:10159A00417373657274696F6E206661696C656404
:1015AA0020696E2066696C6520636F64652F5254EA
:1015BA004F532F72746F732E632C206C696E6520E3
:1015CA0000525475696E4F532069732069646C65C3
:1015DA00000A525475696E4F5320312E3020666FBF
:1015EA00722041726475696E6F20312E302E350A71
:1015FA00436F7079726967687420284329203230F2
:10160A0031322D3230313320506574657220567272
:10161A00616E6B656E20286D61696C746F3A5065F6
:10162A007465725F5672616E6B656E405961686F60
:10163A006F2E6465290A546869732069732066727B
:10164A00656520736F6674776172653B20736565A3
:10165A002074686520736F7572636520666F7220E7
:10166A00636F7079696E6720636F6E646974696FFE
:10167A006E732E205468657265206973204E4F0A76
:10168A0077617272616E74793B206E6F7420657631
:10169A00656E20666F72204D45524348414E544153
:1016AA0042494C495459206F72204649544E455379
:1016BA005320464F52204120504152544943554CE1
:1016CA00415220505552504F53452E00FF570300A8
:1016DA00000000D9074F096F07A0078007C9070054
:00000001FF
